{
  "_format": "hh-sol-artifact-1",
  "contractName": "ArtizanAuction",
  "sourceName": "contracts/ArtizanAuction.sol",
  "abi": [
    {
      "inputs": [],
      "stateMutability": "nonpayable",
      "type": "constructor"
    },
    {
      "anonymous": false,
      "inputs": [
        {
          "indexed": true,
          "internalType": "address",
          "name": "sender",
          "type": "address"
        },
        {
          "indexed": false,
          "internalType": "uint256",
          "name": "amount",
          "type": "uint256"
        }
      ],
      "name": "Bid",
      "type": "event"
    },
    {
      "anonymous": false,
      "inputs": [
        {
          "indexed": false,
          "internalType": "address",
          "name": "winner",
          "type": "address"
        },
        {
          "indexed": false,
          "internalType": "uint256",
          "name": "amount",
          "type": "uint256"
        }
      ],
      "name": "End",
      "type": "event"
    },
    {
      "anonymous": false,
      "inputs": [],
      "name": "Start",
      "type": "event"
    },
    {
      "anonymous": false,
      "inputs": [
        {
          "indexed": true,
          "internalType": "address",
          "name": "bidder",
          "type": "address"
        },
        {
          "indexed": false,
          "internalType": "uint256",
          "name": "amount",
          "type": "uint256"
        }
      ],
      "name": "Withdraw",
      "type": "event"
    },
    {
      "inputs": [
        {
          "internalType": "uint256",
          "name": "aID",
          "type": "uint256"
        }
      ],
      "name": "BidInfoWithBidID",
      "outputs": [
        {
          "components": [
            {
              "internalType": "address",
              "name": "nft",
              "type": "address"
            },
            {
              "internalType": "uint256",
              "name": "nftid",
              "type": "uint256"
            },
            {
              "internalType": "address payable",
              "name": "seller",
              "type": "address"
            },
            {
              "internalType": "uint256",
              "name": "endAt",
              "type": "uint256"
            },
            {
              "internalType": "bool",
              "name": "started",
              "type": "bool"
            },
            {
              "internalType": "bool",
              "name": "ended",
              "type": "bool"
            },
            {
              "internalType": "address",
              "name": "highestBidder",
              "type": "address"
            },
            {
              "internalType": "uint256",
              "name": "highestBid",
              "type": "uint256"
            },
            {
              "internalType": "uint256",
              "name": "startingPrice",
              "type": "uint256"
            }
          ],
          "internalType": "struct ArtizanAuction.AuctionInfo",
          "name": "",
          "type": "tuple"
        }
      ],
      "stateMutability": "view",
      "type": "function"
    },
    {
      "inputs": [
        {
          "internalType": "uint256",
          "name": "tokenId",
          "type": "uint256"
        }
      ],
      "name": "BidInfoWithTokenID",
      "outputs": [
        {
          "components": [
            {
              "internalType": "address",
              "name": "nft",
              "type": "address"
            },
            {
              "internalType": "uint256",
              "name": "nftid",
              "type": "uint256"
            },
            {
              "internalType": "address payable",
              "name": "seller",
              "type": "address"
            },
            {
              "internalType": "uint256",
              "name": "endAt",
              "type": "uint256"
            },
            {
              "internalType": "bool",
              "name": "started",
              "type": "bool"
            },
            {
              "internalType": "bool",
              "name": "ended",
              "type": "bool"
            },
            {
              "internalType": "address",
              "name": "highestBidder",
              "type": "address"
            },
            {
              "internalType": "uint256",
              "name": "highestBid",
              "type": "uint256"
            },
            {
              "internalType": "uint256",
              "name": "startingPrice",
              "type": "uint256"
            }
          ],
          "internalType": "struct ArtizanAuction.AuctionInfo",
          "name": "",
          "type": "tuple"
        }
      ],
      "stateMutability": "view",
      "type": "function"
    },
    {
      "inputs": [
        {
          "internalType": "address",
          "name": "NftCont",
          "type": "address"
        },
        {
          "internalType": "uint256",
          "name": "tokenId",
          "type": "uint256"
        },
        {
          "internalType": "uint256",
          "name": "startPrice",
          "type": "uint256"
        },
        {
          "internalType": "uint256",
          "name": "time",
          "type": "uint256"
        }
      ],
      "name": "createBidItem",
      "outputs": [],
      "stateMutability": "payable",
      "type": "function"
    },
    {
      "inputs": [
        {
          "internalType": "uint256",
          "name": "tokenId",
          "type": "uint256"
        },
        {
          "internalType": "address",
          "name": "nft",
          "type": "address"
        }
      ],
      "name": "finishBid",
      "outputs": [],
      "stateMutability": "nonpayable",
      "type": "function"
    },
    {
      "inputs": [
        {
          "internalType": "uint256",
          "name": "tokenId",
          "type": "uint256"
        }
      ],
      "name": "isTokenOnBid",
      "outputs": [
        {
          "internalType": "bool",
          "name": "",
          "type": "bool"
        }
      ],
      "stateMutability": "view",
      "type": "function"
    },
    {
      "inputs": [],
      "name": "listActiveBids",
      "outputs": [
        {
          "components": [
            {
              "internalType": "address",
              "name": "nft",
              "type": "address"
            },
            {
              "internalType": "uint256",
              "name": "nftid",
              "type": "uint256"
            },
            {
              "internalType": "address payable",
              "name": "seller",
              "type": "address"
            },
            {
              "internalType": "uint256",
              "name": "endAt",
              "type": "uint256"
            },
            {
              "internalType": "bool",
              "name": "started",
              "type": "bool"
            },
            {
              "internalType": "bool",
              "name": "ended",
              "type": "bool"
            },
            {
              "internalType": "address",
              "name": "highestBidder",
              "type": "address"
            },
            {
              "internalType": "uint256",
              "name": "highestBid",
              "type": "uint256"
            },
            {
              "internalType": "uint256",
              "name": "startingPrice",
              "type": "uint256"
            }
          ],
          "internalType": "struct ArtizanAuction.AuctionInfo[]",
          "name": "",
          "type": "tuple[]"
        }
      ],
      "stateMutability": "view",
      "type": "function"
    },
    {
      "inputs": [
        {
          "internalType": "uint256",
          "name": "tokenId",
          "type": "uint256"
        }
      ],
      "name": "listPrevBids",
      "outputs": [
        {
          "components": [
            {
              "internalType": "address",
              "name": "bidder",
              "type": "address"
            },
            {
              "internalType": "uint256",
              "name": "bid",
              "type": "uint256"
            },
            {
              "internalType": "bool",
              "name": "isBack",
              "type": "bool"
            }
          ],
          "internalType": "struct ArtizanAuction.prevBids[]",
          "name": "",
          "type": "tuple[]"
        }
      ],
      "stateMutability": "view",
      "type": "function"
    },
    {
      "inputs": [
        {
          "internalType": "address",
          "name": "user",
          "type": "address"
        }
      ],
      "name": "listUserActiveBid",
      "outputs": [
        {
          "components": [
            {
              "internalType": "address",
              "name": "nft",
              "type": "address"
            },
            {
              "internalType": "uint256",
              "name": "nftid",
              "type": "uint256"
            },
            {
              "internalType": "address payable",
              "name": "seller",
              "type": "address"
            },
            {
              "internalType": "uint256",
              "name": "endAt",
              "type": "uint256"
            },
            {
              "internalType": "bool",
              "name": "started",
              "type": "bool"
            },
            {
              "internalType": "bool",
              "name": "ended",
              "type": "bool"
            },
            {
              "internalType": "address",
              "name": "highestBidder",
              "type": "address"
            },
            {
              "internalType": "uint256",
              "name": "highestBid",
              "type": "uint256"
            },
            {
              "internalType": "uint256",
              "name": "startingPrice",
              "type": "uint256"
            }
          ],
          "internalType": "struct ArtizanAuction.AuctionInfo[]",
          "name": "",
          "type": "tuple[]"
        }
      ],
      "stateMutability": "view",
      "type": "function"
    },
    {
      "inputs": [
        {
          "internalType": "uint256",
          "name": "tokenId",
          "type": "uint256"
        }
      ],
      "name": "payBackPrevBids",
      "outputs": [],
      "stateMutability": "nonpayable",
      "type": "function"
    },
    {
      "inputs": [
        {
          "internalType": "uint256",
          "name": "tokenId",
          "type": "uint256"
        }
      ],
      "name": "placeBid",
      "outputs": [],
      "stateMutability": "payable",
      "type": "function"
    }
  ],
  "bytecode": "0x6080604052662386f26fc1000060025534801561001b57600080fd5b50600160008190555033600360006101000a81548173ffffffffffffffffffffffffffffffffffffffff021916908373ffffffffffffffffffffffffffffffffffffffff160217905550612bfa806100746000396000f3fe6080604052600436106100915760003560e01c806372306fec1161005957806372306fec1461019f5780637b123b0d146101dc5780639979ef4514610207578063dbdfe88514610223578063dbec1b7e1461026057610091565b806301ea0a9a146100965780630ef86a16146100bf578063143b03db146100fc5780635591895f146101255780635e0870a114610162575b600080fd5b3480156100a257600080fd5b506100bd60048036038101906100b89190612142565b61027c565b005b3480156100cb57600080fd5b506100e660048036038101906100e19190612142565b61059d565b6040516100f391906126d2565b60405180910390f35b34801561010857600080fd5b50610123600480360381019061011e919061216b565b610631565b005b34801561013157600080fd5b5061014c600480360381019061014791906120b6565b610b6b565b604051610159919061268e565b60405180910390f35b34801561016e57600080fd5b5061018960048036038101906101849190612142565b610fd6565b604051610196919061280d565b60405180910390f35b3480156101ab57600080fd5b506101c660048036038101906101c19190612142565b611164565b6040516101d391906126b0565b60405180910390f35b3480156101e857600080fd5b506101f161126d565b6040516101fe919061268e565b60405180910390f35b610221600480360381019061021c9190612142565b6115fc565b005b34801561022f57600080fd5b5061024a60048036038101906102459190612142565b611a0a565b604051610257919061280d565b60405180910390f35b61027a600480360381019061027591906120df565b611bb4565b005b60006005600083815260200190815260200160002060010154905060006006600083815260200190815260200160002080549050905060005b81811015610597576000151560066000858152602001908152602001600020828154811061030c577f4e487b7100000000000000000000000000000000000000000000000000000000600052603260045260246000fd5b906000526020600020906003020160020160009054906101000a900460ff1615151415610584576001600660008581526020019081526020016000208281548110610380577f4e487b7100000000000000000000000000000000000000000000000000000000600052603260045260246000fd5b906000526020600020906003020160020160006101000a81548160ff02191690831515021790555060006006600085815260200190815260200160002082815481106103f5577f4e487b7100000000000000000000000000000000000000000000000000000000600052603260045260246000fd5b90600052602060002090600302016001015490506000600660008681526020019081526020016000208381548110610456577f4e487b7100000000000000000000000000000000000000000000000000000000600052603260045260246000fd5b906000526020600020906003020160000160009054906101000a900473ffffffffffffffffffffffffffffffffffffffff1690503373ffffffffffffffffffffffffffffffffffffffff166108fc839081150290604051600060405180830381858888f193505050501580156104d0573d6000803e3d6000fd5b508073ffffffffffffffffffffffffffffffffffffffff167f884edad9ce6fa2440d8a54cc123490eb96d2768479d49ff9c7366125a9424364836040516105179190612829565b60405180910390a2600060066000878152602001908152602001600020848154811061056c577f4e487b7100000000000000000000000000000000000000000000000000000000600052603260045260246000fd5b90600052602060002090600302016001018190555050505b808061058f906129ad565b9150506102b5565b50505050565b60008060056000848152602001908152602001600020600101549050600115156004600083815260200190815260200160002060040160009054906101000a900460ff1615151480156106175750600015156004600083815260200190815260200160002060040160019054906101000a900460ff161515145b1561062657600191505061062c565b60009150505b919050565b60026000541415610677576040517f08c379a000000000000000000000000000000000000000000000000000000000815260040161066e9061278d565b60405180910390fd5b60026000819055506000600560008481526020019081526020016000206001015490506004600082815260200190815260200160002060040160009054906101000a900460ff166106fd576040517f08c379a00000000000000000000000000000000000000000000000000000000081526004016106f49061276d565b60405180910390fd5b6004600082815260200190815260200160002060030154421015610756576040517f08c379a000000000000000000000000000000000000000000000000000000000815260040161074d906127ed565b60405180910390fd5b6004600082815260200190815260200160002060040160019054906101000a900460ff16156107ba576040517f08c379a00000000000000000000000000000000000000000000000000000000081526004016107b1906127ad565b60405180910390fd5b60016004600083815260200190815260200160002060040160016101000a81548160ff021916908315150217905550600073ffffffffffffffffffffffffffffffffffffffff166004600083815260200190815260200160002060040160029054906101000a900473ffffffffffffffffffffffffffffffffffffffff1673ffffffffffffffffffffffffffffffffffffffff16146109ac5760008290508073ffffffffffffffffffffffffffffffffffffffff1663f5537ede306004600086815260200190815260200160002060040160029054906101000a900473ffffffffffffffffffffffffffffffffffffffff1660046000878152602001908152602001600020600101546040518463ffffffff1660e01b81526004016108e19392919061262e565b600060405180830381600087803b1580156108fb57600080fd5b505af115801561090f573d6000803e3d6000fd5b505050506004600083815260200190815260200160002060020160009054906101000a900473ffffffffffffffffffffffffffffffffffffffff1673ffffffffffffffffffffffffffffffffffffffff166108fc60046000858152602001908152602001600020600501549081150290604051600060405180830381858888f193505050501580156109a5573d6000803e3d6000fd5b5050610a6e565b60008290508073ffffffffffffffffffffffffffffffffffffffff1663f5537ede306004600086815260200190815260200160002060020160009054906101000a900473ffffffffffffffffffffffffffffffffffffffff1660046000878152602001908152602001600020600101546040518463ffffffff1660e01b8152600401610a3a939291906125f7565b600060405180830381600087803b158015610a5457600080fd5b505af1158015610a68573d6000803e3d6000fd5b50505050505b600360009054906101000a900473ffffffffffffffffffffffffffffffffffffffff1673ffffffffffffffffffffffffffffffffffffffff166108fc6002549081150290604051600060405180830381858888f19350505050158015610ad8573d6000803e3d6000fd5b507f7d7570b046e5ead3a4f3fbc9fa2445113625a1e79823776146316bafed6b8cc56004600083815260200190815260200160002060040160029054906101000a900473ffffffffffffffffffffffffffffffffffffffff166004600084815260200190815260200160002060050154604051610b56929190612665565b60405180910390a15060016000819055505050565b60606000806000600190505b610b816001611f9d565b8111610c7957600115156004600083815260200190815260200160002060040160009054906101000a900460ff161515148015610be55750600015156004600083815260200190815260200160002060040160019054906101000a900460ff161515145b8015610c5257508473ffffffffffffffffffffffffffffffffffffffff166004600083815260200190815260200160002060020160009054906101000a900473ffffffffffffffffffffffffffffffffffffffff1673ffffffffffffffffffffffffffffffffffffffff16145b15610c66578280610c62906129ad565b9350505b8080610c71906129ad565b915050610b77565b5060008267ffffffffffffffff811115610cbc577f4e487b7100000000000000000000000000000000000000000000000000000000600052604160045260246000fd5b604051908082528060200260200182016040528015610cf557816020015b610ce2611fc1565b815260200190600190039081610cda5790505b5090506000600190505b610d096001611f9d565b8111610fca57600115156004600083815260200190815260200160002060040160009054906101000a900460ff161515148015610d6d5750600015156004600083815260200190815260200160002060040160019054906101000a900460ff161515145b8015610dda57508573ffffffffffffffffffffffffffffffffffffffff166004600083815260200190815260200160002060020160009054906101000a900473ffffffffffffffffffffffffffffffffffffffff1673ffffffffffffffffffffffffffffffffffffffff16145b15610fb757600060046000838152602001908152602001600020905080604051806101200160405290816000820160009054906101000a900473ffffffffffffffffffffffffffffffffffffffff1673ffffffffffffffffffffffffffffffffffffffff1673ffffffffffffffffffffffffffffffffffffffff168152602001600182015481526020016002820160009054906101000a900473ffffffffffffffffffffffffffffffffffffffff1673ffffffffffffffffffffffffffffffffffffffff1673ffffffffffffffffffffffffffffffffffffffff168152602001600382015481526020016004820160009054906101000a900460ff161515151581526020016004820160019054906101000a900460ff161515151581526020016004820160029054906101000a900473ffffffffffffffffffffffffffffffffffffffff1673ffffffffffffffffffffffffffffffffffffffff1673ffffffffffffffffffffffffffffffffffffffff16815260200160058201548152602001600682015481525050838581518110610f9c577f4e487b7100000000000000000000000000000000000000000000000000000000600052603260045260246000fd5b60200260200101819052508380610fb2906129ad565b945050505b8080610fc2906129ad565b915050610cff565b50809350505050919050565b610fde611fc1565b60046000838152602001908152602001600020604051806101200160405290816000820160009054906101000a900473ffffffffffffffffffffffffffffffffffffffff1673ffffffffffffffffffffffffffffffffffffffff1673ffffffffffffffffffffffffffffffffffffffff168152602001600182015481526020016002820160009054906101000a900473ffffffffffffffffffffffffffffffffffffffff1673ffffffffffffffffffffffffffffffffffffffff1673ffffffffffffffffffffffffffffffffffffffff168152602001600382015481526020016004820160009054906101000a900460ff161515151581526020016004820160019054906101000a900460ff161515151581526020016004820160029054906101000a900473ffffffffffffffffffffffffffffffffffffffff1673ffffffffffffffffffffffffffffffffffffffff1673ffffffffffffffffffffffffffffffffffffffff168152602001600582015481526020016006820154815250509050919050565b606060006005600084815260200190815260200160002060010154905060066000828152602001908152602001600020805480602002602001604051908101604052809291908181526020016000905b8282101561126157838290600052602060002090600302016040518060600160405290816000820160009054906101000a900473ffffffffffffffffffffffffffffffffffffffff1673ffffffffffffffffffffffffffffffffffffffff1673ffffffffffffffffffffffffffffffffffffffff168152602001600182015481526020016002820160009054906101000a900460ff161515151581525050815260200190600101906111b4565b50505050915050919050565b60606000806000600190505b6112836001611f9d565b811161130e57600115156004600083815260200190815260200160002060040160009054906101000a900460ff1615151480156112e75750600015156004600083815260200190815260200160002060040160019054906101000a900460ff161515145b156112fb5782806112f7906129ad565b9350505b8080611306906129ad565b915050611279565b5060008267ffffffffffffffff811115611351577f4e487b7100000000000000000000000000000000000000000000000000000000600052604160045260246000fd5b60405190808252806020026020018201604052801561138a57816020015b611377611fc1565b81526020019060019003908161136f5790505b5090506000600190505b61139e6001611f9d565b81116115f257600115156004600083815260200190815260200160002060040160009054906101000a900460ff1615151480156114025750600015156004600083815260200190815260200160002060040160019054906101000a900460ff161515145b156115df57600060046000838152602001908152602001600020905080604051806101200160405290816000820160009054906101000a900473ffffffffffffffffffffffffffffffffffffffff1673ffffffffffffffffffffffffffffffffffffffff1673ffffffffffffffffffffffffffffffffffffffff168152602001600182015481526020016002820160009054906101000a900473ffffffffffffffffffffffffffffffffffffffff1673ffffffffffffffffffffffffffffffffffffffff1673ffffffffffffffffffffffffffffffffffffffff168152602001600382015481526020016004820160009054906101000a900460ff161515151581526020016004820160019054906101000a900460ff161515151581526020016004820160029054906101000a900473ffffffffffffffffffffffffffffffffffffffff1673ffffffffffffffffffffffffffffffffffffffff1673ffffffffffffffffffffffffffffffffffffffff168152602001600582015481526020016006820154815250508385815181106115c4577f4e487b7100000000000000000000000000000000000000000000000000000000600052603260045260246000fd5b602002602001018190525083806115da906129ad565b945050505b80806115ea906129ad565b915050611394565b5080935050505090565b60026000541415611642576040517f08c379a00000000000000000000000000000000000000000000000000000000081526004016116399061278d565b60405180910390fd5b60026000819055506000600560008381526020019081526020016000206001015490506004600082815260200190815260200160002060040160009054906101000a900460ff166116c8576040517f08c379a00000000000000000000000000000000000000000000000000000000081526004016116bf9061276d565b60405180910390fd5b6004600082815260200190815260200160002060040160019054906101000a900460ff161561172c576040517f08c379a0000000000000000000000000000000000000000000000000000000008152600401611723906127cd565b60405180910390fd5b60046000828152602001908152602001600020600301544210611784576040517f08c379a000000000000000000000000000000000000000000000000000000000815260040161177b906127ad565b60405180910390fd5b600460008281526020019081526020016000206005015434116117dc576040517f08c379a00000000000000000000000000000000000000000000000000000000081526004016117d39061270d565b60405180910390fd5b60006004600083815260200190815260200160002060040160029054906101000a900473ffffffffffffffffffffffffffffffffffffffff16905060006004600084815260200190815260200160002060050154905061183a612053565b82816000019073ffffffffffffffffffffffffffffffffffffffff16908173ffffffffffffffffffffffffffffffffffffffff16815250508181602001818152505060008160400190151590811515815250506006600085815260200190815260200160002081908060018154018082558091505060019003906000526020600020906003020160009091909190915060008201518160000160006101000a81548173ffffffffffffffffffffffffffffffffffffffff021916908373ffffffffffffffffffffffffffffffffffffffff1602179055506020820151816001015560408201518160020160006101000a81548160ff0219169083151502179055505050336004600086815260200190815260200160002060040160026101000a81548173ffffffffffffffffffffffffffffffffffffffff021916908373ffffffffffffffffffffffffffffffffffffffff1602179055503460046000868152602001908152602001600020600501819055503373ffffffffffffffffffffffffffffffffffffffff167fe684a55f31b79eca403df938249029212a5925ec6be8012e099b45bc1019e5d2346040516119f39190612829565b60405180910390a250505050600160008190555050565b611a12611fc1565b60006005600084815260200190815260200160002060010154905060046000828152602001908152602001600020604051806101200160405290816000820160009054906101000a900473ffffffffffffffffffffffffffffffffffffffff1673ffffffffffffffffffffffffffffffffffffffff1673ffffffffffffffffffffffffffffffffffffffff168152602001600182015481526020016002820160009054906101000a900473ffffffffffffffffffffffffffffffffffffffff1673ffffffffffffffffffffffffffffffffffffffff1673ffffffffffffffffffffffffffffffffffffffff168152602001600382015481526020016004820160009054906101000a900460ff161515151581526020016004820160019054906101000a900460ff161515151581526020016004820160029054906101000a900473ffffffffffffffffffffffffffffffffffffffff1673ffffffffffffffffffffffffffffffffffffffff1673ffffffffffffffffffffffffffffffffffffffff16815260200160058201548152602001600682015481525050915050919050565b60026000541415611bfa576040517f08c379a0000000000000000000000000000000000000000000000000000000008152600401611bf19061278d565b60405180910390fd5b600260008190555060008211611c45576040517f08c379a0000000000000000000000000000000000000000000000000000000008152600401611c3c906126ed565b60405180910390fd5b6002543414611c89576040517f08c379a0000000000000000000000000000000000000000000000000000000008152600401611c809061274d565b60405180910390fd5b603c811015611ccd576040517f08c379a0000000000000000000000000000000000000000000000000000000008152600401611cc49061272d565b60405180910390fd5b611cd76001611fab565b6000611ce36001611f9d565b905080600560008681526020019081526020016000206001018190555060008242611d0e91906128c7565b90506040518061012001604052808773ffffffffffffffffffffffffffffffffffffffff1681526020018681526020013373ffffffffffffffffffffffffffffffffffffffff1681526020018281526020016001151581526020016000151581526020013373ffffffffffffffffffffffffffffffffffffffff168152602001858152602001858152506004600084815260200190815260200160002060008201518160000160006101000a81548173ffffffffffffffffffffffffffffffffffffffff021916908373ffffffffffffffffffffffffffffffffffffffff1602179055506020820151816001015560408201518160020160006101000a81548173ffffffffffffffffffffffffffffffffffffffff021916908373ffffffffffffffffffffffffffffffffffffffff1602179055506060820151816003015560808201518160040160006101000a81548160ff02191690831515021790555060a08201518160040160016101000a81548160ff02191690831515021790555060c08201518160040160026101000a81548173ffffffffffffffffffffffffffffffffffffffff021916908373ffffffffffffffffffffffffffffffffffffffff16021790555060e08201518160050155610100820151816006015590505060008690508073ffffffffffffffffffffffffffffffffffffffff1663f5537ede3330896040518463ffffffff1660e01b8152600401611f2e9392919061262e565b600060405180830381600087803b158015611f4857600080fd5b505af1158015611f5c573d6000803e3d6000fd5b505050507f1b55ba3aa851a46be3b365aee5b5c140edd620d578922f3e8466d2cbd96f954b60405160405180910390a1505050600160008190555050505050565b600081600001549050919050565b6001816000016000828254019250508190555050565b604051806101200160405280600073ffffffffffffffffffffffffffffffffffffffff16815260200160008152602001600073ffffffffffffffffffffffffffffffffffffffff16815260200160008152602001600015158152602001600015158152602001600073ffffffffffffffffffffffffffffffffffffffff16815260200160008152602001600081525090565b6040518060600160405280600073ffffffffffffffffffffffffffffffffffffffff168152602001600081526020016000151581525090565b60008135905061209b81612b96565b92915050565b6000813590506120b081612bad565b92915050565b6000602082840312156120c857600080fd5b60006120d68482850161208c565b91505092915050565b600080600080608085870312156120f557600080fd5b60006121038782880161208c565b9450506020612114878288016120a1565b9350506040612125878288016120a1565b9250506060612136878288016120a1565b91505092959194509250565b60006020828403121561215457600080fd5b6000612162848285016120a1565b91505092915050565b6000806040838503121561217e57600080fd5b600061218c858286016120a1565b925050602061219d8582860161208c565b9150509250929050565b60006121b38383612429565b6101208301905092915050565b60006121cc8383612597565b60608301905092915050565b6121e181612977565b82525050565b6121f08161292f565b82525050565b6121ff8161291d565b82525050565b61220e8161291d565b82525050565b600061221f82612864565b6122298185612894565b935061223483612844565b8060005b8381101561226557815161224c88826121a7565b97506122578361287a565b925050600181019050612238565b5085935050505092915050565b600061227d8261286f565b61228781856128a5565b935061229283612854565b8060005b838110156122c35781516122aa88826121c0565b97506122b583612887565b925050600181019050612296565b5085935050505092915050565b6122d981612941565b82525050565b6122e881612941565b82525050565b60006122fb6007836128b6565b915061230682612a25565b602082019050919050565b600061231e600f836128b6565b915061232982612a4e565b602082019050919050565b6000612341600f836128b6565b915061234c82612a77565b602082019050919050565b60006123646016836128b6565b915061236f82612aa0565b602082019050919050565b6000612387600b836128b6565b915061239282612ac9565b602082019050919050565b60006123aa601f836128b6565b91506123b582612af2565b602082019050919050565b60006123cd6005836128b6565b91506123d882612b1b565b602082019050919050565b60006123f0600b836128b6565b91506123fb82612b44565b602082019050919050565b60006124136009836128b6565b915061241e82612b6d565b602082019050919050565b6101208201600082015161244060008501826121f6565b50602082015161245360208501826125d9565b50604082015161246660408501826121e7565b50606082015161247960608501826125d9565b50608082015161248c60808501826122d0565b5060a082015161249f60a08501826122d0565b5060c08201516124b260c08501826121f6565b5060e08201516124c560e08501826125d9565b506101008201516124da6101008501826125d9565b50505050565b610120820160008201516124f760008501826121f6565b50602082015161250a60208501826125d9565b50604082015161251d60408501826121e7565b50606082015161253060608501826125d9565b50608082015161254360808501826122d0565b5060a082015161255660a08501826122d0565b5060c082015161256960c08501826121f6565b5060e082015161257c60e08501826125d9565b506101008201516125916101008501826125d9565b50505050565b6060820160008201516125ad60008501826121f6565b5060208201516125c060208501826125d9565b5060408201516125d360408501826122d0565b50505050565b6125e28161296d565b82525050565b6125f18161296d565b82525050565b600060608201905061260c6000830186612205565b61261960208301856121d8565b61262660408301846125e8565b949350505050565b60006060820190506126436000830186612205565b6126506020830185612205565b61265d60408301846125e8565b949350505050565b600060408201905061267a6000830185612205565b61268760208301846125e8565b9392505050565b600060208201905081810360008301526126a88184612214565b905092915050565b600060208201905081810360008301526126ca8184612272565b905092915050565b60006020820190506126e760008301846122df565b92915050565b60006020820190508181036000830152612706816122ee565b9050919050565b6000602082019050818103600083015261272681612311565b9050919050565b6000602082019050818103600083015261274681612334565b9050919050565b6000602082019050818103600083015261276681612357565b9050919050565b600060208201905081810360008301526127868161237a565b9050919050565b600060208201905081810360008301526127a68161239d565b9050919050565b600060208201905081810360008301526127c6816123c0565b9050919050565b600060208201905081810360008301526127e6816123e3565b9050919050565b6000602082019050818103600083015261280681612406565b9050919050565b60006101208201905061282360008301846124e0565b92915050565b600060208201905061283e60008301846125e8565b92915050565b6000819050602082019050919050565b6000819050602082019050919050565b600081519050919050565b600081519050919050565b6000602082019050919050565b6000602082019050919050565b600082825260208201905092915050565b600082825260208201905092915050565b600082825260208201905092915050565b60006128d28261296d565b91506128dd8361296d565b9250827fffffffffffffffffffffffffffffffffffffffffffffffffffffffffffffffff03821115612912576129116129f6565b5b828201905092915050565b60006129288261294d565b9050919050565b600061293a8261294d565b9050919050565b60008115159050919050565b600073ffffffffffffffffffffffffffffffffffffffff82169050919050565b6000819050919050565b600061298282612989565b9050919050565b60006129948261299b565b9050919050565b60006129a68261294d565b9050919050565b60006129b88261296d565b91507fffffffffffffffffffffffffffffffffffffffffffffffffffffffffffffffff8214156129eb576129ea6129f6565b5b600182019050919050565b7f4e487b7100000000000000000000000000000000000000000000000000000000600052601160045260246000fd5b7f546f6f206c6f7700000000000000000000000000000000000000000000000000600082015250565b7f76616c7565203c20686967686573740000000000000000000000000000000000600082015250565b7f6174206c65617374203630207365630000000000000000000000000000000000600082015250565b7f73656e6420746865206c697374696e6720507269636500000000000000000000600082015250565b7f6e6f742073746172746564000000000000000000000000000000000000000000600082015250565b7f5265656e7472616e637947756172643a207265656e7472616e742063616c6c00600082015250565b7f656e646564000000000000000000000000000000000000000000000000000000600082015250565b7f616c726561647920656e64000000000000000000000000000000000000000000600082015250565b7f6e6f7420656e6465640000000000000000000000000000000000000000000000600082015250565b612b9f8161291d565b8114612baa57600080fd5b50565b612bb68161296d565b8114612bc157600080fd5b5056fea26469706673582212205cfacfbd9329a7afea4128e0dcf11f022e8f0efb6a45470d832be554c32e090a64736f6c63430008010033",
  "linkReferences": {},
  "deployedLinkReferences": {}
}