{
  "_format": "hh-sol-artifact-1",
  "contractName": "ArtizanNFT",
  "sourceName": "contracts/ArtizanNFT.sol",
  "abi": [
    {
      "inputs": [
        {
          "internalType": "address",
          "name": "marketPlaceAddress",
          "type": "address"
        }
      ],
      "stateMutability": "nonpayable",
      "type": "constructor"
    },
    {
      "anonymous": false,
      "inputs": [
        {
          "indexed": true,
          "internalType": "address",
          "name": "owner",
          "type": "address"
        },
        {
          "indexed": true,
          "internalType": "address",
          "name": "approved",
          "type": "address"
        },
        {
          "indexed": true,
          "internalType": "uint256",
          "name": "tokenId",
          "type": "uint256"
        }
      ],
      "name": "Approval",
      "type": "event"
    },
    {
      "anonymous": false,
      "inputs": [
        {
          "indexed": true,
          "internalType": "address",
          "name": "owner",
          "type": "address"
        },
        {
          "indexed": true,
          "internalType": "address",
          "name": "operator",
          "type": "address"
        },
        {
          "indexed": false,
          "internalType": "bool",
          "name": "approved",
          "type": "bool"
        }
      ],
      "name": "ApprovalForAll",
      "type": "event"
    },
    {
      "anonymous": false,
      "inputs": [
        {
          "indexed": true,
          "internalType": "address",
          "name": "from",
          "type": "address"
        },
        {
          "indexed": true,
          "internalType": "address",
          "name": "to",
          "type": "address"
        },
        {
          "indexed": true,
          "internalType": "uint256",
          "name": "tokenId",
          "type": "uint256"
        }
      ],
      "name": "Transfer",
      "type": "event"
    },
    {
      "inputs": [
        {
          "internalType": "address",
          "name": "to",
          "type": "address"
        },
        {
          "internalType": "uint256",
          "name": "tokenId",
          "type": "uint256"
        }
      ],
      "name": "approve",
      "outputs": [],
      "stateMutability": "nonpayable",
      "type": "function"
    },
    {
      "inputs": [
        {
          "internalType": "address",
          "name": "owner",
          "type": "address"
        }
      ],
      "name": "balanceOf",
      "outputs": [
        {
          "internalType": "uint256",
          "name": "",
          "type": "uint256"
        }
      ],
      "stateMutability": "view",
      "type": "function"
    },
    {
      "inputs": [
        {
          "internalType": "uint256",
          "name": "tokenId",
          "type": "uint256"
        }
      ],
      "name": "burn",
      "outputs": [],
      "stateMutability": "nonpayable",
      "type": "function"
    },
    {
      "inputs": [
        {
          "internalType": "uint256",
          "name": "tokenId",
          "type": "uint256"
        }
      ],
      "name": "burnNFT",
      "outputs": [],
      "stateMutability": "nonpayable",
      "type": "function"
    },
    {
      "inputs": [
        {
          "internalType": "uint256",
          "name": "tokenId",
          "type": "uint256"
        }
      ],
      "name": "getApproved",
      "outputs": [
        {
          "internalType": "address",
          "name": "",
          "type": "address"
        }
      ],
      "stateMutability": "view",
      "type": "function"
    },
    {
      "inputs": [
        {
          "internalType": "address",
          "name": "owner",
          "type": "address"
        },
        {
          "internalType": "address",
          "name": "operator",
          "type": "address"
        }
      ],
      "name": "isApprovedForAll",
      "outputs": [
        {
          "internalType": "bool",
          "name": "",
          "type": "bool"
        }
      ],
      "stateMutability": "view",
      "type": "function"
    },
    {
      "inputs": [
        {
          "internalType": "string",
          "name": "tokenUri",
          "type": "string"
        }
      ],
      "name": "mintNFT",
      "outputs": [
        {
          "internalType": "uint256",
          "name": "",
          "type": "uint256"
        }
      ],
      "stateMutability": "nonpayable",
      "type": "function"
    },
    {
      "inputs": [],
      "name": "name",
      "outputs": [
        {
          "internalType": "string",
          "name": "",
          "type": "string"
        }
      ],
      "stateMutability": "view",
      "type": "function"
    },
    {
      "inputs": [
        {
          "internalType": "uint256",
          "name": "tokenId",
          "type": "uint256"
        }
      ],
      "name": "ownerOf",
      "outputs": [
        {
          "internalType": "address",
          "name": "",
          "type": "address"
        }
      ],
      "stateMutability": "view",
      "type": "function"
    },
    {
      "inputs": [
        {
          "internalType": "address",
          "name": "from",
          "type": "address"
        },
        {
          "internalType": "address",
          "name": "to",
          "type": "address"
        },
        {
          "internalType": "uint256",
          "name": "tokenId",
          "type": "uint256"
        }
      ],
      "name": "safeTransferFrom",
      "outputs": [],
      "stateMutability": "nonpayable",
      "type": "function"
    },
    {
      "inputs": [
        {
          "internalType": "address",
          "name": "from",
          "type": "address"
        },
        {
          "internalType": "address",
          "name": "to",
          "type": "address"
        },
        {
          "internalType": "uint256",
          "name": "tokenId",
          "type": "uint256"
        },
        {
          "internalType": "bytes",
          "name": "_data",
          "type": "bytes"
        }
      ],
      "name": "safeTransferFrom",
      "outputs": [],
      "stateMutability": "nonpayable",
      "type": "function"
    },
    {
      "inputs": [
        {
          "internalType": "address",
          "name": "operator",
          "type": "address"
        },
        {
          "internalType": "bool",
          "name": "approved",
          "type": "bool"
        }
      ],
      "name": "setApprovalForAll",
      "outputs": [],
      "stateMutability": "nonpayable",
      "type": "function"
    },
    {
      "inputs": [
        {
          "internalType": "bytes4",
          "name": "interfaceId",
          "type": "bytes4"
        }
      ],
      "name": "supportsInterface",
      "outputs": [
        {
          "internalType": "bool",
          "name": "",
          "type": "bool"
        }
      ],
      "stateMutability": "view",
      "type": "function"
    },
    {
      "inputs": [],
      "name": "symbol",
      "outputs": [
        {
          "internalType": "string",
          "name": "",
          "type": "string"
        }
      ],
      "stateMutability": "view",
      "type": "function"
    },
    {
      "inputs": [],
      "name": "tokenID",
      "outputs": [
        {
          "internalType": "uint256",
          "name": "",
          "type": "uint256"
        }
      ],
      "stateMutability": "view",
      "type": "function"
    },
    {
      "inputs": [
        {
          "internalType": "uint256",
          "name": "tokenId",
          "type": "uint256"
        }
      ],
      "name": "tokenURI",
      "outputs": [
        {
          "internalType": "string",
          "name": "",
          "type": "string"
        }
      ],
      "stateMutability": "view",
      "type": "function"
    },
    {
      "inputs": [
        {
          "internalType": "address",
          "name": "from",
          "type": "address"
        },
        {
          "internalType": "address",
          "name": "to",
          "type": "address"
        },
        {
          "internalType": "uint256",
          "name": "tokenId",
          "type": "uint256"
        }
      ],
      "name": "transferFrom",
      "outputs": [],
      "stateMutability": "nonpayable",
      "type": "function"
    },
    {
      "inputs": [
        {
          "internalType": "address",
          "name": "from",
          "type": "address"
        },
        {
          "internalType": "address",
          "name": "to",
          "type": "address"
        },
        {
          "internalType": "uint256",
          "name": "tokenId",
          "type": "uint256"
        }
      ],
      "name": "transferToken",
      "outputs": [],
      "stateMutability": "nonpayable",
      "type": "function"
    }
  ],
  "bytecode": "0x60806040523480156200001157600080fd5b5060405162003341380380620033418339818101604052810190620000379190620001e6565b6040518060400160405280600a81526020017f417274697a616e4e4654000000000000000000000000000000000000000000008152506040518060400160405280600481526020017f417a616e000000000000000000000000000000000000000000000000000000008152508160009080519060200190620000bb9291906200011f565b508060019080519060200190620000d49291906200011f565b50505080600860006101000a81548173ffffffffffffffffffffffffffffffffffffffff021916908373ffffffffffffffffffffffffffffffffffffffff16021790555050620002c5565b8280546200012d9062000246565b90600052602060002090601f0160209004810192826200015157600085556200019d565b82601f106200016c57805160ff19168380011785556200019d565b828001600101855582156200019d579182015b828111156200019c5782518255916020019190600101906200017f565b5b509050620001ac9190620001b0565b5090565b5b80821115620001cb576000816000905550600101620001b1565b5090565b600081519050620001e081620002ab565b92915050565b600060208284031215620001f957600080fd5b60006200020984828501620001cf565b91505092915050565b60006200021f8262000226565b9050919050565b600073ffffffffffffffffffffffffffffffffffffffff82169050919050565b600060028204905060018216806200025f57607f821691505b602082108114156200027657620002756200027c565b5b50919050565b7f4e487b7100000000000000000000000000000000000000000000000000000000600052602260045260246000fd5b620002b68162000212565b8114620002c257600080fd5b50565b61306c80620002d56000396000f3fe608060405234801561001057600080fd5b50600436106101165760003560e01c806370a08231116100a2578063b88d4fde11610071578063b88d4fde146102dd578063c87b56dd146102f9578063e985e9c514610329578063f5537ede14610359578063fb37e8831461037557610116565b806370a082311461025557806395d89b4114610285578063a22cb465146102a3578063a5c42ef1146102bf57610116565b806323b872dd116100e957806323b872dd146101b55780632890e0d7146101d157806342842e0e146101ed57806342966c68146102095780636352211e1461022557610116565b806301ffc9a71461011b57806306fdde031461014b578063081812fc14610169578063095ea7b314610199575b600080fd5b61013560048036038101906101309190611fda565b6103a5565b6040516101429190612467565b60405180910390f35b610153610487565b6040516101609190612482565b60405180910390f35b610183600480360381019061017e919061206d565b610519565b6040516101909190612400565b60405180910390f35b6101b360048036038101906101ae9190611f9e565b61059e565b005b6101cf60048036038101906101ca9190611e98565b6106b6565b005b6101eb60048036038101906101e6919061206d565b610716565b005b61020760048036038101906102029190611e98565b610772565b005b610223600480360381019061021e919061206d565b610792565b005b61023f600480360381019061023a919061206d565b6107ee565b60405161024c9190612400565b60405180910390f35b61026f600480360381019061026a9190611e33565b6108a0565b60405161027c91906126e4565b60405180910390f35b61028d610958565b60405161029a9190612482565b60405180910390f35b6102bd60048036038101906102b89190611f62565b6109ea565b005b6102c7610a00565b6040516102d491906126e4565b60405180910390f35b6102f760048036038101906102f29190611ee7565b610a11565b005b610313600480360381019061030e919061206d565b610a73565b6040516103209190612482565b60405180910390f35b610343600480360381019061033e9190611e5c565b610a85565b6040516103509190612467565b60405180910390f35b610373600480360381019061036e9190611e98565b610b19565b005b61038f600480360381019061038a919061202c565b610b9f565b60405161039c91906126e4565b60405180910390f35b60007f80ac58cd000000000000000000000000000000000000000000000000000000007bffffffffffffffffffffffffffffffffffffffffffffffffffffffff1916827bffffffffffffffffffffffffffffffffffffffffffffffffffffffff1916148061047057507f5b5e139f000000000000000000000000000000000000000000000000000000007bffffffffffffffffffffffffffffffffffffffffffffffffffffffff1916827bffffffffffffffffffffffffffffffffffffffffffffffffffffffff1916145b80610480575061047f82610c03565b5b9050919050565b6060600080546104969061293a565b80601f01602080910402602001604051908101604052809291908181526020018280546104c29061293a565b801561050f5780601f106104e45761010080835404028352916020019161050f565b820191906000526020600020905b8154815290600101906020018083116104f257829003601f168201915b5050505050905090565b600061052482610c6d565b610563576040517f08c379a000000000000000000000000000000000000000000000000000000000815260040161055a90612624565b60405180910390fd5b6004600083815260200190815260200160002060009054906101000a900473ffffffffffffffffffffffffffffffffffffffff169050919050565b60006105a9826107ee565b90508073ffffffffffffffffffffffffffffffffffffffff168373ffffffffffffffffffffffffffffffffffffffff16141561061a576040517f08c379a000000000000000000000000000000000000000000000000000000000815260040161061190612664565b60405180910390fd5b8073ffffffffffffffffffffffffffffffffffffffff16610639610cd9565b73ffffffffffffffffffffffffffffffffffffffff161480610668575061066781610662610cd9565b610a85565b5b6106a7576040517f08c379a000000000000000000000000000000000000000000000000000000000815260040161069e90612564565b60405180910390fd5b6106b18383610ce1565b505050565b6106c76106c1610cd9565b82610d9a565b610706576040517f08c379a00000000000000000000000000000000000000000000000000000000081526004016106fd90612684565b60405180910390fd5b610711838383610e78565b505050565b610727610721610cd9565b82610d9a565b610766576040517f08c379a000000000000000000000000000000000000000000000000000000000815260040161075d906126c4565b60405180910390fd5b61076f816110df565b50565b61078d83838360405180602001604052806000815250610a11565b505050565b6107a361079d610cd9565b82610d9a565b6107e2576040517f08c379a00000000000000000000000000000000000000000000000000000000081526004016107d9906126c4565b60405180910390fd5b6107eb816110df565b50565b6000806002600084815260200190815260200160002060009054906101000a900473ffffffffffffffffffffffffffffffffffffffff169050600073ffffffffffffffffffffffffffffffffffffffff168173ffffffffffffffffffffffffffffffffffffffff161415610897576040517f08c379a000000000000000000000000000000000000000000000000000000000815260040161088e906125a4565b60405180910390fd5b80915050919050565b60008073ffffffffffffffffffffffffffffffffffffffff168273ffffffffffffffffffffffffffffffffffffffff161415610911576040517f08c379a000000000000000000000000000000000000000000000000000000000815260040161090890612584565b60405180910390fd5b600360008373ffffffffffffffffffffffffffffffffffffffff1673ffffffffffffffffffffffffffffffffffffffff168152602001908152602001600020549050919050565b6060600180546109679061293a565b80601f01602080910402602001604051908101604052809291908181526020018280546109939061293a565b80156109e05780601f106109b5576101008083540402835291602001916109e0565b820191906000526020600020905b8154815290600101906020018083116109c357829003601f168201915b5050505050905090565b6109fc6109f5610cd9565b83836110eb565b5050565b6000610a0c6007611258565b905090565b610a22610a1c610cd9565b83610d9a565b610a61576040517f08c379a0000000000000000000000000000000000000000000000000000000008152600401610a5890612684565b60405180910390fd5b610a6d84848484611266565b50505050565b6060610a7e826112c2565b9050919050565b6000600560008473ffffffffffffffffffffffffffffffffffffffff1673ffffffffffffffffffffffffffffffffffffffff16815260200190815260200160002060008373ffffffffffffffffffffffffffffffffffffffff1673ffffffffffffffffffffffffffffffffffffffff16815260200190815260200160002060009054906101000a900460ff16905092915050565b8273ffffffffffffffffffffffffffffffffffffffff16610b39826107ee565b73ffffffffffffffffffffffffffffffffffffffff1614610b8f576040517f08c379a0000000000000000000000000000000000000000000000000000000008152600401610b86906126a4565b60405180910390fd5b610b9a838383610e78565b505050565b6000610bab6007611414565b6000610bb76007611258565b9050610bc3338261142a565b610bcd8184611604565b610bfa600860009054906101000a900473ffffffffffffffffffffffffffffffffffffffff1660016109ea565b80915050919050565b60007f01ffc9a7000000000000000000000000000000000000000000000000000000007bffffffffffffffffffffffffffffffffffffffffffffffffffffffff1916827bffffffffffffffffffffffffffffffffffffffffffffffffffffffff1916149050919050565b60008073ffffffffffffffffffffffffffffffffffffffff166002600084815260200190815260200160002060009054906101000a900473ffffffffffffffffffffffffffffffffffffffff1673ffffffffffffffffffffffffffffffffffffffff1614159050919050565b600033905090565b816004600083815260200190815260200160002060006101000a81548173ffffffffffffffffffffffffffffffffffffffff021916908373ffffffffffffffffffffffffffffffffffffffff160217905550808273ffffffffffffffffffffffffffffffffffffffff16610d54836107ee565b73ffffffffffffffffffffffffffffffffffffffff167f8c5be1e5ebec7d5bd14f71427d1e84f3dd0314c0f7b2291e5b200ac8c7c3b92560405160405180910390a45050565b6000610da582610c6d565b610de4576040517f08c379a0000000000000000000000000000000000000000000000000000000008152600401610ddb90612544565b60405180910390fd5b6000610def836107ee565b90508073ffffffffffffffffffffffffffffffffffffffff168473ffffffffffffffffffffffffffffffffffffffff161480610e5e57508373ffffffffffffffffffffffffffffffffffffffff16610e4684610519565b73ffffffffffffffffffffffffffffffffffffffff16145b80610e6f5750610e6e8185610a85565b5b91505092915050565b8273ffffffffffffffffffffffffffffffffffffffff16610e98826107ee565b73ffffffffffffffffffffffffffffffffffffffff1614610eee576040517f08c379a0000000000000000000000000000000000000000000000000000000008152600401610ee5906124c4565b60405180910390fd5b600073ffffffffffffffffffffffffffffffffffffffff168273ffffffffffffffffffffffffffffffffffffffff161415610f5e576040517f08c379a0000000000000000000000000000000000000000000000000000000008152600401610f5590612504565b60405180910390fd5b610f69838383611678565b610f74600082610ce1565b6001600360008573ffffffffffffffffffffffffffffffffffffffff1673ffffffffffffffffffffffffffffffffffffffff1681526020019081526020016000206000828254610fc49190612850565b925050819055506001600360008473ffffffffffffffffffffffffffffffffffffffff1673ffffffffffffffffffffffffffffffffffffffff168152602001908152602001600020600082825461101b91906127c9565b92505081905550816002600083815260200190815260200160002060006101000a81548173ffffffffffffffffffffffffffffffffffffffff021916908373ffffffffffffffffffffffffffffffffffffffff160217905550808273ffffffffffffffffffffffffffffffffffffffff168473ffffffffffffffffffffffffffffffffffffffff167fddf252ad1be2c89b69c2b068fc378daa952ba7f163c4a11628f55a4df523b3ef60405160405180910390a46110da83838361167d565b505050565b6110e881611682565b50565b8173ffffffffffffffffffffffffffffffffffffffff168373ffffffffffffffffffffffffffffffffffffffff16141561115a576040517f08c379a000000000000000000000000000000000000000000000000000000000815260040161115190612524565b60405180910390fd5b80600560008573ffffffffffffffffffffffffffffffffffffffff1673ffffffffffffffffffffffffffffffffffffffff16815260200190815260200160002060008473ffffffffffffffffffffffffffffffffffffffff1673ffffffffffffffffffffffffffffffffffffffff16815260200190815260200160002060006101000a81548160ff0219169083151502179055508173ffffffffffffffffffffffffffffffffffffffff168373ffffffffffffffffffffffffffffffffffffffff167f17307eab39ab6107e8899845ad3d59bd9653f200f220920489ca2b5937696c318360405161124b9190612467565b60405180910390a3505050565b600081600001549050919050565b611271848484610e78565b61127d848484846116d5565b6112bc576040517f08c379a00000000000000000000000000000000000000000000000000000000081526004016112b3906124a4565b60405180910390fd5b50505050565b60606112cd82610c6d565b61130c576040517f08c379a000000000000000000000000000000000000000000000000000000000815260040161130390612604565b60405180910390fd5b600060066000848152602001908152602001600020805461132c9061293a565b80601f01602080910402602001604051908101604052809291908181526020018280546113589061293a565b80156113a55780601f1061137a576101008083540402835291602001916113a5565b820191906000526020600020905b81548152906001019060200180831161138857829003601f168201915b5050505050905060006113b661186c565b90506000815114156113cc57819250505061140f565b6000825111156114015780826040516020016113e99291906123dc565b6040516020818303038152906040529250505061140f565b61140a84611883565b925050505b919050565b6001816000016000828254019250508190555050565b600073ffffffffffffffffffffffffffffffffffffffff168273ffffffffffffffffffffffffffffffffffffffff16141561149a576040517f08c379a0000000000000000000000000000000000000000000000000000000008152600401611491906125e4565b60405180910390fd5b6114a381610c6d565b156114e3576040517f08c379a00000000000000000000000000000000000000000000000000000000081526004016114da906124e4565b60405180910390fd5b6114ef60008383611678565b6001600360008473ffffffffffffffffffffffffffffffffffffffff1673ffffffffffffffffffffffffffffffffffffffff168152602001908152602001600020600082825461153f91906127c9565b92505081905550816002600083815260200190815260200160002060006101000a81548173ffffffffffffffffffffffffffffffffffffffff021916908373ffffffffffffffffffffffffffffffffffffffff160217905550808273ffffffffffffffffffffffffffffffffffffffff16600073ffffffffffffffffffffffffffffffffffffffff167fddf252ad1be2c89b69c2b068fc378daa952ba7f163c4a11628f55a4df523b3ef60405160405180910390a46116006000838361167d565b5050565b61160d82610c6d565b61164c576040517f08c379a0000000000000000000000000000000000000000000000000000000008152600401611643906125c4565b60405180910390fd5b80600660008481526020019081526020016000209080519060200190611673929190611c17565b505050565b505050565b505050565b61168b8161192a565b60006006600083815260200190815260200160002080546116ab9061293a565b9050146116d2576006600082815260200190815260200160002060006116d19190611c9d565b5b50565b60006116f68473ffffffffffffffffffffffffffffffffffffffff16611a47565b1561185f578373ffffffffffffffffffffffffffffffffffffffff1663150b7a0261171f610cd9565b8786866040518563ffffffff1660e01b8152600401611741949392919061241b565b602060405180830381600087803b15801561175b57600080fd5b505af192505050801561178c57506040513d601f19601f820116820180604052508101906117899190612003565b60015b61180f573d80600081146117bc576040519150601f19603f3d011682016040523d82523d6000602084013e6117c1565b606091505b50600081511415611807576040517f08c379a00000000000000000000000000000000000000000000000000000000081526004016117fe906124a4565b60405180910390fd5b805181602001fd5b63150b7a0260e01b7bffffffffffffffffffffffffffffffffffffffffffffffffffffffff1916817bffffffffffffffffffffffffffffffffffffffffffffffffffffffff191614915050611864565b600190505b949350505050565b606060405180602001604052806000815250905090565b606061188e82610c6d565b6118cd576040517f08c379a00000000000000000000000000000000000000000000000000000000081526004016118c490612644565b60405180910390fd5b60006118d761186c565b905060008151116118f75760405180602001604052806000815250611922565b8061190184611a6a565b6040516020016119129291906123dc565b6040516020818303038152906040525b915050919050565b6000611935826107ee565b905061194381600084611678565b61194e600083610ce1565b6001600360008373ffffffffffffffffffffffffffffffffffffffff1673ffffffffffffffffffffffffffffffffffffffff168152602001908152602001600020600082825461199e9190612850565b925050819055506002600083815260200190815260200160002060006101000a81549073ffffffffffffffffffffffffffffffffffffffff021916905581600073ffffffffffffffffffffffffffffffffffffffff168273ffffffffffffffffffffffffffffffffffffffff167fddf252ad1be2c89b69c2b068fc378daa952ba7f163c4a11628f55a4df523b3ef60405160405180910390a4611a438160008461167d565b5050565b6000808273ffffffffffffffffffffffffffffffffffffffff163b119050919050565b60606000821415611ab2576040518060400160405280600181526020017f30000000000000000000000000000000000000000000000000000000000000008152509050611c12565b600082905060005b60008214611ae4578080611acd9061299d565b915050600a82611add919061281f565b9150611aba565b60008167ffffffffffffffff811115611b26577f4e487b7100000000000000000000000000000000000000000000000000000000600052604160045260246000fd5b6040519080825280601f01601f191660200182016040528015611b585781602001600182028036833780820191505090505b5090505b60008514611c0b57600182611b719190612850565b9150600a85611b8091906129e6565b6030611b8c91906127c9565b60f81b818381518110611bc8577f4e487b7100000000000000000000000000000000000000000000000000000000600052603260045260246000fd5b60200101907effffffffffffffffffffffffffffffffffffffffffffffffffffffffffffff1916908160001a905350600a85611c04919061281f565b9450611b5c565b8093505050505b919050565b828054611c239061293a565b90600052602060002090601f016020900481019282611c455760008555611c8c565b82601f10611c5e57805160ff1916838001178555611c8c565b82800160010185558215611c8c579182015b82811115611c8b578251825591602001919060010190611c70565b5b509050611c999190611cdd565b5090565b508054611ca99061293a565b6000825580601f10611cbb5750611cda565b601f016020900490600052602060002090810190611cd99190611cdd565b5b50565b5b80821115611cf6576000816000905550600101611cde565b5090565b6000611d0d611d0884612724565b6126ff565b905082815260208101848484011115611d2557600080fd5b611d308482856128f8565b509392505050565b6000611d4b611d4684612755565b6126ff565b905082815260208101848484011115611d6357600080fd5b611d6e8482856128f8565b509392505050565b600081359050611d8581612fda565b92915050565b600081359050611d9a81612ff1565b92915050565b600081359050611daf81613008565b92915050565b600081519050611dc481613008565b92915050565b600082601f830112611ddb57600080fd5b8135611deb848260208601611cfa565b91505092915050565b600082601f830112611e0557600080fd5b8135611e15848260208601611d38565b91505092915050565b600081359050611e2d8161301f565b92915050565b600060208284031215611e4557600080fd5b6000611e5384828501611d76565b91505092915050565b60008060408385031215611e6f57600080fd5b6000611e7d85828601611d76565b9250506020611e8e85828601611d76565b9150509250929050565b600080600060608486031215611ead57600080fd5b6000611ebb86828701611d76565b9350506020611ecc86828701611d76565b9250506040611edd86828701611e1e565b9150509250925092565b60008060008060808587031215611efd57600080fd5b6000611f0b87828801611d76565b9450506020611f1c87828801611d76565b9350506040611f2d87828801611e1e565b925050606085013567ffffffffffffffff811115611f4a57600080fd5b611f5687828801611dca565b91505092959194509250565b60008060408385031215611f7557600080fd5b6000611f8385828601611d76565b9250506020611f9485828601611d8b565b9150509250929050565b60008060408385031215611fb157600080fd5b6000611fbf85828601611d76565b9250506020611fd085828601611e1e565b9150509250929050565b600060208284031215611fec57600080fd5b6000611ffa84828501611da0565b91505092915050565b60006020828403121561201557600080fd5b600061202384828501611db5565b91505092915050565b60006020828403121561203e57600080fd5b600082013567ffffffffffffffff81111561205857600080fd5b61206484828501611df4565b91505092915050565b60006020828403121561207f57600080fd5b600061208d84828501611e1e565b91505092915050565b61209f81612884565b82525050565b6120ae81612896565b82525050565b60006120bf82612786565b6120c9818561279c565b93506120d9818560208601612907565b6120e281612ad3565b840191505092915050565b60006120f882612791565b61210281856127ad565b9350612112818560208601612907565b61211b81612ad3565b840191505092915050565b600061213182612791565b61213b81856127be565b935061214b818560208601612907565b80840191505092915050565b60006121646032836127ad565b915061216f82612ae4565b604082019050919050565b60006121876025836127ad565b915061219282612b33565b604082019050919050565b60006121aa601c836127ad565b91506121b582612b82565b602082019050919050565b60006121cd6024836127ad565b91506121d882612bab565b604082019050919050565b60006121f06019836127ad565b91506121fb82612bfa565b602082019050919050565b6000612213602c836127ad565b915061221e82612c23565b604082019050919050565b60006122366038836127ad565b915061224182612c72565b604082019050919050565b6000612259602a836127ad565b915061226482612cc1565b604082019050919050565b600061227c6029836127ad565b915061228782612d10565b604082019050919050565b600061229f602e836127ad565b91506122aa82612d5f565b604082019050919050565b60006122c26020836127ad565b91506122cd82612dae565b602082019050919050565b60006122e56031836127ad565b91506122f082612dd7565b604082019050919050565b6000612308602c836127ad565b915061231382612e26565b604082019050919050565b600061232b602f836127ad565b915061233682612e75565b604082019050919050565b600061234e6021836127ad565b915061235982612ec4565b604082019050919050565b60006123716031836127ad565b915061237c82612f13565b604082019050919050565b60006123946020836127ad565b915061239f82612f62565b602082019050919050565b60006123b76030836127ad565b91506123c282612f8b565b604082019050919050565b6123d6816128ee565b82525050565b60006123e88285612126565b91506123f48284612126565b91508190509392505050565b60006020820190506124156000830184612096565b92915050565b60006080820190506124306000830187612096565b61243d6020830186612096565b61244a60408301856123cd565b818103606083015261245c81846120b4565b905095945050505050565b600060208201905061247c60008301846120a5565b92915050565b6000602082019050818103600083015261249c81846120ed565b905092915050565b600060208201905081810360008301526124bd81612157565b9050919050565b600060208201905081810360008301526124dd8161217a565b9050919050565b600060208201905081810360008301526124fd8161219d565b9050919050565b6000602082019050818103600083015261251d816121c0565b9050919050565b6000602082019050818103600083015261253d816121e3565b9050919050565b6000602082019050818103600083015261255d81612206565b9050919050565b6000602082019050818103600083015261257d81612229565b9050919050565b6000602082019050818103600083015261259d8161224c565b9050919050565b600060208201905081810360008301526125bd8161226f565b9050919050565b600060208201905081810360008301526125dd81612292565b9050919050565b600060208201905081810360008301526125fd816122b5565b9050919050565b6000602082019050818103600083015261261d816122d8565b9050919050565b6000602082019050818103600083015261263d816122fb565b9050919050565b6000602082019050818103600083015261265d8161231e565b9050919050565b6000602082019050818103600083015261267d81612341565b9050919050565b6000602082019050818103600083015261269d81612364565b9050919050565b600060208201905081810360008301526126bd81612387565b9050919050565b600060208201905081810360008301526126dd816123aa565b9050919050565b60006020820190506126f960008301846123cd565b92915050565b600061270961271a565b9050612715828261296c565b919050565b6000604051905090565b600067ffffffffffffffff82111561273f5761273e612aa4565b5b61274882612ad3565b9050602081019050919050565b600067ffffffffffffffff8211156127705761276f612aa4565b5b61277982612ad3565b9050602081019050919050565b600081519050919050565b600081519050919050565b600082825260208201905092915050565b600082825260208201905092915050565b600081905092915050565b60006127d4826128ee565b91506127df836128ee565b9250827fffffffffffffffffffffffffffffffffffffffffffffffffffffffffffffffff0382111561281457612813612a17565b5b828201905092915050565b600061282a826128ee565b9150612835836128ee565b92508261284557612844612a46565b5b828204905092915050565b600061285b826128ee565b9150612866836128ee565b92508282101561287957612878612a17565b5b828203905092915050565b600061288f826128ce565b9050919050565b60008115159050919050565b60007fffffffff0000000000000000000000000000000000000000000000000000000082169050919050565b600073ffffffffffffffffffffffffffffffffffffffff82169050919050565b6000819050919050565b82818337600083830152505050565b60005b8381101561292557808201518184015260208101905061290a565b83811115612934576000848401525b50505050565b6000600282049050600182168061295257607f821691505b6020821081141561296657612965612a75565b5b50919050565b61297582612ad3565b810181811067ffffffffffffffff8211171561299457612993612aa4565b5b80604052505050565b60006129a8826128ee565b91507fffffffffffffffffffffffffffffffffffffffffffffffffffffffffffffffff8214156129db576129da612a17565b5b600182019050919050565b60006129f1826128ee565b91506129fc836128ee565b925082612a0c57612a0b612a46565b5b828206905092915050565b7f4e487b7100000000000000000000000000000000000000000000000000000000600052601160045260246000fd5b7f4e487b7100000000000000000000000000000000000000000000000000000000600052601260045260246000fd5b7f4e487b7100000000000000000000000000000000000000000000000000000000600052602260045260246000fd5b7f4e487b7100000000000000000000000000000000000000000000000000000000600052604160045260246000fd5b6000601f19601f8301169050919050565b7f4552433732313a207472616e7366657220746f206e6f6e20455243373231526560008201527f63656976657220696d706c656d656e7465720000000000000000000000000000602082015250565b7f4552433732313a207472616e736665722066726f6d20696e636f72726563742060008201527f6f776e6572000000000000000000000000000000000000000000000000000000602082015250565b7f4552433732313a20746f6b656e20616c7265616479206d696e74656400000000600082015250565b7f4552433732313a207472616e7366657220746f20746865207a65726f2061646460008201527f7265737300000000000000000000000000000000000000000000000000000000602082015250565b7f4552433732313a20617070726f766520746f2063616c6c657200000000000000600082015250565b7f4552433732313a206f70657261746f7220717565727920666f72206e6f6e657860008201527f697374656e7420746f6b656e0000000000000000000000000000000000000000602082015250565b7f4552433732313a20617070726f76652063616c6c6572206973206e6f74206f7760008201527f6e6572206e6f7220617070726f76656420666f7220616c6c0000000000000000602082015250565b7f4552433732313a2062616c616e636520717565727920666f7220746865207a6560008201527f726f206164647265737300000000000000000000000000000000000000000000602082015250565b7f4552433732313a206f776e657220717565727920666f72206e6f6e657869737460008201527f656e7420746f6b656e0000000000000000000000000000000000000000000000602082015250565b7f45524337323155524953746f726167653a2055524920736574206f66206e6f6e60008201527f6578697374656e7420746f6b656e000000000000000000000000000000000000602082015250565b7f4552433732313a206d696e7420746f20746865207a65726f2061646472657373600082015250565b7f45524337323155524953746f726167653a2055524920717565727920666f722060008201527f6e6f6e6578697374656e7420746f6b656e000000000000000000000000000000602082015250565b7f4552433732313a20617070726f76656420717565727920666f72206e6f6e657860008201527f697374656e7420746f6b656e0000000000000000000000000000000000000000602082015250565b7f4552433732314d657461646174613a2055524920717565727920666f72206e6f60008201527f6e6578697374656e7420746f6b656e0000000000000000000000000000000000602082015250565b7f4552433732313a20617070726f76616c20746f2063757272656e74206f776e6560008201527f7200000000000000000000000000000000000000000000000000000000000000602082015250565b7f4552433732313a207472616e736665722063616c6c6572206973206e6f74206f60008201527f776e6572206e6f7220617070726f766564000000000000000000000000000000602082015250565b7f46726f6d2061646472657373206d75737420626520746f6b656e206f776e6572600082015250565b7f4552433732314275726e61626c653a2063616c6c6572206973206e6f74206f7760008201527f6e6572206e6f7220617070726f76656400000000000000000000000000000000602082015250565b612fe381612884565b8114612fee57600080fd5b50565b612ffa81612896565b811461300557600080fd5b50565b613011816128a2565b811461301c57600080fd5b50565b613028816128ee565b811461303357600080fd5b5056fea2646970667358221220bb8dd4b2ab53bffd127635e3cc48042d7491b57e6d689eb175a6e6cb916184a664736f6c63430008010033",
  "linkReferences": {},
  "deployedLinkReferences": {}
}