{
  "_format": "hh-sol-artifact-1",
  "contractName": "Artizan1155Market",
  "sourceName": "contracts/Artizan1155Market.sol",
  "abi": [
    {
      "inputs": [],
      "stateMutability": "nonpayable",
      "type": "constructor"
    },
    {
      "anonymous": false,
      "inputs": [
        {
          "indexed": false,
          "internalType": "address",
          "name": "nftContract",
          "type": "address"
        },
        {
          "indexed": false,
          "internalType": "uint256",
          "name": "tokenID",
          "type": "uint256"
        },
        {
          "indexed": false,
          "internalType": "address",
          "name": "owner",
          "type": "address"
        },
        {
          "indexed": false,
          "internalType": "address",
          "name": "seller",
          "type": "address"
        },
        {
          "indexed": false,
          "internalType": "uint256",
          "name": "price",
          "type": "uint256"
        }
      ],
      "name": "MarketItemCreation",
      "type": "event"
    },
    {
      "inputs": [],
      "name": "ListItemsOnSale1155",
      "outputs": [
        {
          "components": [
            {
              "internalType": "address",
              "name": "nftContract",
              "type": "address"
            },
            {
              "internalType": "uint256",
              "name": "tokenID",
              "type": "uint256"
            },
            {
              "internalType": "address payable[]",
              "name": "owners",
              "type": "address[]"
            },
            {
              "internalType": "address payable[]",
              "name": "sellers",
              "type": "address[]"
            },
            {
              "internalType": "uint256[]",
              "name": "prices",
              "type": "uint256[]"
            },
            {
              "internalType": "bool[]",
              "name": "solds",
              "type": "bool[]"
            },
            {
              "internalType": "uint256",
              "name": "maxAmount",
              "type": "uint256"
            }
          ],
          "internalType": "struct Artizan1155Market.MarketItem[]",
          "name": "",
          "type": "tuple[]"
        }
      ],
      "stateMutability": "view",
      "type": "function"
    },
    {
      "inputs": [
        {
          "internalType": "address",
          "name": "user",
          "type": "address"
        }
      ],
      "name": "ListUserAllItem1155",
      "outputs": [
        {
          "components": [
            {
              "internalType": "address",
              "name": "nftContract",
              "type": "address"
            },
            {
              "internalType": "uint256",
              "name": "tokenID",
              "type": "uint256"
            },
            {
              "internalType": "address payable[]",
              "name": "owners",
              "type": "address[]"
            },
            {
              "internalType": "address payable[]",
              "name": "sellers",
              "type": "address[]"
            },
            {
              "internalType": "uint256[]",
              "name": "prices",
              "type": "uint256[]"
            },
            {
              "internalType": "bool[]",
              "name": "solds",
              "type": "bool[]"
            },
            {
              "internalType": "uint256",
              "name": "maxAmount",
              "type": "uint256"
            }
          ],
          "internalType": "struct Artizan1155Market.MarketItem[]",
          "name": "",
          "type": "tuple[]"
        }
      ],
      "stateMutability": "view",
      "type": "function"
    },
    {
      "inputs": [
        {
          "internalType": "uint256",
          "name": "tokenId",
          "type": "uint256"
        }
      ],
      "name": "NFTItem",
      "outputs": [
        {
          "components": [
            {
              "internalType": "address",
              "name": "nftContract",
              "type": "address"
            },
            {
              "internalType": "uint256",
              "name": "tokenID",
              "type": "uint256"
            },
            {
              "internalType": "address payable[]",
              "name": "owners",
              "type": "address[]"
            },
            {
              "internalType": "address payable[]",
              "name": "sellers",
              "type": "address[]"
            },
            {
              "internalType": "uint256[]",
              "name": "prices",
              "type": "uint256[]"
            },
            {
              "internalType": "bool[]",
              "name": "solds",
              "type": "bool[]"
            },
            {
              "internalType": "uint256",
              "name": "maxAmount",
              "type": "uint256"
            }
          ],
          "internalType": "struct Artizan1155Market.MarketItem",
          "name": "",
          "type": "tuple"
        }
      ],
      "stateMutability": "view",
      "type": "function"
    },
    {
      "inputs": [
        {
          "internalType": "uint256",
          "name": "price",
          "type": "uint256"
        },
        {
          "internalType": "address",
          "name": "NftCont",
          "type": "address"
        },
        {
          "internalType": "uint256",
          "name": "tokenId",
          "type": "uint256"
        }
      ],
      "name": "ResellNFT1155",
      "outputs": [],
      "stateMutability": "payable",
      "type": "function"
    },
    {
      "inputs": [
        {
          "internalType": "uint256",
          "name": "price",
          "type": "uint256"
        },
        {
          "internalType": "address",
          "name": "NftCont",
          "type": "address"
        },
        {
          "internalType": "uint256",
          "name": "tokenId",
          "type": "uint256"
        }
      ],
      "name": "createMarketItem",
      "outputs": [],
      "stateMutability": "payable",
      "type": "function"
    },
    {
      "inputs": [
        {
          "internalType": "address",
          "name": "NftCont",
          "type": "address"
        },
        {
          "internalType": "uint256",
          "name": "tokenId",
          "type": "uint256"
        }
      ],
      "name": "createMarketSale1155",
      "outputs": [],
      "stateMutability": "payable",
      "type": "function"
    },
    {
      "inputs": [],
      "name": "getListingPrice",
      "outputs": [
        {
          "internalType": "uint256",
          "name": "",
          "type": "uint256"
        }
      ],
      "stateMutability": "view",
      "type": "function"
    },
    {
      "inputs": [
        {
          "internalType": "uint256",
          "name": "tokenId",
          "type": "uint256"
        }
      ],
      "name": "isToken1155ExistOnMarket",
      "outputs": [
        {
          "internalType": "bool",
          "name": "",
          "type": "bool"
        }
      ],
      "stateMutability": "view",
      "type": "function"
    },
    {
      "inputs": [
        {
          "internalType": "address",
          "name": "_operator",
          "type": "address"
        },
        {
          "internalType": "address",
          "name": "_from",
          "type": "address"
        },
        {
          "internalType": "uint256",
          "name": "_id",
          "type": "uint256"
        },
        {
          "internalType": "uint256",
          "name": "_value",
          "type": "uint256"
        },
        {
          "internalType": "bytes",
          "name": "_data",
          "type": "bytes"
        }
      ],
      "name": "onERC1155Received",
      "outputs": [
        {
          "internalType": "bytes4",
          "name": "",
          "type": "bytes4"
        }
      ],
      "stateMutability": "nonpayable",
      "type": "function"
    },
    {
      "inputs": [
        {
          "internalType": "uint256",
          "name": "_listingPrice",
          "type": "uint256"
        }
      ],
      "name": "updateListingPrice",
      "outputs": [],
      "stateMutability": "payable",
      "type": "function"
    }
  ],
  "bytecode": "0x6080604052662386f26fc100006004556000600555600060065534801561002557600080fd5b50600160008190555033600360006101000a81548173ffffffffffffffffffffffffffffffffffffffff021916908373ffffffffffffffffffffffffffffffffffffffff16021790555061365b8061007e6000396000f3fe6080604052600436106100915760003560e01c806382995067116100595780638299506714610182578063838a90961461019e578063ae677aa3146101ba578063b19d4e08146101d6578063f23a6e611461021357610091565b80630661bae21461009657806312e85585146100b25780632104a33f146100dd578063222d04491461011a57806367ec3c1714610145575b600080fd5b6100b060048036038101906100ab91906128df565b610250565b005b3480156100be57600080fd5b506100c76106bf565b6040516100d4919061312d565b60405180910390f35b3480156100e957600080fd5b5061010460048036038101906100ff9190612796565b6106c9565b6040516101119190612f73565b60405180910390f35b34801561012657600080fd5b5061012f610e0b565b60405161013c9190612f73565b60405180910390f35b34801561015157600080fd5b5061016c6004803603810190610167919061288d565b6112b5565b6040516101799190612f95565b60405180910390f35b61019c600480360381019061019791906128df565b6112e5565b005b6101b860048036038101906101b39190612851565b611a49565b005b6101d460048036038101906101cf919061288d565b61206c565b005b3480156101e257600080fd5b506101fd60048036038101906101f8919061288d565b612106565b60405161020a919061310b565b60405180910390f35b34801561021f57600080fd5b5061023a600480360381019061023591906127bf565b612471565b6040516102479190612fb0565b60405180910390f35b60026000541415610296576040517f08c379a000000000000000000000000000000000000000000000000000000000815260040161028d906130cb565b60405180910390fd5b600260008190555060006008600083815260200190815260200160002054905060008080600090505b60076000858152602001908152602001600020600601548110156103a4573373ffffffffffffffffffffffffffffffffffffffff16600760008681526020019081526020016000206002018281548110610342577f4e487b7100000000000000000000000000000000000000000000000000000000600052603260045260246000fd5b9060005260206000200160009054906101000a900473ffffffffffffffffffffffffffffffffffffffff1673ffffffffffffffffffffffffffffffffffffffff16141561039157600192508091505b808061039c90613370565b9150506102bf565b50816103e5576040517f08c379a00000000000000000000000000000000000000000000000000000000081526004016103dc906130ab565b60405180910390fd5b6004543414610429576040517f08c379a00000000000000000000000000000000000000000000000000000000081526004016104209061300b565b60405180910390fd5b60008590508073ffffffffffffffffffffffffffffffffffffffff1663036ebef933308860016040518563ffffffff1660e01b815260040161046e9493929190612e83565b600060405180830381600087803b15801561048857600080fd5b505af115801561049c573d6000803e3d6000fd5b5050505060006007600086815260200190815260200160002060050183815481106104f0577f4e487b7100000000000000000000000000000000000000000000000000000000600052603260045260246000fd5b90600052602060002090602091828204019190066101000a81548160ff02191690831515021790555086600760008681526020019081526020016000206004018381548110610568577f4e487b7100000000000000000000000000000000000000000000000000000000600052603260045260246000fd5b9060005260206000200181905550336007600086815260200190815260200160002060030183815481106105c5577f4e487b7100000000000000000000000000000000000000000000000000000000600052603260045260246000fd5b9060005260206000200160006101000a81548173ffffffffffffffffffffffffffffffffffffffff021916908373ffffffffffffffffffffffffffffffffffffffff1602179055503060076000868152602001908152602001600020600201838154811061065c577f4e487b7100000000000000000000000000000000000000000000000000000000600052603260045260246000fd5b9060005260206000200160006101000a81548173ffffffffffffffffffffffffffffffffffffffff021916908373ffffffffffffffffffffffffffffffffffffffff1602179055506106ae60026124a0565b505050506001600081905550505050565b6000600454905090565b606060006106d760016124b6565b905060008060005b838110156108c3576000600760006001846106fa919061324e565b815260200190815260200160002060060154905060005b818110156108ae578773ffffffffffffffffffffffffffffffffffffffff1660076000600186610741919061324e565b8152602001908152602001600020600301828154811061078a577f4e487b7100000000000000000000000000000000000000000000000000000000600052603260045260246000fd5b9060005260206000200160009054906101000a900473ffffffffffffffffffffffffffffffffffffffff1673ffffffffffffffffffffffffffffffffffffffff16148061088657508773ffffffffffffffffffffffffffffffffffffffff16600760006001866107fa919061324e565b81526020019081526020016000206002018281548110610843577f4e487b7100000000000000000000000000000000000000000000000000000000600052603260045260246000fd5b9060005260206000200160009054906101000a900473ffffffffffffffffffffffffffffffffffffffff1673ffffffffffffffffffffffffffffffffffffffff16145b1561089b57600185610898919061324e565b94505b80806108a690613370565b915050610711565b505080806108bb90613370565b9150506106df565b5060008267ffffffffffffffff811115610906577f4e487b7100000000000000000000000000000000000000000000000000000000600052604160045260246000fd5b60405190808252806020026020018201604052801561093f57816020015b61092c612520565b8152602001906001900390816109245790505b50905060005b84811015610dfe57600060076000600184610960919061324e565b815260200190815260200160002060060154905060005b81811015610de9578873ffffffffffffffffffffffffffffffffffffffff16600760006001866109a7919061324e565b815260200190815260200160002060030182815481106109f0577f4e487b7100000000000000000000000000000000000000000000000000000000600052603260045260246000fd5b9060005260206000200160009054906101000a900473ffffffffffffffffffffffffffffffffffffffff1673ffffffffffffffffffffffffffffffffffffffff161480610aec57508873ffffffffffffffffffffffffffffffffffffffff1660076000600186610a60919061324e565b81526020019081526020016000206002018281548110610aa9577f4e487b7100000000000000000000000000000000000000000000000000000000600052603260045260246000fd5b9060005260206000200160009054906101000a900473ffffffffffffffffffffffffffffffffffffffff1673ffffffffffffffffffffffffffffffffffffffff16145b15610dd6576000600184610b00919061324e565b90506000600760008381526020019081526020016000209050806040518060e00160405290816000820160009054906101000a900473ffffffffffffffffffffffffffffffffffffffff1673ffffffffffffffffffffffffffffffffffffffff1673ffffffffffffffffffffffffffffffffffffffff1681526020016001820154815260200160028201805480602002602001604051908101604052809291908181526020018280548015610c0a57602002820191906000526020600020905b8160009054906101000a900473ffffffffffffffffffffffffffffffffffffffff1673ffffffffffffffffffffffffffffffffffffffff1681526020019060010190808311610bc0575b5050505050815260200160038201805480602002602001604051908101604052809291908181526020018280548015610c9857602002820191906000526020600020905b8160009054906101000a900473ffffffffffffffffffffffffffffffffffffffff1673ffffffffffffffffffffffffffffffffffffffff1681526020019060010190808311610c4e575b5050505050815260200160048201805480602002602001604051908101604052809291908181526020018280548015610cf057602002820191906000526020600020905b815481526020019060010190808311610cdc575b5050505050815260200160058201805480602002602001604051908101604052809291908181526020018280548015610d6d57602002820191906000526020600020906000905b82829054906101000a900460ff16151581526020019060010190602082600001049283019260010382029150808411610d375790505b50505050508152602001600682015481525050868881518110610db9577f4e487b7100000000000000000000000000000000000000000000000000000000600052603260045260246000fd5b6020026020010181905250600187610dd1919061324e565b965050505b8080610de190613370565b915050610977565b50508080610df690613370565b915050610945565b5080945050505050919050565b60606000610e1960016124b6565b90506000610e2760026124b6565b90506000808267ffffffffffffffff811115610e6c577f4e487b7100000000000000000000000000000000000000000000000000000000600052604160045260246000fd5b604051908082528060200260200182016040528015610ea557816020015b610e92612520565b815260200190600190039081610e8a5790505b50905060005b848110156112aa57600060076000600184610ec6919061324e565b815260200190815260200160002060060154905060005b81811015611295573073ffffffffffffffffffffffffffffffffffffffff1660076000600186610f0d919061324e565b81526020019081526020016000206002018281548110610f56577f4e487b7100000000000000000000000000000000000000000000000000000000600052603260045260246000fd5b9060005260206000200160009054906101000a900473ffffffffffffffffffffffffffffffffffffffff1673ffffffffffffffffffffffffffffffffffffffff161415611282576000600184610fac919061324e565b90506000600760008381526020019081526020016000209050806040518060e00160405290816000820160009054906101000a900473ffffffffffffffffffffffffffffffffffffffff1673ffffffffffffffffffffffffffffffffffffffff1673ffffffffffffffffffffffffffffffffffffffff16815260200160018201548152602001600282018054806020026020016040519081016040528092919081815260200182805480156110b657602002820191906000526020600020905b8160009054906101000a900473ffffffffffffffffffffffffffffffffffffffff1673ffffffffffffffffffffffffffffffffffffffff168152602001906001019080831161106c575b505050505081526020016003820180548060200260200160405190810160405280929190818152602001828054801561114457602002820191906000526020600020905b8160009054906101000a900473ffffffffffffffffffffffffffffffffffffffff1673ffffffffffffffffffffffffffffffffffffffff16815260200190600101908083116110fa575b505050505081526020016004820180548060200260200160405190810160405280929190818152602001828054801561119c57602002820191906000526020600020905b815481526020019060010190808311611188575b505050505081526020016005820180548060200260200160405190810160405280929190818152602001828054801561121957602002820191906000526020600020906000905b82829054906101000a900460ff161515815260200190600101906020826000010492830192600103820291508084116111e35790505b50505050508152602001600682015481525050868881518110611265577f4e487b7100000000000000000000000000000000000000000000000000000000600052603260045260246000fd5b602002602001018190525060018761127d919061324e565b965050505b808061128d90613370565b915050610edd565b505080806112a290613370565b915050610eab565b508094505050505090565b600080600860008481526020019081526020016000205411156112db57600190506112e0565b600090505b919050565b6002600054141561132b576040517f08c379a0000000000000000000000000000000000000000000000000000000008152600401611322906130cb565b60405180910390fd5b600260008190555060008311611376576040517f08c379a000000000000000000000000000000000000000000000000000000000815260040161136d90612fcb565b60405180910390fd5b60045434146113ba576040517f08c379a00000000000000000000000000000000000000000000000000000000081526004016113b19061302b565b60405180910390fd5b6113c460016124a0565b60006113d060016124b6565b9050600083905060008173ffffffffffffffffffffffffffffffffffffffff1663e8eb2284856040518263ffffffff1660e01b8152600401611412919061312d565b60206040518083038186803b15801561142a57600080fd5b505afa15801561143e573d6000803e3d6000fd5b505050506040513d601f19601f8201168201806040525081019061146291906128b6565b90508260086000868152602001908152602001600020819055506060806060806040518060e001604052808a73ffffffffffffffffffffffffffffffffffffffff168152602001898152602001838152602001828152602001858152602001848152602001868152506007600089815260200190815260200160002060008201518160000160006101000a81548173ffffffffffffffffffffffffffffffffffffffff021916908373ffffffffffffffffffffffffffffffffffffffff16021790555060208201518160010155604082015181600201908051906020019061154b929190612573565b506060820151816003019080519060200190611568929190612573565b5060808201518160040190805190602001906115859291906125fd565b5060a08201518160050190805190602001906115a292919061264a565b5060c082015181600601559050508873ffffffffffffffffffffffffffffffffffffffff1663f242432a33308b60016040518563ffffffff1660e01b81526004016115f09493929190612ec8565b600060405180830381600087803b15801561160a57600080fd5b505af115801561161e573d6000803e3d6000fd5b5050505084600654611630919061324e565b6006819055507f4fa4b9f68b4a75ac729dd5bbff39ffcb8f2ffd21959fbbfede0d187bbe9e68d2898930338e60405161166d959493929190612f20565b60405180910390a1600760008881526020019081526020016000206004018a908060018154018082558091505060019003906000526020600020016000909190919091505560005b6001866116c291906132a4565b81101561171b57600760008981526020019081526020016000206004016005549080600181540180825580915050600190039060005260206000200160009091909190915055808061171390613370565b9150506116b5565b5060076000888152602001908152602001600020600501600090806001815401808255809150506001900390600052602060002090602091828204019190069091909190916101000a81548160ff02191690831515021790555060005b60018661178591906132a4565b8110156117f85760076000898152602001908152602001600020600501600190806001815401808255809150506001900390600052602060002090602091828204019190069091909190916101000a81548160ff02191690831515021790555080806117f090613370565b915050611778565b5060076000888152602001908152602001600020600201309080600181540180825580915050600190039060005260206000200160009091909190916101000a81548173ffffffffffffffffffffffffffffffffffffffff021916908373ffffffffffffffffffffffffffffffffffffffff16021790555060005b60018661188091906132a4565b8110156119115760076000898152602001908152602001600020600201339080600181540180825580915050600190039060005260206000200160009091909190916101000a81548173ffffffffffffffffffffffffffffffffffffffff021916908373ffffffffffffffffffffffffffffffffffffffff160217905550808061190990613370565b915050611873565b5060076000888152602001908152602001600020600301339080600181540180825580915050600190039060005260206000200160009091909190916101000a81548173ffffffffffffffffffffffffffffffffffffffff021916908373ffffffffffffffffffffffffffffffffffffffff16021790555060005b60018661199991906132a4565b811015611a2a5760076000898152602001908152602001600020600301339080600181540180825580915050600190039060005260206000200160009091909190916101000a81548173ffffffffffffffffffffffffffffffffffffffff021916908373ffffffffffffffffffffffffffffffffffffffff1602179055508080611a2290613370565b91505061198c565b50611a3560026124a0565b505050505050506001600081905550505050565b60026000541415611a8f576040517f08c379a0000000000000000000000000000000000000000000000000000000008152600401611a86906130cb565b60405180910390fd5b60026000819055506000600860008381526020019081526020016000205490506000806000905060008080600080600090505b6007600089815260200190815260200160002060060154811015611c4e5734600760008a81526020019081526020016000206004018281548110611b2f577f4e487b7100000000000000000000000000000000000000000000000000000000600052603260045260246000fd5b90600052602060002001541415611c3b576001955060019450600760008981526020019081526020016000206004018181548110611b96577f4e487b7100000000000000000000000000000000000000000000000000000000600052603260045260246000fd5b9060005260206000200154935060076000898152602001908152602001600020600101549250600760008981526020019081526020016000206003018181548110611c0a577f4e487b7100000000000000000000000000000000000000000000000000000000600052603260045260246000fd5b9060005260206000200160009054906101000a900473ffffffffffffffffffffffffffffffffffffffff1691508096505b8080611c4690613370565b915050611ac2565b5083611c8f576040517f08c379a0000000000000000000000000000000000000000000000000000000008152600401611c869061306b565b60405180910390fd5b60001515600760008981526020019081526020016000206005018781548110611ce1577f4e487b7100000000000000000000000000000000000000000000000000000000600052603260045260246000fd5b90600052602060002090602091828204019190069054906101000a900460ff16151514611d43576040517f08c379a0000000000000000000000000000000000000000000000000000000008152600401611d3a906130eb565b60405180910390fd5b84611d83576040517f08c379a0000000000000000000000000000000000000000000000000000000008152600401611d7a9061304b565b60405180910390fd5b33600760008981526020019081526020016000206002018781548110611dd2577f4e487b7100000000000000000000000000000000000000000000000000000000600052603260045260246000fd5b9060005260206000200160006101000a81548173ffffffffffffffffffffffffffffffffffffffff021916908373ffffffffffffffffffffffffffffffffffffffff1602179055506001600760008981526020019081526020016000206005018781548110611e6a577f4e487b7100000000000000000000000000000000000000000000000000000000600052603260045260246000fd5b90600052602060002090602091828204019190066101000a81548160ff0219169083151502179055506000600760008981526020019081526020016000206003018781548110611ee3577f4e487b7100000000000000000000000000000000000000000000000000000000600052603260045260246000fd5b9060005260206000200160006101000a81548173ffffffffffffffffffffffffffffffffffffffff021916908373ffffffffffffffffffffffffffffffffffffffff1602179055508873ffffffffffffffffffffffffffffffffffffffff1663f242432a30338560016040518563ffffffff1660e01b8152600401611f6b9493929190612ec8565b600060405180830381600087803b158015611f8557600080fd5b505af1158015611f99573d6000803e3d6000fd5b50505050600360009054906101000a900473ffffffffffffffffffffffffffffffffffffffff1673ffffffffffffffffffffffffffffffffffffffff166108fc6004549081150290604051600060405180830381858888f19350505050158015612007573d6000803e3d6000fd5b508073ffffffffffffffffffffffffffffffffffffffff166108fc349081150290604051600060405180830381858888f1935050505015801561204e573d6000803e3d6000fd5b5061205960026124c4565b5050505050505060016000819055505050565b3373ffffffffffffffffffffffffffffffffffffffff16600360009054906101000a900473ffffffffffffffffffffffffffffffffffffffff1673ffffffffffffffffffffffffffffffffffffffff16146120fc576040517f08c379a00000000000000000000000000000000000000000000000000000000081526004016120f39061308b565b60405180910390fd5b8060048190555050565b61210e612520565b60006008600084815260200190815260200160002054905060006007600083815260200190815260200160002060060154905060005b8181101561245c576000151560076000858152602001908152602001600020600501828154811061219e577f4e487b7100000000000000000000000000000000000000000000000000000000600052603260045260246000fd5b90600052602060002090602091828204019190069054906101000a900460ff161515141561244957600760008481526020019081526020016000206040518060e00160405290816000820160009054906101000a900473ffffffffffffffffffffffffffffffffffffffff1673ffffffffffffffffffffffffffffffffffffffff1673ffffffffffffffffffffffffffffffffffffffff16815260200160018201548152602001600282018054806020026020016040519081016040528092919081815260200182805480156122c957602002820191906000526020600020905b8160009054906101000a900473ffffffffffffffffffffffffffffffffffffffff1673ffffffffffffffffffffffffffffffffffffffff168152602001906001019080831161227f575b505050505081526020016003820180548060200260200160405190810160405280929190818152602001828054801561235757602002820191906000526020600020905b8160009054906101000a900473ffffffffffffffffffffffffffffffffffffffff1673ffffffffffffffffffffffffffffffffffffffff168152602001906001019080831161230d575b50505050508152602001600482018054806020026020016040519081016040528092919081815260200182805480156123af57602002820191906000526020600020905b81548152602001906001019080831161239b575b505050505081526020016005820180548060200260200160405190810160405280929190818152602001828054801561242c57602002820191906000526020600020906000905b82829054906101000a900460ff161515815260200190600101906020826000010492830192600103820291508084116123f65790505b50505050508152602001600682015481525050935050505061246c565b808061245490613370565b915050612144565b50612465612520565b8093505050505b919050565b60007ff23a6e612e1ff4830e658fe43f4e3cb4a5f8170bd5d9e69fb5d7a7fa9e4fdf9790509695505050505050565b6001816000016000828254019250508190555050565b600081600001549050919050565b60008160000154905060008111612510576040517f08c379a000000000000000000000000000000000000000000000000000000000815260040161250790612feb565b60405180910390fd5b6001810382600001819055505050565b6040518060e00160405280600073ffffffffffffffffffffffffffffffffffffffff1681526020016000815260200160608152602001606081526020016060815260200160608152602001600081525090565b8280548282559060005260206000209081019282156125ec579160200282015b828111156125eb5782518260006101000a81548173ffffffffffffffffffffffffffffffffffffffff021916908373ffffffffffffffffffffffffffffffffffffffff16021790555091602001919060010190612593565b5b5090506125f991906126f0565b5090565b828054828255906000526020600020908101928215612639579160200282015b8281111561263857825182559160200191906001019061261d565b5b50905061264691906126f0565b5090565b82805482825590600052602060002090601f016020900481019282156126df5791602002820160005b838211156126b057835183826101000a81548160ff0219169083151502179055509260200192600101602081600001049283019260010302612673565b80156126dd5782816101000a81549060ff02191690556001016020816000010492830192600103026126b0565b505b5090506126ec91906126f0565b5090565b5b808211156127095760008160009055506001016126f1565b5090565b60008135905061271c816135f7565b92915050565b60008083601f84011261273457600080fd5b8235905067ffffffffffffffff81111561274d57600080fd5b60208301915083600182028301111561276557600080fd5b9250929050565b60008135905061277b8161360e565b92915050565b6000815190506127908161360e565b92915050565b6000602082840312156127a857600080fd5b60006127b68482850161270d565b91505092915050565b60008060008060008060a087890312156127d857600080fd5b60006127e689828a0161270d565b96505060206127f789828a0161270d565b955050604061280889828a0161276c565b945050606061281989828a0161276c565b935050608087013567ffffffffffffffff81111561283657600080fd5b61284289828a01612722565b92509250509295509295509295565b6000806040838503121561286457600080fd5b60006128728582860161270d565b92505060206128838582860161276c565b9150509250929050565b60006020828403121561289f57600080fd5b60006128ad8482850161276c565b91505092915050565b6000602082840312156128c857600080fd5b60006128d684828501612781565b91505092915050565b6000806000606084860312156128f457600080fd5b60006129028682870161276c565b93505060206129138682870161270d565b92505060406129248682870161276c565b9150509250925092565b600061293a838361298a565b60208301905092915050565b60006129528383612b46565b60208301905092915050565b600061296a8383612d03565b905092915050565b600061297e8383612e65565b60208301905092915050565b612993816132ea565b82525050565b6129a2816132d8565b82525050565b6129b1816132d8565b82525050565b60006129c282613188565b6129cc81856131e8565b93506129d783613148565b8060005b83811015612a085781516129ef888261292e565b97506129fa836131b4565b9250506001810190506129db565b5085935050505092915050565b6000612a2082613193565b612a2a81856131f9565b9350612a3583613158565b8060005b83811015612a66578151612a4d8882612946565b9750612a58836131c1565b925050600181019050612a39565b5085935050505092915050565b6000612a7e8261319e565b612a88818561320a565b935083602082028501612a9a85613168565b8060005b85811015612ad65784840389528151612ab7858261295e565b9450612ac2836131ce565b925060208a01995050600181019050612a9e565b50829750879550505050505092915050565b6000612af3826131a9565b612afd818561321b565b9350612b0883613178565b8060005b83811015612b39578151612b208882612972565b9750612b2b836131db565b925050600181019050612b0c565b5085935050505092915050565b612b4f816132fc565b82525050565b612b5e816132fc565b82525050565b612b6d81613308565b82525050565b612b7c8161335e565b82525050565b6000612b8f60078361323d565b9150612b9a826133e8565b602082019050919050565b6000612bb2601b8361323d565b9150612bbd82613411565b602082019050919050565b6000612bd560108361323d565b9150612be08261343a565b602082019050919050565b6000612bf860248361323d565b9150612c0382613463565b604082019050919050565b6000612c1b60228361323d565b9150612c26826134b2565b604082019050919050565b6000612c3e601b8361323d565b9150612c4982613501565b602082019050919050565b6000612c6160008361322c565b9150612c6c8261352a565b600082019050919050565b6000612c8460308361323d565b9150612c8f8261352d565b604082019050919050565b6000612ca7600c8361323d565b9150612cb28261357c565b602082019050919050565b6000612cca601f8361323d565b9150612cd5826135a5565b602082019050919050565b6000612ced600c8361323d565b9150612cf8826135ce565b602082019050919050565b600060e083016000830151612d1b6000860182612999565b506020830151612d2e6020860182612e65565b5060408301518482036040860152612d4682826129b7565b91505060608301518482036060860152612d6082826129b7565b91505060808301518482036080860152612d7a8282612ae8565b91505060a083015184820360a0860152612d948282612a15565b91505060c0830151612da960c0860182612e65565b508091505092915050565b600060e083016000830151612dcc6000860182612999565b506020830151612ddf6020860182612e65565b5060408301518482036040860152612df782826129b7565b91505060608301518482036060860152612e1182826129b7565b91505060808301518482036080860152612e2b8282612ae8565b91505060a083015184820360a0860152612e458282612a15565b91505060c0830151612e5a60c0860182612e65565b508091505092915050565b612e6e81613354565b82525050565b612e7d81613354565b82525050565b6000608082019050612e9860008301876129a8565b612ea560208301866129a8565b612eb26040830185612e74565b612ebf6060830184612b73565b95945050505050565b600060a082019050612edd60008301876129a8565b612eea60208301866129a8565b612ef76040830185612e74565b612f046060830184612b73565b8181036080830152612f1581612c54565b905095945050505050565b600060a082019050612f3560008301886129a8565b612f426020830187612e74565b612f4f60408301866129a8565b612f5c60608301856129a8565b612f696080830184612e74565b9695505050505050565b60006020820190508181036000830152612f8d8184612a73565b905092915050565b6000602082019050612faa6000830184612b55565b92915050565b6000602082019050612fc56000830184612b64565b92915050565b60006020820190508181036000830152612fe481612b82565b9050919050565b6000602082019050818103600083015261300481612ba5565b9050919050565b6000602082019050818103600083015261302481612bc8565b9050919050565b6000602082019050818103600083015261304481612beb565b9050919050565b6000602082019050818103600083015261306481612c0e565b9050919050565b6000602082019050818103600083015261308481612c31565b9050919050565b600060208201905081810360008301526130a481612c77565b9050919050565b600060208201905081810360008301526130c481612c9a565b9050919050565b600060208201905081810360008301526130e481612cbd565b9050919050565b6000602082019050818103600083015261310481612ce0565b9050919050565b600060208201905081810360008301526131258184612db4565b905092915050565b60006020820190506131426000830184612e74565b92915050565b6000819050602082019050919050565b6000819050602082019050919050565b6000819050602082019050919050565b6000819050602082019050919050565b600081519050919050565b600081519050919050565b600081519050919050565b600081519050919050565b6000602082019050919050565b6000602082019050919050565b6000602082019050919050565b6000602082019050919050565b600082825260208201905092915050565b600082825260208201905092915050565b600082825260208201905092915050565b600082825260208201905092915050565b600082825260208201905092915050565b600082825260208201905092915050565b600061325982613354565b915061326483613354565b9250827fffffffffffffffffffffffffffffffffffffffffffffffffffffffffffffffff03821115613299576132986133b9565b5b828201905092915050565b60006132af82613354565b91506132ba83613354565b9250828210156132cd576132cc6133b9565b5b828203905092915050565b60006132e382613334565b9050919050565b60006132f582613334565b9050919050565b60008115159050919050565b60007fffffffff0000000000000000000000000000000000000000000000000000000082169050919050565b600073ffffffffffffffffffffffffffffffffffffffff82169050919050565b6000819050919050565b600061336982613354565b9050919050565b600061337b82613354565b91507fffffffffffffffffffffffffffffffffffffffffffffffffffffffffffffffff8214156133ae576133ad6133b9565b5b600182019050919050565b7f4e487b7100000000000000000000000000000000000000000000000000000000600052601160045260246000fd5b7f546f6f206c6f7700000000000000000000000000000000000000000000000000600082015250565b7f436f756e7465723a2064656372656d656e74206f766572666c6f770000000000600082015250565b7f6e6f206c697374696e6720707269636500000000000000000000000000000000600082015250565b7f4d616b65207375726520796f75206861766520746865206c697374696e67205060008201527f7269636500000000000000000000000000000000000000000000000000000000602082015250565b7f6d616b65207375726520796f752073656e64207468652065786163742070726960008201527f6365000000000000000000000000000000000000000000000000000000000000602082015250565b7f6e6f20746f6b656e207769746820746861742070726963652669640000000000600082015250565b50565b7f4f6e6c79206d61726b6574706c616365206f776e65722063616e20757064617460008201527f65206c697374696e672070726963652e00000000000000000000000000000000602082015250565b7f6e6f7420616e206f776e65720000000000000000000000000000000000000000600082015250565b7f5265656e7472616e637947756172643a207265656e7472616e742063616c6c00600082015250565b7f616c726561647920736f6c640000000000000000000000000000000000000000600082015250565b613600816132d8565b811461360b57600080fd5b50565b61361781613354565b811461362257600080fd5b5056fea2646970667358221220c952411495e0aa191f538fcc474f23677123f9c2675130c36f179be1473007d164736f6c63430008010033",
  "linkReferences": {},
  "deployedLinkReferences": {}
}