{
  "_format": "hh-sol-artifact-1",
  "contractName": "Artizan1155Market",
  "sourceName": "contracts/Artizan1155Market.sol",
  "abi": [
    {
      "inputs": [],
      "stateMutability": "nonpayable",
      "type": "constructor"
    },
    {
      "anonymous": false,
      "inputs": [
        {
          "indexed": false,
          "internalType": "address",
          "name": "nftContract",
          "type": "address"
        },
        {
          "indexed": false,
          "internalType": "uint256",
          "name": "tokenID",
          "type": "uint256"
        },
        {
          "indexed": false,
          "internalType": "address",
          "name": "owner",
          "type": "address"
        },
        {
          "indexed": false,
          "internalType": "address",
          "name": "seller",
          "type": "address"
        },
        {
          "indexed": false,
          "internalType": "uint256",
          "name": "price",
          "type": "uint256"
        }
      ],
      "name": "MarketItemCreation",
      "type": "event"
    },
    {
      "anonymous": false,
      "inputs": [
        {
          "indexed": false,
          "internalType": "address",
          "name": "account",
          "type": "address"
        },
        {
          "indexed": false,
          "internalType": "string",
          "name": "name",
          "type": "string"
        }
      ],
      "name": "WhitelistAdded",
      "type": "event"
    },
    {
      "inputs": [],
      "name": "ListItemsOnSale1155",
      "outputs": [
        {
          "components": [
            {
              "internalType": "address",
              "name": "nftContract",
              "type": "address"
            },
            {
              "internalType": "uint256",
              "name": "tokenID",
              "type": "uint256"
            },
            {
              "internalType": "address payable[]",
              "name": "owners",
              "type": "address[]"
            },
            {
              "internalType": "address payable[]",
              "name": "sellers",
              "type": "address[]"
            },
            {
              "internalType": "uint256[]",
              "name": "prices",
              "type": "uint256[]"
            },
            {
              "internalType": "bool[]",
              "name": "solds",
              "type": "bool[]"
            },
            {
              "internalType": "uint256",
              "name": "maxAmount",
              "type": "uint256"
            }
          ],
          "internalType": "struct Artizan1155Market.MarketItem[]",
          "name": "",
          "type": "tuple[]"
        }
      ],
      "stateMutability": "view",
      "type": "function"
    },
    {
      "inputs": [
        {
          "internalType": "address",
          "name": "user",
          "type": "address"
        }
      ],
      "name": "ListUserAllItem1155",
      "outputs": [
        {
          "components": [
            {
              "internalType": "address",
              "name": "nftContract",
              "type": "address"
            },
            {
              "internalType": "uint256",
              "name": "tokenID",
              "type": "uint256"
            },
            {
              "internalType": "address payable[]",
              "name": "owners",
              "type": "address[]"
            },
            {
              "internalType": "address payable[]",
              "name": "sellers",
              "type": "address[]"
            },
            {
              "internalType": "uint256[]",
              "name": "prices",
              "type": "uint256[]"
            },
            {
              "internalType": "bool[]",
              "name": "solds",
              "type": "bool[]"
            },
            {
              "internalType": "uint256",
              "name": "maxAmount",
              "type": "uint256"
            }
          ],
          "internalType": "struct Artizan1155Market.MarketItem[]",
          "name": "",
          "type": "tuple[]"
        }
      ],
      "stateMutability": "view",
      "type": "function"
    },
    {
      "inputs": [
        {
          "internalType": "uint256",
          "name": "tokenId",
          "type": "uint256"
        }
      ],
      "name": "NFTItem",
      "outputs": [
        {
          "components": [
            {
              "internalType": "address",
              "name": "nftContract",
              "type": "address"
            },
            {
              "internalType": "uint256",
              "name": "tokenID",
              "type": "uint256"
            },
            {
              "internalType": "address payable[]",
              "name": "owners",
              "type": "address[]"
            },
            {
              "internalType": "address payable[]",
              "name": "sellers",
              "type": "address[]"
            },
            {
              "internalType": "uint256[]",
              "name": "prices",
              "type": "uint256[]"
            },
            {
              "internalType": "bool[]",
              "name": "solds",
              "type": "bool[]"
            },
            {
              "internalType": "uint256",
              "name": "maxAmount",
              "type": "uint256"
            }
          ],
          "internalType": "struct Artizan1155Market.MarketItem",
          "name": "",
          "type": "tuple"
        }
      ],
      "stateMutability": "view",
      "type": "function"
    },
    {
      "inputs": [
        {
          "internalType": "uint256",
          "name": "price",
          "type": "uint256"
        },
        {
          "internalType": "address",
          "name": "NftCont",
          "type": "address"
        },
        {
          "internalType": "uint256",
          "name": "tokenId",
          "type": "uint256"
        }
      ],
      "name": "ResellNFT1155",
      "outputs": [],
      "stateMutability": "payable",
      "type": "function"
    },
    {
      "inputs": [
        {
          "internalType": "address",
          "name": "account",
          "type": "address"
        },
        {
          "internalType": "string",
          "name": "name",
          "type": "string"
        }
      ],
      "name": "addToWhitelist",
      "outputs": [],
      "stateMutability": "nonpayable",
      "type": "function"
    },
    {
      "inputs": [
        {
          "internalType": "uint256",
          "name": "price",
          "type": "uint256"
        },
        {
          "internalType": "address",
          "name": "NftCont",
          "type": "address"
        },
        {
          "internalType": "uint256",
          "name": "tokenId",
          "type": "uint256"
        }
      ],
      "name": "createMarketItem",
      "outputs": [],
      "stateMutability": "payable",
      "type": "function"
    },
    {
      "inputs": [
        {
          "internalType": "address",
          "name": "NftCont",
          "type": "address"
        },
        {
          "internalType": "uint256",
          "name": "tokenId",
          "type": "uint256"
        }
      ],
      "name": "createMarketSale1155",
      "outputs": [],
      "stateMutability": "payable",
      "type": "function"
    },
    {
      "inputs": [],
      "name": "getListingPrice",
      "outputs": [
        {
          "internalType": "uint256",
          "name": "",
          "type": "uint256"
        }
      ],
      "stateMutability": "view",
      "type": "function"
    },
    {
      "inputs": [],
      "name": "getOwner",
      "outputs": [
        {
          "internalType": "address",
          "name": "",
          "type": "address"
        }
      ],
      "stateMutability": "view",
      "type": "function"
    },
    {
      "inputs": [
        {
          "internalType": "uint256",
          "name": "tokenId",
          "type": "uint256"
        }
      ],
      "name": "isToken1155ExistOnMarket",
      "outputs": [
        {
          "internalType": "bool",
          "name": "",
          "type": "bool"
        }
      ],
      "stateMutability": "view",
      "type": "function"
    },
    {
      "inputs": [
        {
          "internalType": "address",
          "name": "account",
          "type": "address"
        }
      ],
      "name": "isWhitelisted",
      "outputs": [
        {
          "internalType": "bool",
          "name": "",
          "type": "bool"
        }
      ],
      "stateMutability": "view",
      "type": "function"
    },
    {
      "inputs": [
        {
          "internalType": "address",
          "name": "_operator",
          "type": "address"
        },
        {
          "internalType": "address",
          "name": "_from",
          "type": "address"
        },
        {
          "internalType": "uint256",
          "name": "_id",
          "type": "uint256"
        },
        {
          "internalType": "uint256",
          "name": "_value",
          "type": "uint256"
        },
        {
          "internalType": "bytes",
          "name": "_data",
          "type": "bytes"
        }
      ],
      "name": "onERC1155Received",
      "outputs": [
        {
          "internalType": "bytes4",
          "name": "",
          "type": "bytes4"
        }
      ],
      "stateMutability": "nonpayable",
      "type": "function"
    },
    {
      "inputs": [
        {
          "internalType": "uint256",
          "name": "_listingPrice",
          "type": "uint256"
        }
      ],
      "name": "updateListingPrice",
      "outputs": [],
      "stateMutability": "payable",
      "type": "function"
    },
    {
      "inputs": [
        {
          "internalType": "address",
          "name": "",
          "type": "address"
        }
      ],
      "name": "whitelist",
      "outputs": [
        {
          "internalType": "address",
          "name": "account",
          "type": "address"
        },
        {
          "internalType": "string",
          "name": "name",
          "type": "string"
        }
      ],
      "stateMutability": "view",
      "type": "function"
    },
    {
      "inputs": [
        {
          "internalType": "uint256",
          "name": "",
          "type": "uint256"
        }
      ],
      "name": "whitelistArray",
      "outputs": [
        {
          "internalType": "address",
          "name": "account",
          "type": "address"
        },
        {
          "internalType": "string",
          "name": "name",
          "type": "string"
        }
      ],
      "stateMutability": "view",
      "type": "function"
    }
  ],
  "bytecode": "0x6080604052662386f26fc10000600455600060055560006006553480156200002657600080fd5b50600160008190555033600360006101000a81548173ffffffffffffffffffffffffffffffffffffffff021916908373ffffffffffffffffffffffffffffffffffffffff160217905550620000b7336040518060400160405280600e81526020017f636f6e74726163745f6f776e6572000000000000000000000000000000000000815250620000bd60201b60201c565b62000732565b600360009054906101000a900473ffffffffffffffffffffffffffffffffffffffff1673ffffffffffffffffffffffffffffffffffffffff163373ffffffffffffffffffffffffffffffffffffffff161462000150576040517f08c379a0000000000000000000000000000000000000000000000000000000008152600401620001479062000554565b60405180910390fd5b600073ffffffffffffffffffffffffffffffffffffffff16600960008473ffffffffffffffffffffffffffffffffffffffff1673ffffffffffffffffffffffffffffffffffffffff16815260200190815260200160002060000160009054906101000a900473ffffffffffffffffffffffffffffffffffffffff1673ffffffffffffffffffffffffffffffffffffffff161462000224576040517f08c379a00000000000000000000000000000000000000000000000000000000081526004016200021b9062000576565b60405180910390fd5b600060405180604001604052808473ffffffffffffffffffffffffffffffffffffffff16815260200183815250905080600960008573ffffffffffffffffffffffffffffffffffffffff1673ffffffffffffffffffffffffffffffffffffffff16815260200190815260200160002060008201518160000160006101000a81548173ffffffffffffffffffffffffffffffffffffffff021916908373ffffffffffffffffffffffffffffffffffffffff1602179055506020820151816001019080519060200190620002f8929190620003d0565b50905050600a81908060018154018082558091505060019003906000526020600020906002020160009091909190915060008201518160000160006101000a81548173ffffffffffffffffffffffffffffffffffffffff021916908373ffffffffffffffffffffffffffffffffffffffff16021790555060208201518160010190805190602001906200038d929190620003d0565b5050507fc099bb576ab769941d5df2a2e3a78102b73a991c8995d492f8ff2b716fe755348383604051620003c392919062000520565b60405180910390a1505050565b828054620003de906200061e565b90600052602060002090601f0160209004810192826200040257600085556200044e565b82601f106200041d57805160ff19168380011785556200044e565b828001600101855582156200044e579182015b828111156200044d57825182559160200191906001019062000430565b5b5090506200045d919062000461565b5090565b5b808211156200047c57600081600090555060010162000462565b5090565b6200048b81620005b4565b82525050565b60006200049e8262000598565b620004aa8185620005a3565b9350620004bc818560208601620005e8565b620004c78162000683565b840191505092915050565b6000620004e1602d83620005a3565b9150620004ee8262000694565b604082019050919050565b600062000508602483620005a3565b91506200051582620006e3565b604082019050919050565b600060408201905062000537600083018562000480565b81810360208301526200054b818462000491565b90509392505050565b600060208201905081810360008301526200056f81620004d2565b9050919050565b600060208201905081810360008301526200059181620004f9565b9050919050565b600081519050919050565b600082825260208201905092915050565b6000620005c182620005c8565b9050919050565b600073ffffffffffffffffffffffffffffffffffffffff82169050919050565b60005b8381101562000608578082015181840152602081019050620005eb565b8381111562000618576000848401525b50505050565b600060028204905060018216806200063757607f821691505b602082108114156200064e576200064d62000654565b5b50919050565b7f4e487b7100000000000000000000000000000000000000000000000000000000600052602260045260246000fd5b6000601f19601f8301169050919050565b7f4f6e6c79206f776e6572206f6620746865206d61726b6574706c61636520636160008201527f6e206368616e6765207468697300000000000000000000000000000000000000602082015250565b7f4164647265737320697320616c7265616479206f6e207468652077686974656c60008201527f6973742e00000000000000000000000000000000000000000000000000000000602082015250565b61419280620007426000396000f3fe6080604052600436106100e85760003560e01c8063829950671161008a578063ae677aa311610059578063ae677aa3146102e0578063b19d4e08146102fc578063d251fefc14610339578063f23a6e6114610377576100e8565b8063829950671461023f578063838a90961461025b578063893d20e8146102775780639b19251a146102a2576100e8565b80632104a33f116100c65780632104a33f1461015d578063222d04491461019a5780633af32abf146101c557806367ec3c1714610202576100e8565b80630661bae2146100ed57806312e85585146101095780631a533daa14610134575b600080fd5b610107600480360381019061010291906130f9565b6103b4565b005b34801561011557600080fd5b5061011e610823565b60405161012b9190613a51565b60405180910390f35b34801561014057600080fd5b5061015b60048036038101906101569190613017565b61082d565b005b34801561016957600080fd5b50610184600480360381019061017f9190612f5c565b610b34565b6040516101919190613857565b60405180910390f35b3480156101a657600080fd5b506101af611276565b6040516101bc9190613857565b60405180910390f35b3480156101d157600080fd5b506101ec60048036038101906101e79190612f5c565b611720565b6040516101f99190613879565b60405180910390f35b34801561020e57600080fd5b50610229600480360381019061022491906130a7565b6117bb565b6040516102369190613879565b60405180910390f35b610259600480360381019061025491906130f9565b6117eb565b005b6102756004803603810190610270919061306b565b611f4f565b005b34801561028357600080fd5b5061028c612572565b604051610299919061371c565b60405180910390f35b3480156102ae57600080fd5b506102c960048036038101906102c49190612f5c565b61259c565b6040516102d79291906137d4565b60405180910390f35b6102fa60048036038101906102f591906130a7565b612668565b005b34801561030857600080fd5b50610323600480360381019061031e91906130a7565b612702565b6040516103309190613a2f565b60405180910390f35b34801561034557600080fd5b50610360600480360381019061035b91906130a7565b612a6d565b60405161036e9291906137d4565b60405180910390f35b34801561038357600080fd5b5061039e60048036038101906103999190612f85565b612b49565b6040516103ab9190613894565b60405180910390f35b600260005414156103fa576040517f08c379a00000000000000000000000000000000000000000000000000000000081526004016103f1906139ef565b60405180910390fd5b600260008190555060006008600083815260200190815260200160002054905060008080600090505b6007600085815260200190815260200160002060060154811015610508573373ffffffffffffffffffffffffffffffffffffffff166007600086815260200190815260200160002060020182815481106104a6577f4e487b7100000000000000000000000000000000000000000000000000000000600052603260045260246000fd5b9060005260206000200160009054906101000a900473ffffffffffffffffffffffffffffffffffffffff1673ffffffffffffffffffffffffffffffffffffffff1614156104f557600192508091505b808061050090613d9a565b915050610423565b5081610549576040517f08c379a0000000000000000000000000000000000000000000000000000000008152600401610540906139cf565b60405180910390fd5b600454341461058d576040517f08c379a0000000000000000000000000000000000000000000000000000000008152600401610584906138ef565b60405180910390fd5b60008590508073ffffffffffffffffffffffffffffffffffffffff1663036ebef933308860016040518563ffffffff1660e01b81526004016105d29493929190613737565b600060405180830381600087803b1580156105ec57600080fd5b505af1158015610600573d6000803e3d6000fd5b505050506000600760008681526020019081526020016000206005018381548110610654577f4e487b7100000000000000000000000000000000000000000000000000000000600052603260045260246000fd5b90600052602060002090602091828204019190066101000a81548160ff021916908315150217905550866007600086815260200190815260200160002060040183815481106106cc577f4e487b7100000000000000000000000000000000000000000000000000000000600052603260045260246000fd5b906000526020600020018190555033600760008681526020019081526020016000206003018381548110610729577f4e487b7100000000000000000000000000000000000000000000000000000000600052603260045260246000fd5b9060005260206000200160006101000a81548173ffffffffffffffffffffffffffffffffffffffff021916908373ffffffffffffffffffffffffffffffffffffffff160217905550306007600086815260200190815260200160002060020183815481106107c0577f4e487b7100000000000000000000000000000000000000000000000000000000600052603260045260246000fd5b9060005260206000200160006101000a81548173ffffffffffffffffffffffffffffffffffffffff021916908373ffffffffffffffffffffffffffffffffffffffff1602179055506108126002612b78565b505050506001600081905550505050565b6000600454905090565b600360009054906101000a900473ffffffffffffffffffffffffffffffffffffffff1673ffffffffffffffffffffffffffffffffffffffff163373ffffffffffffffffffffffffffffffffffffffff16146108bd576040517f08c379a00000000000000000000000000000000000000000000000000000000081526004016108b49061390f565b60405180910390fd5b600073ffffffffffffffffffffffffffffffffffffffff16600960008473ffffffffffffffffffffffffffffffffffffffff1673ffffffffffffffffffffffffffffffffffffffff16815260200190815260200160002060000160009054906101000a900473ffffffffffffffffffffffffffffffffffffffff1673ffffffffffffffffffffffffffffffffffffffff161461098e576040517f08c379a00000000000000000000000000000000000000000000000000000000081526004016109859061398f565b60405180910390fd5b600060405180604001604052808473ffffffffffffffffffffffffffffffffffffffff16815260200183815250905080600960008573ffffffffffffffffffffffffffffffffffffffff1673ffffffffffffffffffffffffffffffffffffffff16815260200190815260200160002060008201518160000160006101000a81548173ffffffffffffffffffffffffffffffffffffffff021916908373ffffffffffffffffffffffffffffffffffffffff1602179055506020820151816001019080519060200190610a60929190612bf8565b50905050600a81908060018154018082558091505060019003906000526020600020906002020160009091909190915060008201518160000160006101000a81548173ffffffffffffffffffffffffffffffffffffffff021916908373ffffffffffffffffffffffffffffffffffffffff1602179055506020820151816001019080519060200190610af3929190612bf8565b5050507fc099bb576ab769941d5df2a2e3a78102b73a991c8995d492f8ff2b716fe755348383604051610b279291906137d4565b60405180910390a1505050565b60606000610b426001612b8e565b905060008060005b83811015610d2e57600060076000600184610b659190613bd3565b815260200190815260200160002060060154905060005b81811015610d19578773ffffffffffffffffffffffffffffffffffffffff1660076000600186610bac9190613bd3565b81526020019081526020016000206003018281548110610bf5577f4e487b7100000000000000000000000000000000000000000000000000000000600052603260045260246000fd5b9060005260206000200160009054906101000a900473ffffffffffffffffffffffffffffffffffffffff1673ffffffffffffffffffffffffffffffffffffffff161480610cf157508773ffffffffffffffffffffffffffffffffffffffff1660076000600186610c659190613bd3565b81526020019081526020016000206002018281548110610cae577f4e487b7100000000000000000000000000000000000000000000000000000000600052603260045260246000fd5b9060005260206000200160009054906101000a900473ffffffffffffffffffffffffffffffffffffffff1673ffffffffffffffffffffffffffffffffffffffff16145b15610d0657600185610d039190613bd3565b94505b8080610d1190613d9a565b915050610b7c565b50508080610d2690613d9a565b915050610b4a565b5060008267ffffffffffffffff811115610d71577f4e487b7100000000000000000000000000000000000000000000000000000000600052604160045260246000fd5b604051908082528060200260200182016040528015610daa57816020015b610d97612c7e565b815260200190600190039081610d8f5790505b50905060005b8481101561126957600060076000600184610dcb9190613bd3565b815260200190815260200160002060060154905060005b81811015611254578873ffffffffffffffffffffffffffffffffffffffff1660076000600186610e129190613bd3565b81526020019081526020016000206003018281548110610e5b577f4e487b7100000000000000000000000000000000000000000000000000000000600052603260045260246000fd5b9060005260206000200160009054906101000a900473ffffffffffffffffffffffffffffffffffffffff1673ffffffffffffffffffffffffffffffffffffffff161480610f5757508873ffffffffffffffffffffffffffffffffffffffff1660076000600186610ecb9190613bd3565b81526020019081526020016000206002018281548110610f14577f4e487b7100000000000000000000000000000000000000000000000000000000600052603260045260246000fd5b9060005260206000200160009054906101000a900473ffffffffffffffffffffffffffffffffffffffff1673ffffffffffffffffffffffffffffffffffffffff16145b15611241576000600184610f6b9190613bd3565b90506000600760008381526020019081526020016000209050806040518060e00160405290816000820160009054906101000a900473ffffffffffffffffffffffffffffffffffffffff1673ffffffffffffffffffffffffffffffffffffffff1673ffffffffffffffffffffffffffffffffffffffff168152602001600182015481526020016002820180548060200260200160405190810160405280929190818152602001828054801561107557602002820191906000526020600020905b8160009054906101000a900473ffffffffffffffffffffffffffffffffffffffff1673ffffffffffffffffffffffffffffffffffffffff168152602001906001019080831161102b575b505050505081526020016003820180548060200260200160405190810160405280929190818152602001828054801561110357602002820191906000526020600020905b8160009054906101000a900473ffffffffffffffffffffffffffffffffffffffff1673ffffffffffffffffffffffffffffffffffffffff16815260200190600101908083116110b9575b505050505081526020016004820180548060200260200160405190810160405280929190818152602001828054801561115b57602002820191906000526020600020905b815481526020019060010190808311611147575b50505050508152602001600582018054806020026020016040519081016040528092919081815260200182805480156111d857602002820191906000526020600020906000905b82829054906101000a900460ff161515815260200190600101906020826000010492830192600103820291508084116111a25790505b50505050508152602001600682015481525050868881518110611224577f4e487b7100000000000000000000000000000000000000000000000000000000600052603260045260246000fd5b602002602001018190525060018761123c9190613bd3565b965050505b808061124c90613d9a565b915050610de2565b5050808061126190613d9a565b915050610db0565b5080945050505050919050565b606060006112846001612b8e565b905060006112926002612b8e565b90506000808267ffffffffffffffff8111156112d7577f4e487b7100000000000000000000000000000000000000000000000000000000600052604160045260246000fd5b60405190808252806020026020018201604052801561131057816020015b6112fd612c7e565b8152602001906001900390816112f55790505b50905060005b84811015611715576000600760006001846113319190613bd3565b815260200190815260200160002060060154905060005b81811015611700573073ffffffffffffffffffffffffffffffffffffffff16600760006001866113789190613bd3565b815260200190815260200160002060020182815481106113c1577f4e487b7100000000000000000000000000000000000000000000000000000000600052603260045260246000fd5b9060005260206000200160009054906101000a900473ffffffffffffffffffffffffffffffffffffffff1673ffffffffffffffffffffffffffffffffffffffff1614156116ed5760006001846114179190613bd3565b90506000600760008381526020019081526020016000209050806040518060e00160405290816000820160009054906101000a900473ffffffffffffffffffffffffffffffffffffffff1673ffffffffffffffffffffffffffffffffffffffff1673ffffffffffffffffffffffffffffffffffffffff168152602001600182015481526020016002820180548060200260200160405190810160405280929190818152602001828054801561152157602002820191906000526020600020905b8160009054906101000a900473ffffffffffffffffffffffffffffffffffffffff1673ffffffffffffffffffffffffffffffffffffffff16815260200190600101908083116114d7575b50505050508152602001600382018054806020026020016040519081016040528092919081815260200182805480156115af57602002820191906000526020600020905b8160009054906101000a900473ffffffffffffffffffffffffffffffffffffffff1673ffffffffffffffffffffffffffffffffffffffff1681526020019060010190808311611565575b505050505081526020016004820180548060200260200160405190810160405280929190818152602001828054801561160757602002820191906000526020600020905b8154815260200190600101908083116115f3575b505050505081526020016005820180548060200260200160405190810160405280929190818152602001828054801561168457602002820191906000526020600020906000905b82829054906101000a900460ff1615158152602001906001019060208260000104928301926001038202915080841161164e5790505b505050505081526020016006820154815250508688815181106116d0577f4e487b7100000000000000000000000000000000000000000000000000000000600052603260045260246000fd5b60200260200101819052506001876116e89190613bd3565b965050505b80806116f890613d9a565b915050611348565b5050808061170d90613d9a565b915050611316565b508094505050505090565b60008073ffffffffffffffffffffffffffffffffffffffff16600960008473ffffffffffffffffffffffffffffffffffffffff1673ffffffffffffffffffffffffffffffffffffffff16815260200190815260200160002060000160009054906101000a900473ffffffffffffffffffffffffffffffffffffffff1673ffffffffffffffffffffffffffffffffffffffff1614159050919050565b600080600860008481526020019081526020016000205411156117e157600190506117e6565b600090505b919050565b60026000541415611831576040517f08c379a0000000000000000000000000000000000000000000000000000000008152600401611828906139ef565b60405180910390fd5b60026000819055506000831161187c576040517f08c379a0000000000000000000000000000000000000000000000000000000008152600401611873906138af565b60405180910390fd5b60045434146118c0576040517f08c379a00000000000000000000000000000000000000000000000000000000081526004016118b79061392f565b60405180910390fd5b6118ca6001612b78565b60006118d66001612b8e565b9050600083905060008173ffffffffffffffffffffffffffffffffffffffff1663e8eb2284856040518263ffffffff1660e01b81526004016119189190613a51565b60206040518083038186803b15801561193057600080fd5b505afa158015611944573d6000803e3d6000fd5b505050506040513d601f19601f8201168201806040525081019061196891906130d0565b90508260086000868152602001908152602001600020819055506060806060806040518060e001604052808a73ffffffffffffffffffffffffffffffffffffffff168152602001898152602001838152602001828152602001858152602001848152602001868152506007600089815260200190815260200160002060008201518160000160006101000a81548173ffffffffffffffffffffffffffffffffffffffff021916908373ffffffffffffffffffffffffffffffffffffffff160217905550602082015181600101556040820151816002019080519060200190611a51929190612cd1565b506060820151816003019080519060200190611a6e929190612cd1565b506080820151816004019080519060200190611a8b929190612d5b565b5060a0820151816005019080519060200190611aa8929190612da8565b5060c082015181600601559050508873ffffffffffffffffffffffffffffffffffffffff1663f242432a33308b60016040518563ffffffff1660e01b8152600401611af6949392919061377c565b600060405180830381600087803b158015611b1057600080fd5b505af1158015611b24573d6000803e3d6000fd5b5050505084600654611b369190613bd3565b6006819055507f4fa4b9f68b4a75ac729dd5bbff39ffcb8f2ffd21959fbbfede0d187bbe9e68d2898930338e604051611b73959493929190613804565b60405180910390a1600760008881526020019081526020016000206004018a908060018154018082558091505060019003906000526020600020016000909190919091505560005b600186611bc89190613c29565b811015611c21576007600089815260200190815260200160002060040160055490806001815401808255809150506001900390600052602060002001600090919091909150558080611c1990613d9a565b915050611bbb565b5060076000888152602001908152602001600020600501600090806001815401808255809150506001900390600052602060002090602091828204019190069091909190916101000a81548160ff02191690831515021790555060005b600186611c8b9190613c29565b811015611cfe5760076000898152602001908152602001600020600501600190806001815401808255809150506001900390600052602060002090602091828204019190069091909190916101000a81548160ff0219169083151502179055508080611cf690613d9a565b915050611c7e565b5060076000888152602001908152602001600020600201309080600181540180825580915050600190039060005260206000200160009091909190916101000a81548173ffffffffffffffffffffffffffffffffffffffff021916908373ffffffffffffffffffffffffffffffffffffffff16021790555060005b600186611d869190613c29565b811015611e175760076000898152602001908152602001600020600201339080600181540180825580915050600190039060005260206000200160009091909190916101000a81548173ffffffffffffffffffffffffffffffffffffffff021916908373ffffffffffffffffffffffffffffffffffffffff1602179055508080611e0f90613d9a565b915050611d79565b5060076000888152602001908152602001600020600301339080600181540180825580915050600190039060005260206000200160009091909190916101000a81548173ffffffffffffffffffffffffffffffffffffffff021916908373ffffffffffffffffffffffffffffffffffffffff16021790555060005b600186611e9f9190613c29565b811015611f305760076000898152602001908152602001600020600301339080600181540180825580915050600190039060005260206000200160009091909190916101000a81548173ffffffffffffffffffffffffffffffffffffffff021916908373ffffffffffffffffffffffffffffffffffffffff1602179055508080611f2890613d9a565b915050611e92565b50611f3b6002612b78565b505050505050506001600081905550505050565b60026000541415611f95576040517f08c379a0000000000000000000000000000000000000000000000000000000008152600401611f8c906139ef565b60405180910390fd5b60026000819055506000600860008381526020019081526020016000205490506000806000905060008080600080600090505b60076000898152602001908152602001600020600601548110156121545734600760008a81526020019081526020016000206004018281548110612035577f4e487b7100000000000000000000000000000000000000000000000000000000600052603260045260246000fd5b9060005260206000200154141561214157600195506001945060076000898152602001908152602001600020600401818154811061209c577f4e487b7100000000000000000000000000000000000000000000000000000000600052603260045260246000fd5b9060005260206000200154935060076000898152602001908152602001600020600101549250600760008981526020019081526020016000206003018181548110612110577f4e487b7100000000000000000000000000000000000000000000000000000000600052603260045260246000fd5b9060005260206000200160009054906101000a900473ffffffffffffffffffffffffffffffffffffffff1691508096505b808061214c90613d9a565b915050611fc8565b5083612195576040517f08c379a000000000000000000000000000000000000000000000000000000000815260040161218c9061396f565b60405180910390fd5b600015156007600089815260200190815260200160002060050187815481106121e7577f4e487b7100000000000000000000000000000000000000000000000000000000600052603260045260246000fd5b90600052602060002090602091828204019190069054906101000a900460ff16151514612249576040517f08c379a000000000000000000000000000000000000000000000000000000000815260040161224090613a0f565b60405180910390fd5b84612289576040517f08c379a00000000000000000000000000000000000000000000000000000000081526004016122809061394f565b60405180910390fd5b336007600089815260200190815260200160002060020187815481106122d8577f4e487b7100000000000000000000000000000000000000000000000000000000600052603260045260246000fd5b9060005260206000200160006101000a81548173ffffffffffffffffffffffffffffffffffffffff021916908373ffffffffffffffffffffffffffffffffffffffff1602179055506001600760008981526020019081526020016000206005018781548110612370577f4e487b7100000000000000000000000000000000000000000000000000000000600052603260045260246000fd5b90600052602060002090602091828204019190066101000a81548160ff02191690831515021790555060006007600089815260200190815260200160002060030187815481106123e9577f4e487b7100000000000000000000000000000000000000000000000000000000600052603260045260246000fd5b9060005260206000200160006101000a81548173ffffffffffffffffffffffffffffffffffffffff021916908373ffffffffffffffffffffffffffffffffffffffff1602179055508873ffffffffffffffffffffffffffffffffffffffff1663f242432a30338560016040518563ffffffff1660e01b8152600401612471949392919061377c565b600060405180830381600087803b15801561248b57600080fd5b505af115801561249f573d6000803e3d6000fd5b50505050600360009054906101000a900473ffffffffffffffffffffffffffffffffffffffff1673ffffffffffffffffffffffffffffffffffffffff166108fc6004549081150290604051600060405180830381858888f1935050505015801561250d573d6000803e3d6000fd5b508073ffffffffffffffffffffffffffffffffffffffff166108fc349081150290604051600060405180830381858888f19350505050158015612554573d6000803e3d6000fd5b5061255f6002612b9c565b5050505050505060016000819055505050565b6000600360009054906101000a900473ffffffffffffffffffffffffffffffffffffffff16905090565b60096020528060005260406000206000915090508060000160009054906101000a900473ffffffffffffffffffffffffffffffffffffffff16908060010180546125e590613d37565b80601f016020809104026020016040519081016040528092919081815260200182805461261190613d37565b801561265e5780601f106126335761010080835404028352916020019161265e565b820191906000526020600020905b81548152906001019060200180831161264157829003601f168201915b5050505050905082565b3373ffffffffffffffffffffffffffffffffffffffff16600360009054906101000a900473ffffffffffffffffffffffffffffffffffffffff1673ffffffffffffffffffffffffffffffffffffffff16146126f8576040517f08c379a00000000000000000000000000000000000000000000000000000000081526004016126ef906139af565b60405180910390fd5b8060048190555050565b61270a612c7e565b60006008600084815260200190815260200160002054905060006007600083815260200190815260200160002060060154905060005b81811015612a58576000151560076000858152602001908152602001600020600501828154811061279a577f4e487b7100000000000000000000000000000000000000000000000000000000600052603260045260246000fd5b90600052602060002090602091828204019190069054906101000a900460ff1615151415612a4557600760008481526020019081526020016000206040518060e00160405290816000820160009054906101000a900473ffffffffffffffffffffffffffffffffffffffff1673ffffffffffffffffffffffffffffffffffffffff1673ffffffffffffffffffffffffffffffffffffffff16815260200160018201548152602001600282018054806020026020016040519081016040528092919081815260200182805480156128c557602002820191906000526020600020905b8160009054906101000a900473ffffffffffffffffffffffffffffffffffffffff1673ffffffffffffffffffffffffffffffffffffffff168152602001906001019080831161287b575b505050505081526020016003820180548060200260200160405190810160405280929190818152602001828054801561295357602002820191906000526020600020905b8160009054906101000a900473ffffffffffffffffffffffffffffffffffffffff1673ffffffffffffffffffffffffffffffffffffffff1681526020019060010190808311612909575b50505050508152602001600482018054806020026020016040519081016040528092919081815260200182805480156129ab57602002820191906000526020600020905b815481526020019060010190808311612997575b5050505050815260200160058201805480602002602001604051908101604052809291908181526020018280548015612a2857602002820191906000526020600020906000905b82829054906101000a900460ff161515815260200190600101906020826000010492830192600103820291508084116129f25790505b505050505081526020016006820154815250509350505050612a68565b8080612a5090613d9a565b915050612740565b50612a61612c7e565b8093505050505b919050565b600a8181548110612a7d57600080fd5b90600052602060002090600202016000915090508060000160009054906101000a900473ffffffffffffffffffffffffffffffffffffffff1690806001018054612ac690613d37565b80601f0160208091040260200160405190810160405280929190818152602001828054612af290613d37565b8015612b3f5780601f10612b1457610100808354040283529160200191612b3f565b820191906000526020600020905b815481529060010190602001808311612b2257829003601f168201915b5050505050905082565b60007ff23a6e612e1ff4830e658fe43f4e3cb4a5f8170bd5d9e69fb5d7a7fa9e4fdf9790509695505050505050565b6001816000016000828254019250508190555050565b600081600001549050919050565b60008160000154905060008111612be8576040517f08c379a0000000000000000000000000000000000000000000000000000000008152600401612bdf906138cf565b60405180910390fd5b6001810382600001819055505050565b828054612c0490613d37565b90600052602060002090601f016020900481019282612c265760008555612c6d565b82601f10612c3f57805160ff1916838001178555612c6d565b82800160010185558215612c6d579182015b82811115612c6c578251825591602001919060010190612c51565b5b509050612c7a9190612e4e565b5090565b6040518060e00160405280600073ffffffffffffffffffffffffffffffffffffffff1681526020016000815260200160608152602001606081526020016060815260200160608152602001600081525090565b828054828255906000526020600020908101928215612d4a579160200282015b82811115612d495782518260006101000a81548173ffffffffffffffffffffffffffffffffffffffff021916908373ffffffffffffffffffffffffffffffffffffffff16021790555091602001919060010190612cf1565b5b509050612d579190612e4e565b5090565b828054828255906000526020600020908101928215612d97579160200282015b82811115612d96578251825591602001919060010190612d7b565b5b509050612da49190612e4e565b5090565b82805482825590600052602060002090601f01602090048101928215612e3d5791602002820160005b83821115612e0e57835183826101000a81548160ff0219169083151502179055509260200192600101602081600001049283019260010302612dd1565b8015612e3b5782816101000a81549060ff0219169055600101602081600001049283019260010302612e0e565b505b509050612e4a9190612e4e565b5090565b5b80821115612e67576000816000905550600101612e4f565b5090565b6000612e7e612e7984613a91565b613a6c565b905082815260208101848484011115612e9657600080fd5b612ea1848285613cf5565b509392505050565b600081359050612eb88161412e565b92915050565b60008083601f840112612ed057600080fd5b8235905067ffffffffffffffff811115612ee957600080fd5b602083019150836001820283011115612f0157600080fd5b9250929050565b600082601f830112612f1957600080fd5b8135612f29848260208601612e6b565b91505092915050565b600081359050612f4181614145565b92915050565b600081519050612f5681614145565b92915050565b600060208284031215612f6e57600080fd5b6000612f7c84828501612ea9565b91505092915050565b60008060008060008060a08789031215612f9e57600080fd5b6000612fac89828a01612ea9565b9650506020612fbd89828a01612ea9565b9550506040612fce89828a01612f32565b9450506060612fdf89828a01612f32565b935050608087013567ffffffffffffffff811115612ffc57600080fd5b61300889828a01612ebe565b92509250509295509295509295565b6000806040838503121561302a57600080fd5b600061303885828601612ea9565b925050602083013567ffffffffffffffff81111561305557600080fd5b61306185828601612f08565b9150509250929050565b6000806040838503121561307e57600080fd5b600061308c85828601612ea9565b925050602061309d85828601612f32565b9150509250929050565b6000602082840312156130b957600080fd5b60006130c784828501612f32565b91505092915050565b6000602082840312156130e257600080fd5b60006130f084828501612f47565b91505092915050565b60008060006060848603121561310e57600080fd5b600061311c86828701612f32565b935050602061312d86828701612ea9565b925050604061313e86828701612f32565b9150509250925092565b600061315483836131a4565b60208301905092915050565b600061316c8383613360565b60208301905092915050565b6000613184838361359c565b905092915050565b600061319883836136fe565b60208301905092915050565b6131ad81613c6f565b82525050565b6131bc81613c5d565b82525050565b6131cb81613c5d565b82525050565b60006131dc82613b02565b6131e68185613b6d565b93506131f183613ac2565b8060005b838110156132225781516132098882613148565b975061321483613b39565b9250506001810190506131f5565b5085935050505092915050565b600061323a82613b0d565b6132448185613b7e565b935061324f83613ad2565b8060005b838110156132805781516132678882613160565b975061327283613b46565b925050600181019050613253565b5085935050505092915050565b600061329882613b18565b6132a28185613b8f565b9350836020820285016132b485613ae2565b8060005b858110156132f057848403895281516132d18582613178565b94506132dc83613b53565b925060208a019950506001810190506132b8565b50829750879550505050505092915050565b600061330d82613b23565b6133178185613ba0565b935061332283613af2565b8060005b8381101561335357815161333a888261318c565b975061334583613b60565b925050600181019050613326565b5085935050505092915050565b61336981613c81565b82525050565b61337881613c81565b82525050565b61338781613c8d565b82525050565b61339681613ce3565b82525050565b60006133a782613b2e565b6133b18185613bc2565b93506133c1818560208601613d04565b6133ca81613e70565b840191505092915050565b60006133e2600783613bc2565b91506133ed82613e81565b602082019050919050565b6000613405601b83613bc2565b915061341082613eaa565b602082019050919050565b6000613428601083613bc2565b915061343382613ed3565b602082019050919050565b600061344b602d83613bc2565b915061345682613efc565b604082019050919050565b600061346e602483613bc2565b915061347982613f4b565b604082019050919050565b6000613491602283613bc2565b915061349c82613f9a565b604082019050919050565b60006134b4601b83613bc2565b91506134bf82613fe9565b602082019050919050565b60006134d7600083613bb1565b91506134e282614012565b600082019050919050565b60006134fa602483613bc2565b915061350582614015565b604082019050919050565b600061351d603083613bc2565b915061352882614064565b604082019050919050565b6000613540600c83613bc2565b915061354b826140b3565b602082019050919050565b6000613563601f83613bc2565b915061356e826140dc565b602082019050919050565b6000613586600c83613bc2565b915061359182614105565b602082019050919050565b600060e0830160008301516135b460008601826131b3565b5060208301516135c760208601826136fe565b50604083015184820360408601526135df82826131d1565b915050606083015184820360608601526135f982826131d1565b915050608083015184820360808601526136138282613302565b91505060a083015184820360a086015261362d828261322f565b91505060c083015161364260c08601826136fe565b508091505092915050565b600060e08301600083015161366560008601826131b3565b50602083015161367860208601826136fe565b506040830151848203604086015261369082826131d1565b915050606083015184820360608601526136aa82826131d1565b915050608083015184820360808601526136c48282613302565b91505060a083015184820360a08601526136de828261322f565b91505060c08301516136f360c08601826136fe565b508091505092915050565b61370781613cd9565b82525050565b61371681613cd9565b82525050565b600060208201905061373160008301846131c2565b92915050565b600060808201905061374c60008301876131c2565b61375960208301866131c2565b613766604083018561370d565b613773606083018461338d565b95945050505050565b600060a08201905061379160008301876131c2565b61379e60208301866131c2565b6137ab604083018561370d565b6137b8606083018461338d565b81810360808301526137c9816134ca565b905095945050505050565b60006040820190506137e960008301856131c2565b81810360208301526137fb818461339c565b90509392505050565b600060a08201905061381960008301886131c2565b613826602083018761370d565b61383360408301866131c2565b61384060608301856131c2565b61384d608083018461370d565b9695505050505050565b60006020820190508181036000830152613871818461328d565b905092915050565b600060208201905061388e600083018461336f565b92915050565b60006020820190506138a9600083018461337e565b92915050565b600060208201905081810360008301526138c8816133d5565b9050919050565b600060208201905081810360008301526138e8816133f8565b9050919050565b600060208201905081810360008301526139088161341b565b9050919050565b600060208201905081810360008301526139288161343e565b9050919050565b6000602082019050818103600083015261394881613461565b9050919050565b6000602082019050818103600083015261396881613484565b9050919050565b60006020820190508181036000830152613988816134a7565b9050919050565b600060208201905081810360008301526139a8816134ed565b9050919050565b600060208201905081810360008301526139c881613510565b9050919050565b600060208201905081810360008301526139e881613533565b9050919050565b60006020820190508181036000830152613a0881613556565b9050919050565b60006020820190508181036000830152613a2881613579565b9050919050565b60006020820190508181036000830152613a49818461364d565b905092915050565b6000602082019050613a66600083018461370d565b92915050565b6000613a76613a87565b9050613a828282613d69565b919050565b6000604051905090565b600067ffffffffffffffff821115613aac57613aab613e41565b5b613ab582613e70565b9050602081019050919050565b6000819050602082019050919050565b6000819050602082019050919050565b6000819050602082019050919050565b6000819050602082019050919050565b600081519050919050565b600081519050919050565b600081519050919050565b600081519050919050565b600081519050919050565b6000602082019050919050565b6000602082019050919050565b6000602082019050919050565b6000602082019050919050565b600082825260208201905092915050565b600082825260208201905092915050565b600082825260208201905092915050565b600082825260208201905092915050565b600082825260208201905092915050565b600082825260208201905092915050565b6000613bde82613cd9565b9150613be983613cd9565b9250827fffffffffffffffffffffffffffffffffffffffffffffffffffffffffffffffff03821115613c1e57613c1d613de3565b5b828201905092915050565b6000613c3482613cd9565b9150613c3f83613cd9565b925082821015613c5257613c51613de3565b5b828203905092915050565b6000613c6882613cb9565b9050919050565b6000613c7a82613cb9565b9050919050565b60008115159050919050565b60007fffffffff0000000000000000000000000000000000000000000000000000000082169050919050565b600073ffffffffffffffffffffffffffffffffffffffff82169050919050565b6000819050919050565b6000613cee82613cd9565b9050919050565b82818337600083830152505050565b60005b83811015613d22578082015181840152602081019050613d07565b83811115613d31576000848401525b50505050565b60006002820490506001821680613d4f57607f821691505b60208210811415613d6357613d62613e12565b5b50919050565b613d7282613e70565b810181811067ffffffffffffffff82111715613d9157613d90613e41565b5b80604052505050565b6000613da582613cd9565b91507fffffffffffffffffffffffffffffffffffffffffffffffffffffffffffffffff821415613dd857613dd7613de3565b5b600182019050919050565b7f4e487b7100000000000000000000000000000000000000000000000000000000600052601160045260246000fd5b7f4e487b7100000000000000000000000000000000000000000000000000000000600052602260045260246000fd5b7f4e487b7100000000000000000000000000000000000000000000000000000000600052604160045260246000fd5b6000601f19601f8301169050919050565b7f546f6f206c6f7700000000000000000000000000000000000000000000000000600082015250565b7f436f756e7465723a2064656372656d656e74206f766572666c6f770000000000600082015250565b7f6e6f206c697374696e6720707269636500000000000000000000000000000000600082015250565b7f4f6e6c79206f776e6572206f6620746865206d61726b6574706c61636520636160008201527f6e206368616e6765207468697300000000000000000000000000000000000000602082015250565b7f4d616b65207375726520796f75206861766520746865206c697374696e67205060008201527f7269636500000000000000000000000000000000000000000000000000000000602082015250565b7f6d616b65207375726520796f752073656e64207468652065786163742070726960008201527f6365000000000000000000000000000000000000000000000000000000000000602082015250565b7f6e6f20746f6b656e207769746820746861742070726963652669640000000000600082015250565b50565b7f4164647265737320697320616c7265616479206f6e207468652077686974656c60008201527f6973742e00000000000000000000000000000000000000000000000000000000602082015250565b7f4f6e6c79206d61726b6574706c616365206f776e65722063616e20757064617460008201527f65206c697374696e672070726963652e00000000000000000000000000000000602082015250565b7f6e6f7420616e206f776e65720000000000000000000000000000000000000000600082015250565b7f5265656e7472616e637947756172643a207265656e7472616e742063616c6c00600082015250565b7f616c726561647920736f6c640000000000000000000000000000000000000000600082015250565b61413781613c5d565b811461414257600080fd5b50565b61414e81613cd9565b811461415957600080fd5b5056fea2646970667358221220a6a34c436ca33e1e491dc15e051b4cd2356f756ab001c5c91c2fef03c1b83adb64736f6c63430008010033",
  "linkReferences": {},
  "deployedLinkReferences": {}
}