{
  "_format": "hh-sol-artifact-1",
  "contractName": "Artizan1155",
  "sourceName": "contracts/Artizan1155.sol",
  "abi": [
    {
      "inputs": [
        {
          "internalType": "address",
          "name": "marketplace",
          "type": "address"
        }
      ],
      "stateMutability": "nonpayable",
      "type": "constructor"
    },
    {
      "anonymous": false,
      "inputs": [
        {
          "indexed": true,
          "internalType": "address",
          "name": "account",
          "type": "address"
        },
        {
          "indexed": true,
          "internalType": "address",
          "name": "operator",
          "type": "address"
        },
        {
          "indexed": false,
          "internalType": "bool",
          "name": "approved",
          "type": "bool"
        }
      ],
      "name": "ApprovalForAll",
      "type": "event"
    },
    {
      "anonymous": false,
      "inputs": [
        {
          "indexed": true,
          "internalType": "address",
          "name": "previousOwner",
          "type": "address"
        },
        {
          "indexed": true,
          "internalType": "address",
          "name": "newOwner",
          "type": "address"
        }
      ],
      "name": "OwnershipTransferred",
      "type": "event"
    },
    {
      "anonymous": false,
      "inputs": [
        {
          "indexed": true,
          "internalType": "address",
          "name": "operator",
          "type": "address"
        },
        {
          "indexed": true,
          "internalType": "address",
          "name": "from",
          "type": "address"
        },
        {
          "indexed": true,
          "internalType": "address",
          "name": "to",
          "type": "address"
        },
        {
          "indexed": false,
          "internalType": "uint256[]",
          "name": "ids",
          "type": "uint256[]"
        },
        {
          "indexed": false,
          "internalType": "uint256[]",
          "name": "values",
          "type": "uint256[]"
        }
      ],
      "name": "TransferBatch",
      "type": "event"
    },
    {
      "anonymous": false,
      "inputs": [
        {
          "indexed": true,
          "internalType": "address",
          "name": "operator",
          "type": "address"
        },
        {
          "indexed": true,
          "internalType": "address",
          "name": "from",
          "type": "address"
        },
        {
          "indexed": true,
          "internalType": "address",
          "name": "to",
          "type": "address"
        },
        {
          "indexed": false,
          "internalType": "uint256",
          "name": "id",
          "type": "uint256"
        },
        {
          "indexed": false,
          "internalType": "uint256",
          "name": "value",
          "type": "uint256"
        }
      ],
      "name": "TransferSingle",
      "type": "event"
    },
    {
      "anonymous": false,
      "inputs": [
        {
          "indexed": false,
          "internalType": "string",
          "name": "value",
          "type": "string"
        },
        {
          "indexed": true,
          "internalType": "uint256",
          "name": "id",
          "type": "uint256"
        }
      ],
      "name": "URI",
      "type": "event"
    },
    {
      "inputs": [
        {
          "internalType": "uint256",
          "name": "tokenId",
          "type": "uint256"
        }
      ],
      "name": "amountOf",
      "outputs": [
        {
          "internalType": "uint256",
          "name": "",
          "type": "uint256"
        }
      ],
      "stateMutability": "view",
      "type": "function"
    },
    {
      "inputs": [
        {
          "internalType": "address",
          "name": "account",
          "type": "address"
        },
        {
          "internalType": "uint256",
          "name": "id",
          "type": "uint256"
        }
      ],
      "name": "balanceOf",
      "outputs": [
        {
          "internalType": "uint256",
          "name": "",
          "type": "uint256"
        }
      ],
      "stateMutability": "view",
      "type": "function"
    },
    {
      "inputs": [
        {
          "internalType": "address[]",
          "name": "accounts",
          "type": "address[]"
        },
        {
          "internalType": "uint256[]",
          "name": "ids",
          "type": "uint256[]"
        }
      ],
      "name": "balanceOfBatch",
      "outputs": [
        {
          "internalType": "uint256[]",
          "name": "",
          "type": "uint256[]"
        }
      ],
      "stateMutability": "view",
      "type": "function"
    },
    {
      "inputs": [
        {
          "internalType": "address",
          "name": "account",
          "type": "address"
        },
        {
          "internalType": "address",
          "name": "operator",
          "type": "address"
        }
      ],
      "name": "isApprovedForAll",
      "outputs": [
        {
          "internalType": "bool",
          "name": "",
          "type": "bool"
        }
      ],
      "stateMutability": "view",
      "type": "function"
    },
    {
      "inputs": [
        {
          "internalType": "string",
          "name": "_tokenURI",
          "type": "string"
        },
        {
          "internalType": "uint256",
          "name": "amount",
          "type": "uint256"
        }
      ],
      "name": "mintNFT",
      "outputs": [
        {
          "internalType": "uint256",
          "name": "",
          "type": "uint256"
        }
      ],
      "stateMutability": "nonpayable",
      "type": "function"
    },
    {
      "inputs": [],
      "name": "owner",
      "outputs": [
        {
          "internalType": "address",
          "name": "",
          "type": "address"
        }
      ],
      "stateMutability": "view",
      "type": "function"
    },
    {
      "inputs": [],
      "name": "renounceOwnership",
      "outputs": [],
      "stateMutability": "nonpayable",
      "type": "function"
    },
    {
      "inputs": [
        {
          "internalType": "address",
          "name": "from",
          "type": "address"
        },
        {
          "internalType": "address",
          "name": "to",
          "type": "address"
        },
        {
          "internalType": "uint256[]",
          "name": "ids",
          "type": "uint256[]"
        },
        {
          "internalType": "uint256[]",
          "name": "amounts",
          "type": "uint256[]"
        },
        {
          "internalType": "bytes",
          "name": "data",
          "type": "bytes"
        }
      ],
      "name": "safeBatchTransferFrom",
      "outputs": [],
      "stateMutability": "nonpayable",
      "type": "function"
    },
    {
      "inputs": [
        {
          "internalType": "address",
          "name": "from",
          "type": "address"
        },
        {
          "internalType": "address",
          "name": "to",
          "type": "address"
        },
        {
          "internalType": "uint256",
          "name": "id",
          "type": "uint256"
        },
        {
          "internalType": "uint256",
          "name": "amount",
          "type": "uint256"
        },
        {
          "internalType": "bytes",
          "name": "data",
          "type": "bytes"
        }
      ],
      "name": "safeTransferFrom",
      "outputs": [],
      "stateMutability": "nonpayable",
      "type": "function"
    },
    {
      "inputs": [
        {
          "internalType": "address",
          "name": "operator",
          "type": "address"
        },
        {
          "internalType": "bool",
          "name": "approved",
          "type": "bool"
        }
      ],
      "name": "setApprovalForAll",
      "outputs": [],
      "stateMutability": "nonpayable",
      "type": "function"
    },
    {
      "inputs": [
        {
          "internalType": "bytes4",
          "name": "interfaceId",
          "type": "bytes4"
        }
      ],
      "name": "supportsInterface",
      "outputs": [
        {
          "internalType": "bool",
          "name": "",
          "type": "bool"
        }
      ],
      "stateMutability": "view",
      "type": "function"
    },
    {
      "inputs": [
        {
          "internalType": "address",
          "name": "newOwner",
          "type": "address"
        }
      ],
      "name": "transferOwnership",
      "outputs": [],
      "stateMutability": "nonpayable",
      "type": "function"
    },
    {
      "inputs": [
        {
          "internalType": "address",
          "name": "from",
          "type": "address"
        },
        {
          "internalType": "address",
          "name": "to",
          "type": "address"
        },
        {
          "internalType": "uint256",
          "name": "tokenId",
          "type": "uint256"
        },
        {
          "internalType": "uint256",
          "name": "amount",
          "type": "uint256"
        }
      ],
      "name": "transferToken",
      "outputs": [],
      "stateMutability": "nonpayable",
      "type": "function"
    },
    {
      "inputs": [
        {
          "internalType": "uint256",
          "name": "tokenId",
          "type": "uint256"
        }
      ],
      "name": "uri",
      "outputs": [
        {
          "internalType": "string",
          "name": "",
          "type": "string"
        }
      ],
      "stateMutability": "view",
      "type": "function"
    }
  ],
  "bytecode": "0x60806040523480156200001157600080fd5b506040516200352e3803806200352e833981810160405281019062000037919062000298565b6040518060400160405280600681526020017f415a3131353500000000000000000000000000000000000000000000000000008152506200007e81620000e760201b60201c565b506200009f620000936200010360201b60201c565b6200010b60201b60201c565b80600560006101000a81548173ffffffffffffffffffffffffffffffffffffffff021916908373ffffffffffffffffffffffffffffffffffffffff1602179055505062000377565b8060029080519060200190620000ff929190620001d1565b5050565b600033905090565b6000600360009054906101000a900473ffffffffffffffffffffffffffffffffffffffff16905081600360006101000a81548173ffffffffffffffffffffffffffffffffffffffff021916908373ffffffffffffffffffffffffffffffffffffffff1602179055508173ffffffffffffffffffffffffffffffffffffffff168173ffffffffffffffffffffffffffffffffffffffff167f8be0079c531659141344cd1fd0a4f28419497f9722a3daafe3b4186f6b6457e060405160405180910390a35050565b828054620001df90620002f8565b90600052602060002090601f0160209004810192826200020357600085556200024f565b82601f106200021e57805160ff19168380011785556200024f565b828001600101855582156200024f579182015b828111156200024e57825182559160200191906001019062000231565b5b5090506200025e919062000262565b5090565b5b808211156200027d57600081600090555060010162000263565b5090565b60008151905062000292816200035d565b92915050565b600060208284031215620002ab57600080fd5b6000620002bb8482850162000281565b91505092915050565b6000620002d182620002d8565b9050919050565b600073ffffffffffffffffffffffffffffffffffffffff82169050919050565b600060028204905060018216806200031157607f821691505b602082108114156200032857620003276200032e565b5b50919050565b7f4e487b7100000000000000000000000000000000000000000000000000000000600052602260045260246000fd5b6200036881620002c4565b81146200037457600080fd5b50565b6131a780620003876000396000f3fe608060405234801561001057600080fd5b50600436106100e95760003560e01c8063715018a61161008c578063e8eb228411610066578063e8eb22841461025a578063e985e9c51461028a578063f242432a146102ba578063f2fde38b146102d6576100e9565b8063715018a6146102165780638da5cb5b14610220578063a22cb4651461023e576100e9565b80630e89341c116100c85780630e89341c1461016a5780632eb2c2d61461019a5780634e1273f4146101b65780635afa3a72146101e6576100e9565b8062fdd58e146100ee57806301ffc9a71461011e578063036ebef91461014e575b600080fd5b61010860048036038101906101039190612082565b6102f2565b604051610115919061283a565b60405180910390f35b6101386004803603810190610133919061212a565b6103bb565b604051610145919061263d565b60405180910390f35b61016860048036038101906101639190611f54565b61049d565b005b610184600480360381019061017f91906121d0565b61050c565b6040516101919190612658565b60405180910390f35b6101b460048036038101906101af9190611e95565b6105b1565b005b6101d060048036038101906101cb91906120be565b610652565b6040516101dd91906125e4565b60405180910390f35b61020060048036038101906101fb919061217c565b610803565b60405161020d919061283a565b60405180910390f35b61021e610883565b005b61022861090b565b6040516102359190612507565b60405180910390f35b61025860048036038101906102539190612046565b610935565b005b610274600480360381019061026f91906121d0565b61094b565b604051610281919061283a565b60405180910390f35b6102a4600480360381019061029f9190611e59565b610968565b6040516102b1919061263d565b60405180910390f35b6102d460048036038101906102cf9190611fb7565b6109fc565b005b6102f060048036038101906102eb9190611e30565b610a9d565b005b60008073ffffffffffffffffffffffffffffffffffffffff168373ffffffffffffffffffffffffffffffffffffffff161415610363576040517f08c379a000000000000000000000000000000000000000000000000000000000815260040161035a906126ba565b60405180910390fd5b60008083815260200190815260200160002060008473ffffffffffffffffffffffffffffffffffffffff1673ffffffffffffffffffffffffffffffffffffffff16815260200190815260200160002054905092915050565b60007fd9b67a26000000000000000000000000000000000000000000000000000000007bffffffffffffffffffffffffffffffffffffffffffffffffffffffff1916827bffffffffffffffffffffffffffffffffffffffffffffffffffffffff1916148061048657507f0e89341c000000000000000000000000000000000000000000000000000000007bffffffffffffffffffffffffffffffffffffffffffffffffffffffff1916827bffffffffffffffffffffffffffffffffffffffffffffffffffffffff1916145b80610496575061049582610b95565b5b9050919050565b60016104a985846102f2565b10156104ea576040517f08c379a00000000000000000000000000000000000000000000000000000000081526004016104e19061275a565b60405180910390fd5b61050684848484604051806020016040528060008152506109fc565b50505050565b606060066000838152602001908152602001600020805461052c90612ada565b80601f016020809104026020016040519081016040528092919081815260200182805461055890612ada565b80156105a55780601f1061057a576101008083540402835291602001916105a5565b820191906000526020600020905b81548152906001019060200180831161058857829003601f168201915b50505050509050919050565b6105b9610bff565b73ffffffffffffffffffffffffffffffffffffffff168573ffffffffffffffffffffffffffffffffffffffff1614806105ff57506105fe856105f9610bff565b610968565b5b61063e576040517f08c379a00000000000000000000000000000000000000000000000000000000081526004016106359061273a565b60405180910390fd5b61064b8585858585610c07565b5050505050565b60608151835114610698576040517f08c379a000000000000000000000000000000000000000000000000000000000815260040161068f906127da565b60405180910390fd5b6000835167ffffffffffffffff8111156106db577f4e487b7100000000000000000000000000000000000000000000000000000000600052604160045260246000fd5b6040519080825280602002602001820160405280156107095781602001602082028036833780820191505090505b50905060005b84518110156107f8576107a2858281518110610754577f4e487b7100000000000000000000000000000000000000000000000000000000600052603260045260246000fd5b6020026020010151858381518110610795577f4e487b7100000000000000000000000000000000000000000000000000000000600052603260045260246000fd5b60200260200101516102f2565b8282815181106107db577f4e487b7100000000000000000000000000000000000000000000000000000000600052603260045260246000fd5b602002602001018181525050806107f190612b3d565b905061070f565b508091505092915050565b600061080f6004610f75565b600061081b6004610f8b565b905061083833828560405180602001604052806000815250610f99565b610842818561114a565b61084c8184611176565b610879600560009054906101000a900473ffffffffffffffffffffffffffffffffffffffff166001610935565b8091505092915050565b61088b610bff565b73ffffffffffffffffffffffffffffffffffffffff166108a961090b565b73ffffffffffffffffffffffffffffffffffffffff16146108ff576040517f08c379a00000000000000000000000000000000000000000000000000000000081526004016108f69061279a565b60405180910390fd5b6109096000611192565b565b6000600360009054906101000a900473ffffffffffffffffffffffffffffffffffffffff16905090565b610947610940610bff565b8383611258565b5050565b600060076000838152602001908152602001600020549050919050565b6000600160008473ffffffffffffffffffffffffffffffffffffffff1673ffffffffffffffffffffffffffffffffffffffff16815260200190815260200160002060008373ffffffffffffffffffffffffffffffffffffffff1673ffffffffffffffffffffffffffffffffffffffff16815260200190815260200160002060009054906101000a900460ff16905092915050565b610a04610bff565b73ffffffffffffffffffffffffffffffffffffffff168573ffffffffffffffffffffffffffffffffffffffff161480610a4a5750610a4985610a44610bff565b610968565b5b610a89576040517f08c379a0000000000000000000000000000000000000000000000000000000008152600401610a80906126fa565b60405180910390fd5b610a9685858585856113c5565b5050505050565b610aa5610bff565b73ffffffffffffffffffffffffffffffffffffffff16610ac361090b565b73ffffffffffffffffffffffffffffffffffffffff1614610b19576040517f08c379a0000000000000000000000000000000000000000000000000000000008152600401610b109061279a565b60405180910390fd5b600073ffffffffffffffffffffffffffffffffffffffff168173ffffffffffffffffffffffffffffffffffffffff161415610b89576040517f08c379a0000000000000000000000000000000000000000000000000000000008152600401610b80906126da565b60405180910390fd5b610b9281611192565b50565b60007f01ffc9a7000000000000000000000000000000000000000000000000000000007bffffffffffffffffffffffffffffffffffffffffffffffffffffffff1916827bffffffffffffffffffffffffffffffffffffffffffffffffffffffff1916149050919050565b600033905090565b8151835114610c4b576040517f08c379a0000000000000000000000000000000000000000000000000000000008152600401610c42906127fa565b60405180910390fd5b600073ffffffffffffffffffffffffffffffffffffffff168473ffffffffffffffffffffffffffffffffffffffff161415610cbb576040517f08c379a0000000000000000000000000000000000000000000000000000000008152600401610cb29061271a565b60405180910390fd5b6000610cc5610bff565b9050610cd5818787878787611661565b60005b8451811015610ed2576000858281518110610d1c577f4e487b7100000000000000000000000000000000000000000000000000000000600052603260045260246000fd5b602002602001015190506000858381518110610d61577f4e487b7100000000000000000000000000000000000000000000000000000000600052603260045260246000fd5b60200260200101519050600080600084815260200190815260200160002060008b73ffffffffffffffffffffffffffffffffffffffff1673ffffffffffffffffffffffffffffffffffffffff16815260200190815260200160002054905081811015610e02576040517f08c379a0000000000000000000000000000000000000000000000000000000008152600401610df99061277a565b60405180910390fd5b81810360008085815260200190815260200160002060008c73ffffffffffffffffffffffffffffffffffffffff1673ffffffffffffffffffffffffffffffffffffffff168152602001908152602001600020819055508160008085815260200190815260200160002060008b73ffffffffffffffffffffffffffffffffffffffff1673ffffffffffffffffffffffffffffffffffffffff1681526020019081526020016000206000828254610eb791906129ce565b9250508190555050505080610ecb90612b3d565b9050610cd8565b508473ffffffffffffffffffffffffffffffffffffffff168673ffffffffffffffffffffffffffffffffffffffff168273ffffffffffffffffffffffffffffffffffffffff167f4a39dc06d4c0dbc64b70af90fd698a233a518aa5d07e595d983b8c0526c8f7fb8787604051610f49929190612606565b60405180910390a4610f5f818787878787611669565b610f6d818787878787611671565b505050505050565b6001816000016000828254019250508190555050565b600081600001549050919050565b600073ffffffffffffffffffffffffffffffffffffffff168473ffffffffffffffffffffffffffffffffffffffff161415611009576040517f08c379a00000000000000000000000000000000000000000000000000000000081526004016110009061281a565b60405180910390fd5b6000611013610bff565b9050600061102085611858565b9050600061102d85611858565b905061103e83600089858589611661565b8460008088815260200190815260200160002060008973ffffffffffffffffffffffffffffffffffffffff1673ffffffffffffffffffffffffffffffffffffffff168152602001908152602001600020600082825461109d91906129ce565b925050819055508673ffffffffffffffffffffffffffffffffffffffff16600073ffffffffffffffffffffffffffffffffffffffff168473ffffffffffffffffffffffffffffffffffffffff167fc3d58168c5ae7397731d063d5bbf3d657854427343f4c083240f7aacaa2d0f62898960405161111b929190612855565b60405180910390a461113283600089858589611669565b6111418360008989898961191e565b50505050505050565b80600660008481526020019081526020016000209080519060200190611171929190611b28565b505050565b8060076000848152602001908152602001600020819055505050565b6000600360009054906101000a900473ffffffffffffffffffffffffffffffffffffffff16905081600360006101000a81548173ffffffffffffffffffffffffffffffffffffffff021916908373ffffffffffffffffffffffffffffffffffffffff1602179055508173ffffffffffffffffffffffffffffffffffffffff168173ffffffffffffffffffffffffffffffffffffffff167f8be0079c531659141344cd1fd0a4f28419497f9722a3daafe3b4186f6b6457e060405160405180910390a35050565b8173ffffffffffffffffffffffffffffffffffffffff168373ffffffffffffffffffffffffffffffffffffffff1614156112c7576040517f08c379a00000000000000000000000000000000000000000000000000000000081526004016112be906127ba565b60405180910390fd5b80600160008573ffffffffffffffffffffffffffffffffffffffff1673ffffffffffffffffffffffffffffffffffffffff16815260200190815260200160002060008473ffffffffffffffffffffffffffffffffffffffff1673ffffffffffffffffffffffffffffffffffffffff16815260200190815260200160002060006101000a81548160ff0219169083151502179055508173ffffffffffffffffffffffffffffffffffffffff168373ffffffffffffffffffffffffffffffffffffffff167f17307eab39ab6107e8899845ad3d59bd9653f200f220920489ca2b5937696c31836040516113b8919061263d565b60405180910390a3505050565b600073ffffffffffffffffffffffffffffffffffffffff168473ffffffffffffffffffffffffffffffffffffffff161415611435576040517f08c379a000000000000000000000000000000000000000000000000000000000815260040161142c9061271a565b60405180910390fd5b600061143f610bff565b9050600061144c85611858565b9050600061145985611858565b9050611469838989858589611661565b600080600088815260200190815260200160002060008a73ffffffffffffffffffffffffffffffffffffffff1673ffffffffffffffffffffffffffffffffffffffff16815260200190815260200160002054905085811015611500576040517f08c379a00000000000000000000000000000000000000000000000000000000081526004016114f79061277a565b60405180910390fd5b85810360008089815260200190815260200160002060008b73ffffffffffffffffffffffffffffffffffffffff1673ffffffffffffffffffffffffffffffffffffffff168152602001908152602001600020819055508560008089815260200190815260200160002060008a73ffffffffffffffffffffffffffffffffffffffff1673ffffffffffffffffffffffffffffffffffffffff16815260200190815260200160002060008282546115b591906129ce565b925050819055508773ffffffffffffffffffffffffffffffffffffffff168973ffffffffffffffffffffffffffffffffffffffff168573ffffffffffffffffffffffffffffffffffffffff167fc3d58168c5ae7397731d063d5bbf3d657854427343f4c083240f7aacaa2d0f628a8a604051611632929190612855565b60405180910390a4611648848a8a86868a611669565b611656848a8a8a8a8a61191e565b505050505050505050565b505050505050565b505050505050565b6116908473ffffffffffffffffffffffffffffffffffffffff16611b05565b15611850578373ffffffffffffffffffffffffffffffffffffffff1663bc197c8187878686866040518663ffffffff1660e01b81526004016116d6959493929190612522565b602060405180830381600087803b1580156116f057600080fd5b505af192505050801561172157506040513d601f19601f8201168201806040525081019061171e9190612153565b60015b6117c75761172d612c13565b806308c379a0141561178a575061174261307f565b8061174d575061178c565b806040517f08c379a00000000000000000000000000000000000000000000000000000000081526004016117819190612658565b60405180910390fd5b505b6040517f08c379a00000000000000000000000000000000000000000000000000000000081526004016117be9061267a565b60405180910390fd5b63bc197c8160e01b7bffffffffffffffffffffffffffffffffffffffffffffffffffffffff1916817bffffffffffffffffffffffffffffffffffffffffffffffffffffffff19161461184e576040517f08c379a00000000000000000000000000000000000000000000000000000000081526004016118459061269a565b60405180910390fd5b505b505050505050565b60606000600167ffffffffffffffff81111561189d577f4e487b7100000000000000000000000000000000000000000000000000000000600052604160045260246000fd5b6040519080825280602002602001820160405280156118cb5781602001602082028036833780820191505090505b5090508281600081518110611909577f4e487b7100000000000000000000000000000000000000000000000000000000600052603260045260246000fd5b60200260200101818152505080915050919050565b61193d8473ffffffffffffffffffffffffffffffffffffffff16611b05565b15611afd578373ffffffffffffffffffffffffffffffffffffffff1663f23a6e6187878686866040518663ffffffff1660e01b815260040161198395949392919061258a565b602060405180830381600087803b15801561199d57600080fd5b505af19250505080156119ce57506040513d601f19601f820116820180604052508101906119cb9190612153565b60015b611a74576119da612c13565b806308c379a01415611a3757506119ef61307f565b806119fa5750611a39565b806040517f08c379a0000000000000000000000000000000000000000000000000000000008152600401611a2e9190612658565b60405180910390fd5b505b6040517f08c379a0000000000000000000000000000000000000000000000000000000008152600401611a6b9061267a565b60405180910390fd5b63f23a6e6160e01b7bffffffffffffffffffffffffffffffffffffffffffffffffffffffff1916817bffffffffffffffffffffffffffffffffffffffffffffffffffffffff191614611afb576040517f08c379a0000000000000000000000000000000000000000000000000000000008152600401611af29061269a565b60405180910390fd5b505b505050505050565b6000808273ffffffffffffffffffffffffffffffffffffffff163b119050919050565b828054611b3490612ada565b90600052602060002090601f016020900481019282611b565760008555611b9d565b82601f10611b6f57805160ff1916838001178555611b9d565b82800160010185558215611b9d579182015b82811115611b9c578251825591602001919060010190611b81565b5b509050611baa9190611bae565b5090565b5b80821115611bc7576000816000905550600101611baf565b5090565b6000611bde611bd9846128a3565b61287e565b90508083825260208201905082856020860282011115611bfd57600080fd5b60005b85811015611c2d5781611c138882611d1f565b845260208401935060208301925050600181019050611c00565b5050509392505050565b6000611c4a611c45846128cf565b61287e565b90508083825260208201905082856020860282011115611c6957600080fd5b60005b85811015611c995781611c7f8882611e1b565b845260208401935060208301925050600181019050611c6c565b5050509392505050565b6000611cb6611cb1846128fb565b61287e565b905082815260208101848484011115611cce57600080fd5b611cd9848285612a98565b509392505050565b6000611cf4611cef8461292c565b61287e565b905082815260208101848484011115611d0c57600080fd5b611d17848285612a98565b509392505050565b600081359050611d2e81613115565b92915050565b600082601f830112611d4557600080fd5b8135611d55848260208601611bcb565b91505092915050565b600082601f830112611d6f57600080fd5b8135611d7f848260208601611c37565b91505092915050565b600081359050611d978161312c565b92915050565b600081359050611dac81613143565b92915050565b600081519050611dc181613143565b92915050565b600082601f830112611dd857600080fd5b8135611de8848260208601611ca3565b91505092915050565b600082601f830112611e0257600080fd5b8135611e12848260208601611ce1565b91505092915050565b600081359050611e2a8161315a565b92915050565b600060208284031215611e4257600080fd5b6000611e5084828501611d1f565b91505092915050565b60008060408385031215611e6c57600080fd5b6000611e7a85828601611d1f565b9250506020611e8b85828601611d1f565b9150509250929050565b600080600080600060a08688031215611ead57600080fd5b6000611ebb88828901611d1f565b9550506020611ecc88828901611d1f565b945050604086013567ffffffffffffffff811115611ee957600080fd5b611ef588828901611d5e565b935050606086013567ffffffffffffffff811115611f1257600080fd5b611f1e88828901611d5e565b925050608086013567ffffffffffffffff811115611f3b57600080fd5b611f4788828901611dc7565b9150509295509295909350565b60008060008060808587031215611f6a57600080fd5b6000611f7887828801611d1f565b9450506020611f8987828801611d1f565b9350506040611f9a87828801611e1b565b9250506060611fab87828801611e1b565b91505092959194509250565b600080600080600060a08688031215611fcf57600080fd5b6000611fdd88828901611d1f565b9550506020611fee88828901611d1f565b9450506040611fff88828901611e1b565b935050606061201088828901611e1b565b925050608086013567ffffffffffffffff81111561202d57600080fd5b61203988828901611dc7565b9150509295509295909350565b6000806040838503121561205957600080fd5b600061206785828601611d1f565b925050602061207885828601611d88565b9150509250929050565b6000806040838503121561209557600080fd5b60006120a385828601611d1f565b92505060206120b485828601611e1b565b9150509250929050565b600080604083850312156120d157600080fd5b600083013567ffffffffffffffff8111156120eb57600080fd5b6120f785828601611d34565b925050602083013567ffffffffffffffff81111561211457600080fd5b61212085828601611d5e565b9150509250929050565b60006020828403121561213c57600080fd5b600061214a84828501611d9d565b91505092915050565b60006020828403121561216557600080fd5b600061217384828501611db2565b91505092915050565b6000806040838503121561218f57600080fd5b600083013567ffffffffffffffff8111156121a957600080fd5b6121b585828601611df1565b92505060206121c685828601611e1b565b9150509250929050565b6000602082840312156121e257600080fd5b60006121f084828501611e1b565b91505092915050565b600061220583836124e9565b60208301905092915050565b61221a81612a24565b82525050565b600061222b8261296d565b612235818561299b565b93506122408361295d565b8060005b8381101561227157815161225888826121f9565b97506122638361298e565b925050600181019050612244565b5085935050505092915050565b61228781612a36565b82525050565b600061229882612978565b6122a281856129ac565b93506122b2818560208601612aa7565b6122bb81612c35565b840191505092915050565b60006122d182612983565b6122db81856129bd565b93506122eb818560208601612aa7565b6122f481612c35565b840191505092915050565b600061230c6034836129bd565b915061231782612c53565b604082019050919050565b600061232f6028836129bd565b915061233a82612ca2565b604082019050919050565b6000612352602b836129bd565b915061235d82612cf1565b604082019050919050565b60006123756026836129bd565b915061238082612d40565b604082019050919050565b60006123986029836129bd565b91506123a382612d8f565b604082019050919050565b60006123bb6025836129bd565b91506123c682612dde565b604082019050919050565b60006123de6032836129bd565b91506123e982612e2d565b604082019050919050565b60006124016024836129bd565b915061240c82612e7c565b604082019050919050565b6000612424602a836129bd565b915061242f82612ecb565b604082019050919050565b60006124476020836129bd565b915061245282612f1a565b602082019050919050565b600061246a6029836129bd565b915061247582612f43565b604082019050919050565b600061248d6029836129bd565b915061249882612f92565b604082019050919050565b60006124b06028836129bd565b91506124bb82612fe1565b604082019050919050565b60006124d36021836129bd565b91506124de82613030565b604082019050919050565b6124f281612a8e565b82525050565b61250181612a8e565b82525050565b600060208201905061251c6000830184612211565b92915050565b600060a0820190506125376000830188612211565b6125446020830187612211565b81810360408301526125568186612220565b9050818103606083015261256a8185612220565b9050818103608083015261257e818461228d565b90509695505050505050565b600060a08201905061259f6000830188612211565b6125ac6020830187612211565b6125b960408301866124f8565b6125c660608301856124f8565b81810360808301526125d8818461228d565b90509695505050505050565b600060208201905081810360008301526125fe8184612220565b905092915050565b600060408201905081810360008301526126208185612220565b905081810360208301526126348184612220565b90509392505050565b6000602082019050612652600083018461227e565b92915050565b6000602082019050818103600083015261267281846122c6565b905092915050565b60006020820190508181036000830152612693816122ff565b9050919050565b600060208201905081810360008301526126b381612322565b9050919050565b600060208201905081810360008301526126d381612345565b9050919050565b600060208201905081810360008301526126f381612368565b9050919050565b600060208201905081810360008301526127138161238b565b9050919050565b60006020820190508181036000830152612733816123ae565b9050919050565b60006020820190508181036000830152612753816123d1565b9050919050565b60006020820190508181036000830152612773816123f4565b9050919050565b6000602082019050818103600083015261279381612417565b9050919050565b600060208201905081810360008301526127b38161243a565b9050919050565b600060208201905081810360008301526127d38161245d565b9050919050565b600060208201905081810360008301526127f381612480565b9050919050565b60006020820190508181036000830152612813816124a3565b9050919050565b60006020820190508181036000830152612833816124c6565b9050919050565b600060208201905061284f60008301846124f8565b92915050565b600060408201905061286a60008301856124f8565b61287760208301846124f8565b9392505050565b6000612888612899565b90506128948282612b0c565b919050565b6000604051905090565b600067ffffffffffffffff8211156128be576128bd612be4565b5b602082029050602081019050919050565b600067ffffffffffffffff8211156128ea576128e9612be4565b5b602082029050602081019050919050565b600067ffffffffffffffff82111561291657612915612be4565b5b61291f82612c35565b9050602081019050919050565b600067ffffffffffffffff82111561294757612946612be4565b5b61295082612c35565b9050602081019050919050565b6000819050602082019050919050565b600081519050919050565b600081519050919050565b600081519050919050565b6000602082019050919050565b600082825260208201905092915050565b600082825260208201905092915050565b600082825260208201905092915050565b60006129d982612a8e565b91506129e483612a8e565b9250827fffffffffffffffffffffffffffffffffffffffffffffffffffffffffffffffff03821115612a1957612a18612b86565b5b828201905092915050565b6000612a2f82612a6e565b9050919050565b60008115159050919050565b60007fffffffff0000000000000000000000000000000000000000000000000000000082169050919050565b600073ffffffffffffffffffffffffffffffffffffffff82169050919050565b6000819050919050565b82818337600083830152505050565b60005b83811015612ac5578082015181840152602081019050612aaa565b83811115612ad4576000848401525b50505050565b60006002820490506001821680612af257607f821691505b60208210811415612b0657612b05612bb5565b5b50919050565b612b1582612c35565b810181811067ffffffffffffffff82111715612b3457612b33612be4565b5b80604052505050565b6000612b4882612a8e565b91507fffffffffffffffffffffffffffffffffffffffffffffffffffffffffffffffff821415612b7b57612b7a612b86565b5b600182019050919050565b7f4e487b7100000000000000000000000000000000000000000000000000000000600052601160045260246000fd5b7f4e487b7100000000000000000000000000000000000000000000000000000000600052602260045260246000fd5b7f4e487b7100000000000000000000000000000000000000000000000000000000600052604160045260246000fd5b600060033d1115612c325760046000803e612c2f600051612c46565b90505b90565b6000601f19601f8301169050919050565b60008160e01c9050919050565b7f455243313135353a207472616e7366657220746f206e6f6e204552433131353560008201527f526563656976657220696d706c656d656e746572000000000000000000000000602082015250565b7f455243313135353a204552433131353552656365697665722072656a6563746560008201527f6420746f6b656e73000000000000000000000000000000000000000000000000602082015250565b7f455243313135353a2062616c616e636520717565727920666f7220746865207a60008201527f65726f2061646472657373000000000000000000000000000000000000000000602082015250565b7f4f776e61626c653a206e6577206f776e657220697320746865207a65726f206160008201527f6464726573730000000000000000000000000000000000000000000000000000602082015250565b7f455243313135353a2063616c6c6572206973206e6f74206f776e6572206e6f7260008201527f20617070726f7665640000000000000000000000000000000000000000000000602082015250565b7f455243313135353a207472616e7366657220746f20746865207a65726f20616460008201527f6472657373000000000000000000000000000000000000000000000000000000602082015250565b7f455243313135353a207472616e736665722063616c6c6572206973206e6f742060008201527f6f776e6572206e6f7220617070726f7665640000000000000000000000000000602082015250565b7f46726f6d2061646472657373206d7573742068617665207468617420746f6b6560008201527f6e20696400000000000000000000000000000000000000000000000000000000602082015250565b7f455243313135353a20696e73756666696369656e742062616c616e636520666f60008201527f72207472616e7366657200000000000000000000000000000000000000000000602082015250565b7f4f776e61626c653a2063616c6c6572206973206e6f7420746865206f776e6572600082015250565b7f455243313135353a2073657474696e6720617070726f76616c2073746174757360008201527f20666f722073656c660000000000000000000000000000000000000000000000602082015250565b7f455243313135353a206163636f756e747320616e6420696473206c656e67746860008201527f206d69736d617463680000000000000000000000000000000000000000000000602082015250565b7f455243313135353a2069647320616e6420616d6f756e7473206c656e6774682060008201527f6d69736d61746368000000000000000000000000000000000000000000000000602082015250565b7f455243313135353a206d696e7420746f20746865207a65726f2061646472657360008201527f7300000000000000000000000000000000000000000000000000000000000000602082015250565b600060443d101561308f57613112565b613097612899565b60043d036004823e80513d602482011167ffffffffffffffff821117156130bf575050613112565b808201805167ffffffffffffffff8111156130dd5750505050613112565b80602083010160043d0385018111156130fa575050505050613112565b61310982602001850186612b0c565b82955050505050505b90565b61311e81612a24565b811461312957600080fd5b50565b61313581612a36565b811461314057600080fd5b50565b61314c81612a42565b811461315757600080fd5b50565b61316381612a8e565b811461316e57600080fd5b5056fea2646970667358221220f51f1d70df59be5672b1e34e1142a40bf7f71cdd51a72de04f6f2e817ec972f864736f6c63430008010033",
  "linkReferences": {},
  "deployedLinkReferences": {}
}