{
  "_format": "hh-sol-artifact-1",
  "contractName": "ArtizanAuction",
  "sourceName": "contracts/ArtizanAuction.sol",
  "abi": [
    {
      "inputs": [],
      "stateMutability": "nonpayable",
      "type": "constructor"
    },
    {
      "anonymous": false,
      "inputs": [
        {
          "indexed": true,
          "internalType": "address",
          "name": "sender",
          "type": "address"
        },
        {
          "indexed": false,
          "internalType": "uint256",
          "name": "amount",
          "type": "uint256"
        }
      ],
      "name": "Bid",
      "type": "event"
    },
    {
      "anonymous": false,
      "inputs": [
        {
          "indexed": false,
          "internalType": "address",
          "name": "winner",
          "type": "address"
        },
        {
          "indexed": false,
          "internalType": "uint256",
          "name": "amount",
          "type": "uint256"
        }
      ],
      "name": "End",
      "type": "event"
    },
    {
      "anonymous": false,
      "inputs": [],
      "name": "Start",
      "type": "event"
    },
    {
      "anonymous": false,
      "inputs": [
        {
          "indexed": true,
          "internalType": "address",
          "name": "bidder",
          "type": "address"
        },
        {
          "indexed": false,
          "internalType": "uint256",
          "name": "amount",
          "type": "uint256"
        }
      ],
      "name": "Withdraw",
      "type": "event"
    },
    {
      "inputs": [
        {
          "internalType": "uint256",
          "name": "aID",
          "type": "uint256"
        }
      ],
      "name": "BidInfoWithBidID",
      "outputs": [
        {
          "components": [
            {
              "internalType": "address",
              "name": "nft",
              "type": "address"
            },
            {
              "internalType": "uint256",
              "name": "nftid",
              "type": "uint256"
            },
            {
              "internalType": "address payable",
              "name": "seller",
              "type": "address"
            },
            {
              "internalType": "uint256",
              "name": "endAt",
              "type": "uint256"
            },
            {
              "internalType": "bool",
              "name": "started",
              "type": "bool"
            },
            {
              "internalType": "bool",
              "name": "ended",
              "type": "bool"
            },
            {
              "internalType": "address",
              "name": "highestBidder",
              "type": "address"
            },
            {
              "internalType": "uint256",
              "name": "highestBid",
              "type": "uint256"
            },
            {
              "internalType": "uint256",
              "name": "startingPrice",
              "type": "uint256"
            }
          ],
          "internalType": "struct ArtizanAuction.AuctionInfo",
          "name": "",
          "type": "tuple"
        }
      ],
      "stateMutability": "view",
      "type": "function"
    },
    {
      "inputs": [
        {
          "internalType": "uint256",
          "name": "tokenId",
          "type": "uint256"
        }
      ],
      "name": "BidInfoWithTokenID",
      "outputs": [
        {
          "components": [
            {
              "internalType": "address",
              "name": "nft",
              "type": "address"
            },
            {
              "internalType": "uint256",
              "name": "nftid",
              "type": "uint256"
            },
            {
              "internalType": "address payable",
              "name": "seller",
              "type": "address"
            },
            {
              "internalType": "uint256",
              "name": "endAt",
              "type": "uint256"
            },
            {
              "internalType": "bool",
              "name": "started",
              "type": "bool"
            },
            {
              "internalType": "bool",
              "name": "ended",
              "type": "bool"
            },
            {
              "internalType": "address",
              "name": "highestBidder",
              "type": "address"
            },
            {
              "internalType": "uint256",
              "name": "highestBid",
              "type": "uint256"
            },
            {
              "internalType": "uint256",
              "name": "startingPrice",
              "type": "uint256"
            }
          ],
          "internalType": "struct ArtizanAuction.AuctionInfo",
          "name": "",
          "type": "tuple"
        }
      ],
      "stateMutability": "view",
      "type": "function"
    },
    {
      "inputs": [
        {
          "internalType": "address",
          "name": "NftCont",
          "type": "address"
        },
        {
          "internalType": "uint256",
          "name": "tokenId",
          "type": "uint256"
        },
        {
          "internalType": "uint256",
          "name": "startPrice",
          "type": "uint256"
        },
        {
          "internalType": "uint256",
          "name": "time",
          "type": "uint256"
        }
      ],
      "name": "createBidItem",
      "outputs": [],
      "stateMutability": "payable",
      "type": "function"
    },
    {
      "inputs": [
        {
          "internalType": "uint256",
          "name": "tokenId",
          "type": "uint256"
        },
        {
          "internalType": "address",
          "name": "nft",
          "type": "address"
        }
      ],
      "name": "finishBid",
      "outputs": [],
      "stateMutability": "nonpayable",
      "type": "function"
    },
    {
      "inputs": [
        {
          "internalType": "uint256",
          "name": "tokenId",
          "type": "uint256"
        }
      ],
      "name": "isTokenOnBid",
      "outputs": [
        {
          "internalType": "bool",
          "name": "",
          "type": "bool"
        }
      ],
      "stateMutability": "view",
      "type": "function"
    },
    {
      "inputs": [],
      "name": "listActiveBids",
      "outputs": [
        {
          "components": [
            {
              "internalType": "address",
              "name": "nft",
              "type": "address"
            },
            {
              "internalType": "uint256",
              "name": "nftid",
              "type": "uint256"
            },
            {
              "internalType": "address payable",
              "name": "seller",
              "type": "address"
            },
            {
              "internalType": "uint256",
              "name": "endAt",
              "type": "uint256"
            },
            {
              "internalType": "bool",
              "name": "started",
              "type": "bool"
            },
            {
              "internalType": "bool",
              "name": "ended",
              "type": "bool"
            },
            {
              "internalType": "address",
              "name": "highestBidder",
              "type": "address"
            },
            {
              "internalType": "uint256",
              "name": "highestBid",
              "type": "uint256"
            },
            {
              "internalType": "uint256",
              "name": "startingPrice",
              "type": "uint256"
            }
          ],
          "internalType": "struct ArtizanAuction.AuctionInfo[]",
          "name": "",
          "type": "tuple[]"
        }
      ],
      "stateMutability": "view",
      "type": "function"
    },
    {
      "inputs": [
        {
          "internalType": "uint256",
          "name": "tokenId",
          "type": "uint256"
        }
      ],
      "name": "listPrevBids",
      "outputs": [
        {
          "components": [
            {
              "internalType": "address",
              "name": "bidder",
              "type": "address"
            },
            {
              "internalType": "uint256",
              "name": "bid",
              "type": "uint256"
            },
            {
              "internalType": "bool",
              "name": "isBack",
              "type": "bool"
            }
          ],
          "internalType": "struct ArtizanAuction.prevBids[]",
          "name": "",
          "type": "tuple[]"
        }
      ],
      "stateMutability": "view",
      "type": "function"
    },
    {
      "inputs": [
        {
          "internalType": "address",
          "name": "user",
          "type": "address"
        }
      ],
      "name": "listUserActiveBid",
      "outputs": [
        {
          "components": [
            {
              "internalType": "address",
              "name": "nft",
              "type": "address"
            },
            {
              "internalType": "uint256",
              "name": "nftid",
              "type": "uint256"
            },
            {
              "internalType": "address payable",
              "name": "seller",
              "type": "address"
            },
            {
              "internalType": "uint256",
              "name": "endAt",
              "type": "uint256"
            },
            {
              "internalType": "bool",
              "name": "started",
              "type": "bool"
            },
            {
              "internalType": "bool",
              "name": "ended",
              "type": "bool"
            },
            {
              "internalType": "address",
              "name": "highestBidder",
              "type": "address"
            },
            {
              "internalType": "uint256",
              "name": "highestBid",
              "type": "uint256"
            },
            {
              "internalType": "uint256",
              "name": "startingPrice",
              "type": "uint256"
            }
          ],
          "internalType": "struct ArtizanAuction.AuctionInfo[]",
          "name": "",
          "type": "tuple[]"
        }
      ],
      "stateMutability": "view",
      "type": "function"
    },
    {
      "inputs": [
        {
          "internalType": "uint256",
          "name": "tokenId",
          "type": "uint256"
        }
      ],
      "name": "payBackPrevBids",
      "outputs": [],
      "stateMutability": "nonpayable",
      "type": "function"
    },
    {
      "inputs": [
        {
          "internalType": "uint256",
          "name": "tokenId",
          "type": "uint256"
        }
      ],
      "name": "placeBid",
      "outputs": [],
      "stateMutability": "payable",
      "type": "function"
    }
  ],
  "bytecode": "0x6080604052662386f26fc1000060025534801561001b57600080fd5b50600160008190555033600360006101000a81548173ffffffffffffffffffffffffffffffffffffffff021916908373ffffffffffffffffffffffffffffffffffffffff160217905550612b98806100746000396000f3fe6080604052600436106100915760003560e01c806372306fec1161005957806372306fec1461019f5780637b123b0d146101dc5780639979ef4514610207578063dbdfe88514610223578063dbec1b7e1461026057610091565b806301ea0a9a146100965780630ef86a16146100bf578063143b03db146100fc5780635591895f146101255780635e0870a114610162575b600080fd5b3480156100a257600080fd5b506100bd60048036038101906100b891906120e0565b61027c565b005b3480156100cb57600080fd5b506100e660048036038101906100e191906120e0565b61053b565b6040516100f39190612670565b60405180910390f35b34801561010857600080fd5b50610123600480360381019061011e9190612109565b6105cf565b005b34801561013157600080fd5b5061014c60048036038101906101479190612054565b610b09565b604051610159919061262c565b60405180910390f35b34801561016e57600080fd5b50610189600480360381019061018491906120e0565b610f74565b60405161019691906127ab565b60405180910390f35b3480156101ab57600080fd5b506101c660048036038101906101c191906120e0565b611102565b6040516101d3919061264e565b60405180910390f35b3480156101e857600080fd5b506101f161120b565b6040516101fe919061262c565b60405180910390f35b610221600480360381019061021c91906120e0565b61159a565b005b34801561022f57600080fd5b5061024a600480360381019061024591906120e0565b6119a8565b60405161025791906127ab565b60405180910390f35b61027a6004803603810190610275919061207d565b611b52565b005b60006005600083815260200190815260200160002060010154905060006006600083815260200190815260200160002080549050905060005b81811015610535576000151560066000858152602001908152602001600020828154811061030c577f4e487b7100000000000000000000000000000000000000000000000000000000600052603260045260246000fd5b906000526020600020906003020160020160009054906101000a900460ff1615151415610522576001600660008581526020019081526020016000208281548110610380577f4e487b7100000000000000000000000000000000000000000000000000000000600052603260045260246000fd5b906000526020600020906003020160020160006101000a81548160ff02191690831515021790555060006006600085815260200190815260200160002082815481106103f5577f4e487b7100000000000000000000000000000000000000000000000000000000600052603260045260246000fd5b90600052602060002090600302016001015490506000600660008681526020019081526020016000208381548110610456577f4e487b7100000000000000000000000000000000000000000000000000000000600052603260045260246000fd5b906000526020600020906003020160000160009054906101000a900473ffffffffffffffffffffffffffffffffffffffff1690503373ffffffffffffffffffffffffffffffffffffffff166108fc839081150290604051600060405180830381858888f193505050501580156104d0573d6000803e3d6000fd5b508073ffffffffffffffffffffffffffffffffffffffff167f884edad9ce6fa2440d8a54cc123490eb96d2768479d49ff9c7366125a94243648360405161051791906127c7565b60405180910390a250505b808061052d9061294b565b9150506102b5565b50505050565b60008060056000848152602001908152602001600020600101549050600115156004600083815260200190815260200160002060040160009054906101000a900460ff1615151480156105b55750600015156004600083815260200190815260200160002060040160019054906101000a900460ff161515145b156105c45760019150506105ca565b60009150505b919050565b60026000541415610615576040517f08c379a000000000000000000000000000000000000000000000000000000000815260040161060c9061272b565b60405180910390fd5b60026000819055506000600560008481526020019081526020016000206001015490506004600082815260200190815260200160002060040160009054906101000a900460ff1661069b576040517f08c379a00000000000000000000000000000000000000000000000000000000081526004016106929061270b565b60405180910390fd5b60046000828152602001908152602001600020600301544210156106f4576040517f08c379a00000000000000000000000000000000000000000000000000000000081526004016106eb9061278b565b60405180910390fd5b6004600082815260200190815260200160002060040160019054906101000a900460ff1615610758576040517f08c379a000000000000000000000000000000000000000000000000000000000815260040161074f9061274b565b60405180910390fd5b60016004600083815260200190815260200160002060040160016101000a81548160ff021916908315150217905550600073ffffffffffffffffffffffffffffffffffffffff166004600083815260200190815260200160002060040160029054906101000a900473ffffffffffffffffffffffffffffffffffffffff1673ffffffffffffffffffffffffffffffffffffffff161461094a5760008290508073ffffffffffffffffffffffffffffffffffffffff1663f5537ede306004600086815260200190815260200160002060040160029054906101000a900473ffffffffffffffffffffffffffffffffffffffff1660046000878152602001908152602001600020600101546040518463ffffffff1660e01b815260040161087f939291906125cc565b600060405180830381600087803b15801561089957600080fd5b505af11580156108ad573d6000803e3d6000fd5b505050506004600083815260200190815260200160002060020160009054906101000a900473ffffffffffffffffffffffffffffffffffffffff1673ffffffffffffffffffffffffffffffffffffffff166108fc60046000858152602001908152602001600020600501549081150290604051600060405180830381858888f19350505050158015610943573d6000803e3d6000fd5b5050610a0c565b60008290508073ffffffffffffffffffffffffffffffffffffffff1663f5537ede306004600086815260200190815260200160002060020160009054906101000a900473ffffffffffffffffffffffffffffffffffffffff1660046000878152602001908152602001600020600101546040518463ffffffff1660e01b81526004016109d893929190612595565b600060405180830381600087803b1580156109f257600080fd5b505af1158015610a06573d6000803e3d6000fd5b50505050505b600360009054906101000a900473ffffffffffffffffffffffffffffffffffffffff1673ffffffffffffffffffffffffffffffffffffffff166108fc6002549081150290604051600060405180830381858888f19350505050158015610a76573d6000803e3d6000fd5b507f7d7570b046e5ead3a4f3fbc9fa2445113625a1e79823776146316bafed6b8cc56004600083815260200190815260200160002060040160029054906101000a900473ffffffffffffffffffffffffffffffffffffffff166004600084815260200190815260200160002060050154604051610af4929190612603565b60405180910390a15060016000819055505050565b60606000806000600190505b610b1f6001611f3b565b8111610c1757600115156004600083815260200190815260200160002060040160009054906101000a900460ff161515148015610b835750600015156004600083815260200190815260200160002060040160019054906101000a900460ff161515145b8015610bf057508473ffffffffffffffffffffffffffffffffffffffff166004600083815260200190815260200160002060020160009054906101000a900473ffffffffffffffffffffffffffffffffffffffff1673ffffffffffffffffffffffffffffffffffffffff16145b15610c04578280610c009061294b565b9350505b8080610c0f9061294b565b915050610b15565b5060008267ffffffffffffffff811115610c5a577f4e487b7100000000000000000000000000000000000000000000000000000000600052604160045260246000fd5b604051908082528060200260200182016040528015610c9357816020015b610c80611f5f565b815260200190600190039081610c785790505b5090506000600190505b610ca76001611f3b565b8111610f6857600115156004600083815260200190815260200160002060040160009054906101000a900460ff161515148015610d0b5750600015156004600083815260200190815260200160002060040160019054906101000a900460ff161515145b8015610d7857508573ffffffffffffffffffffffffffffffffffffffff166004600083815260200190815260200160002060020160009054906101000a900473ffffffffffffffffffffffffffffffffffffffff1673ffffffffffffffffffffffffffffffffffffffff16145b15610f5557600060046000838152602001908152602001600020905080604051806101200160405290816000820160009054906101000a900473ffffffffffffffffffffffffffffffffffffffff1673ffffffffffffffffffffffffffffffffffffffff1673ffffffffffffffffffffffffffffffffffffffff168152602001600182015481526020016002820160009054906101000a900473ffffffffffffffffffffffffffffffffffffffff1673ffffffffffffffffffffffffffffffffffffffff1673ffffffffffffffffffffffffffffffffffffffff168152602001600382015481526020016004820160009054906101000a900460ff161515151581526020016004820160019054906101000a900460ff161515151581526020016004820160029054906101000a900473ffffffffffffffffffffffffffffffffffffffff1673ffffffffffffffffffffffffffffffffffffffff1673ffffffffffffffffffffffffffffffffffffffff16815260200160058201548152602001600682015481525050838581518110610f3a577f4e487b7100000000000000000000000000000000000000000000000000000000600052603260045260246000fd5b60200260200101819052508380610f509061294b565b945050505b8080610f609061294b565b915050610c9d565b50809350505050919050565b610f7c611f5f565b60046000838152602001908152602001600020604051806101200160405290816000820160009054906101000a900473ffffffffffffffffffffffffffffffffffffffff1673ffffffffffffffffffffffffffffffffffffffff1673ffffffffffffffffffffffffffffffffffffffff168152602001600182015481526020016002820160009054906101000a900473ffffffffffffffffffffffffffffffffffffffff1673ffffffffffffffffffffffffffffffffffffffff1673ffffffffffffffffffffffffffffffffffffffff168152602001600382015481526020016004820160009054906101000a900460ff161515151581526020016004820160019054906101000a900460ff161515151581526020016004820160029054906101000a900473ffffffffffffffffffffffffffffffffffffffff1673ffffffffffffffffffffffffffffffffffffffff1673ffffffffffffffffffffffffffffffffffffffff168152602001600582015481526020016006820154815250509050919050565b606060006005600084815260200190815260200160002060010154905060066000828152602001908152602001600020805480602002602001604051908101604052809291908181526020016000905b828210156111ff57838290600052602060002090600302016040518060600160405290816000820160009054906101000a900473ffffffffffffffffffffffffffffffffffffffff1673ffffffffffffffffffffffffffffffffffffffff1673ffffffffffffffffffffffffffffffffffffffff168152602001600182015481526020016002820160009054906101000a900460ff16151515158152505081526020019060010190611152565b50505050915050919050565b60606000806000600190505b6112216001611f3b565b81116112ac57600115156004600083815260200190815260200160002060040160009054906101000a900460ff1615151480156112855750600015156004600083815260200190815260200160002060040160019054906101000a900460ff161515145b156112995782806112959061294b565b9350505b80806112a49061294b565b915050611217565b5060008267ffffffffffffffff8111156112ef577f4e487b7100000000000000000000000000000000000000000000000000000000600052604160045260246000fd5b60405190808252806020026020018201604052801561132857816020015b611315611f5f565b81526020019060019003908161130d5790505b5090506000600190505b61133c6001611f3b565b811161159057600115156004600083815260200190815260200160002060040160009054906101000a900460ff1615151480156113a05750600015156004600083815260200190815260200160002060040160019054906101000a900460ff161515145b1561157d57600060046000838152602001908152602001600020905080604051806101200160405290816000820160009054906101000a900473ffffffffffffffffffffffffffffffffffffffff1673ffffffffffffffffffffffffffffffffffffffff1673ffffffffffffffffffffffffffffffffffffffff168152602001600182015481526020016002820160009054906101000a900473ffffffffffffffffffffffffffffffffffffffff1673ffffffffffffffffffffffffffffffffffffffff1673ffffffffffffffffffffffffffffffffffffffff168152602001600382015481526020016004820160009054906101000a900460ff161515151581526020016004820160019054906101000a900460ff161515151581526020016004820160029054906101000a900473ffffffffffffffffffffffffffffffffffffffff1673ffffffffffffffffffffffffffffffffffffffff1673ffffffffffffffffffffffffffffffffffffffff16815260200160058201548152602001600682015481525050838581518110611562577f4e487b7100000000000000000000000000000000000000000000000000000000600052603260045260246000fd5b602002602001018190525083806115789061294b565b945050505b80806115889061294b565b915050611332565b5080935050505090565b600260005414156115e0576040517f08c379a00000000000000000000000000000000000000000000000000000000081526004016115d79061272b565b60405180910390fd5b60026000819055506000600560008381526020019081526020016000206001015490506004600082815260200190815260200160002060040160009054906101000a900460ff16611666576040517f08c379a000000000000000000000000000000000000000000000000000000000815260040161165d9061270b565b60405180910390fd5b6004600082815260200190815260200160002060040160019054906101000a900460ff16156116ca576040517f08c379a00000000000000000000000000000000000000000000000000000000081526004016116c19061276b565b60405180910390fd5b60046000828152602001908152602001600020600301544210611722576040517f08c379a00000000000000000000000000000000000000000000000000000000081526004016117199061274b565b60405180910390fd5b6004600082815260200190815260200160002060050154341161177a576040517f08c379a0000000000000000000000000000000000000000000000000000000008152600401611771906126ab565b60405180910390fd5b60006004600083815260200190815260200160002060040160029054906101000a900473ffffffffffffffffffffffffffffffffffffffff1690506000600460008481526020019081526020016000206005015490506117d8611ff1565b82816000019073ffffffffffffffffffffffffffffffffffffffff16908173ffffffffffffffffffffffffffffffffffffffff16815250508181602001818152505060008160400190151590811515815250506006600085815260200190815260200160002081908060018154018082558091505060019003906000526020600020906003020160009091909190915060008201518160000160006101000a81548173ffffffffffffffffffffffffffffffffffffffff021916908373ffffffffffffffffffffffffffffffffffffffff1602179055506020820151816001015560408201518160020160006101000a81548160ff0219169083151502179055505050336004600086815260200190815260200160002060040160026101000a81548173ffffffffffffffffffffffffffffffffffffffff021916908373ffffffffffffffffffffffffffffffffffffffff1602179055503460046000868152602001908152602001600020600501819055503373ffffffffffffffffffffffffffffffffffffffff167fe684a55f31b79eca403df938249029212a5925ec6be8012e099b45bc1019e5d23460405161199191906127c7565b60405180910390a250505050600160008190555050565b6119b0611f5f565b60006005600084815260200190815260200160002060010154905060046000828152602001908152602001600020604051806101200160405290816000820160009054906101000a900473ffffffffffffffffffffffffffffffffffffffff1673ffffffffffffffffffffffffffffffffffffffff1673ffffffffffffffffffffffffffffffffffffffff168152602001600182015481526020016002820160009054906101000a900473ffffffffffffffffffffffffffffffffffffffff1673ffffffffffffffffffffffffffffffffffffffff1673ffffffffffffffffffffffffffffffffffffffff168152602001600382015481526020016004820160009054906101000a900460ff161515151581526020016004820160019054906101000a900460ff161515151581526020016004820160029054906101000a900473ffffffffffffffffffffffffffffffffffffffff1673ffffffffffffffffffffffffffffffffffffffff1673ffffffffffffffffffffffffffffffffffffffff16815260200160058201548152602001600682015481525050915050919050565b60026000541415611b98576040517f08c379a0000000000000000000000000000000000000000000000000000000008152600401611b8f9061272b565b60405180910390fd5b600260008190555060008211611be3576040517f08c379a0000000000000000000000000000000000000000000000000000000008152600401611bda9061268b565b60405180910390fd5b6002543414611c27576040517f08c379a0000000000000000000000000000000000000000000000000000000008152600401611c1e906126eb565b60405180910390fd5b603c811015611c6b576040517f08c379a0000000000000000000000000000000000000000000000000000000008152600401611c62906126cb565b60405180910390fd5b611c756001611f49565b6000611c816001611f3b565b905080600560008681526020019081526020016000206001018190555060008242611cac9190612865565b90506040518061012001604052808773ffffffffffffffffffffffffffffffffffffffff1681526020018681526020013373ffffffffffffffffffffffffffffffffffffffff1681526020018281526020016001151581526020016000151581526020013373ffffffffffffffffffffffffffffffffffffffff168152602001858152602001858152506004600084815260200190815260200160002060008201518160000160006101000a81548173ffffffffffffffffffffffffffffffffffffffff021916908373ffffffffffffffffffffffffffffffffffffffff1602179055506020820151816001015560408201518160020160006101000a81548173ffffffffffffffffffffffffffffffffffffffff021916908373ffffffffffffffffffffffffffffffffffffffff1602179055506060820151816003015560808201518160040160006101000a81548160ff02191690831515021790555060a08201518160040160016101000a81548160ff02191690831515021790555060c08201518160040160026101000a81548173ffffffffffffffffffffffffffffffffffffffff021916908373ffffffffffffffffffffffffffffffffffffffff16021790555060e08201518160050155610100820151816006015590505060008690508073ffffffffffffffffffffffffffffffffffffffff1663f5537ede3330896040518463ffffffff1660e01b8152600401611ecc939291906125cc565b600060405180830381600087803b158015611ee657600080fd5b505af1158015611efa573d6000803e3d6000fd5b505050507f1b55ba3aa851a46be3b365aee5b5c140edd620d578922f3e8466d2cbd96f954b60405160405180910390a1505050600160008190555050505050565b600081600001549050919050565b6001816000016000828254019250508190555050565b604051806101200160405280600073ffffffffffffffffffffffffffffffffffffffff16815260200160008152602001600073ffffffffffffffffffffffffffffffffffffffff16815260200160008152602001600015158152602001600015158152602001600073ffffffffffffffffffffffffffffffffffffffff16815260200160008152602001600081525090565b6040518060600160405280600073ffffffffffffffffffffffffffffffffffffffff168152602001600081526020016000151581525090565b60008135905061203981612b34565b92915050565b60008135905061204e81612b4b565b92915050565b60006020828403121561206657600080fd5b60006120748482850161202a565b91505092915050565b6000806000806080858703121561209357600080fd5b60006120a18782880161202a565b94505060206120b28782880161203f565b93505060406120c38782880161203f565b92505060606120d48782880161203f565b91505092959194509250565b6000602082840312156120f257600080fd5b60006121008482850161203f565b91505092915050565b6000806040838503121561211c57600080fd5b600061212a8582860161203f565b925050602061213b8582860161202a565b9150509250929050565b600061215183836123c7565b6101208301905092915050565b600061216a8383612535565b60608301905092915050565b61217f81612915565b82525050565b61218e816128cd565b82525050565b61219d816128bb565b82525050565b6121ac816128bb565b82525050565b60006121bd82612802565b6121c78185612832565b93506121d2836127e2565b8060005b838110156122035781516121ea8882612145565b97506121f583612818565b9250506001810190506121d6565b5085935050505092915050565b600061221b8261280d565b6122258185612843565b9350612230836127f2565b8060005b83811015612261578151612248888261215e565b975061225383612825565b925050600181019050612234565b5085935050505092915050565b612277816128df565b82525050565b612286816128df565b82525050565b6000612299600783612854565b91506122a4826129c3565b602082019050919050565b60006122bc600f83612854565b91506122c7826129ec565b602082019050919050565b60006122df600f83612854565b91506122ea82612a15565b602082019050919050565b6000612302601683612854565b915061230d82612a3e565b602082019050919050565b6000612325600b83612854565b915061233082612a67565b602082019050919050565b6000612348601f83612854565b915061235382612a90565b602082019050919050565b600061236b600583612854565b915061237682612ab9565b602082019050919050565b600061238e600b83612854565b915061239982612ae2565b602082019050919050565b60006123b1600983612854565b91506123bc82612b0b565b602082019050919050565b610120820160008201516123de6000850182612194565b5060208201516123f16020850182612577565b5060408201516124046040850182612185565b5060608201516124176060850182612577565b50608082015161242a608085018261226e565b5060a082015161243d60a085018261226e565b5060c082015161245060c0850182612194565b5060e082015161246360e0850182612577565b50610100820151612478610100850182612577565b50505050565b610120820160008201516124956000850182612194565b5060208201516124a86020850182612577565b5060408201516124bb6040850182612185565b5060608201516124ce6060850182612577565b5060808201516124e1608085018261226e565b5060a08201516124f460a085018261226e565b5060c082015161250760c0850182612194565b5060e082015161251a60e0850182612577565b5061010082015161252f610100850182612577565b50505050565b60608201600082015161254b6000850182612194565b50602082015161255e6020850182612577565b506040820151612571604085018261226e565b50505050565b6125808161290b565b82525050565b61258f8161290b565b82525050565b60006060820190506125aa60008301866121a3565b6125b76020830185612176565b6125c46040830184612586565b949350505050565b60006060820190506125e160008301866121a3565b6125ee60208301856121a3565b6125fb6040830184612586565b949350505050565b600060408201905061261860008301856121a3565b6126256020830184612586565b9392505050565b6000602082019050818103600083015261264681846121b2565b905092915050565b600060208201905081810360008301526126688184612210565b905092915050565b6000602082019050612685600083018461227d565b92915050565b600060208201905081810360008301526126a48161228c565b9050919050565b600060208201905081810360008301526126c4816122af565b9050919050565b600060208201905081810360008301526126e4816122d2565b9050919050565b60006020820190508181036000830152612704816122f5565b9050919050565b6000602082019050818103600083015261272481612318565b9050919050565b600060208201905081810360008301526127448161233b565b9050919050565b600060208201905081810360008301526127648161235e565b9050919050565b6000602082019050818103600083015261278481612381565b9050919050565b600060208201905081810360008301526127a4816123a4565b9050919050565b6000610120820190506127c1600083018461247e565b92915050565b60006020820190506127dc6000830184612586565b92915050565b6000819050602082019050919050565b6000819050602082019050919050565b600081519050919050565b600081519050919050565b6000602082019050919050565b6000602082019050919050565b600082825260208201905092915050565b600082825260208201905092915050565b600082825260208201905092915050565b60006128708261290b565b915061287b8361290b565b9250827fffffffffffffffffffffffffffffffffffffffffffffffffffffffffffffffff038211156128b0576128af612994565b5b828201905092915050565b60006128c6826128eb565b9050919050565b60006128d8826128eb565b9050919050565b60008115159050919050565b600073ffffffffffffffffffffffffffffffffffffffff82169050919050565b6000819050919050565b600061292082612927565b9050919050565b600061293282612939565b9050919050565b6000612944826128eb565b9050919050565b60006129568261290b565b91507fffffffffffffffffffffffffffffffffffffffffffffffffffffffffffffffff82141561298957612988612994565b5b600182019050919050565b7f4e487b7100000000000000000000000000000000000000000000000000000000600052601160045260246000fd5b7f546f6f206c6f7700000000000000000000000000000000000000000000000000600082015250565b7f76616c7565203c20686967686573740000000000000000000000000000000000600082015250565b7f6174206c65617374203630207365630000000000000000000000000000000000600082015250565b7f73656e6420746865206c697374696e6720507269636500000000000000000000600082015250565b7f6e6f742073746172746564000000000000000000000000000000000000000000600082015250565b7f5265656e7472616e637947756172643a207265656e7472616e742063616c6c00600082015250565b7f656e646564000000000000000000000000000000000000000000000000000000600082015250565b7f616c726561647920656e64000000000000000000000000000000000000000000600082015250565b7f6e6f7420656e6465640000000000000000000000000000000000000000000000600082015250565b612b3d816128bb565b8114612b4857600080fd5b50565b612b548161290b565b8114612b5f57600080fd5b5056fea26469706673582212207ee77d5aa39f0a49d8fb5a671bb33fc0b700f704cd064980a9bf91009feee85d64736f6c63430008010033",
  "linkReferences": {},
  "deployedLinkReferences": {}
}