{
  "_format": "hh-sol-artifact-1",
  "contractName": "ArtizanMarket",
  "sourceName": "contracts/ArtizanMarket.sol",
  "abi": [
    {
      "inputs": [],
      "stateMutability": "nonpayable",
      "type": "constructor"
    },
    {
      "anonymous": false,
      "inputs": [
        {
          "indexed": false,
          "internalType": "address",
          "name": "nftContract",
          "type": "address"
        },
        {
          "indexed": true,
          "internalType": "uint256",
          "name": "tokenID",
          "type": "uint256"
        },
        {
          "indexed": false,
          "internalType": "address",
          "name": "owner",
          "type": "address"
        },
        {
          "indexed": false,
          "internalType": "address",
          "name": "seller",
          "type": "address"
        },
        {
          "indexed": false,
          "internalType": "uint256",
          "name": "price",
          "type": "uint256"
        },
        {
          "indexed": false,
          "internalType": "bool",
          "name": "sold",
          "type": "bool"
        },
        {
          "indexed": false,
          "internalType": "bool",
          "name": "soldBefore",
          "type": "bool"
        }
      ],
      "name": "MarketItemCreation",
      "type": "event"
    },
    {
      "inputs": [],
      "name": "ListItemsOnSale",
      "outputs": [
        {
          "components": [
            {
              "internalType": "address",
              "name": "nftContract",
              "type": "address"
            },
            {
              "internalType": "uint256",
              "name": "tokenID",
              "type": "uint256"
            },
            {
              "internalType": "address payable",
              "name": "owner",
              "type": "address"
            },
            {
              "internalType": "address payable",
              "name": "seller",
              "type": "address"
            },
            {
              "internalType": "uint256",
              "name": "price",
              "type": "uint256"
            },
            {
              "internalType": "bool",
              "name": "sold",
              "type": "bool"
            },
            {
              "internalType": "bool",
              "name": "soldBefore",
              "type": "bool"
            }
          ],
          "internalType": "struct ArtizanMarket.MarketItem[]",
          "name": "",
          "type": "tuple[]"
        }
      ],
      "stateMutability": "view",
      "type": "function"
    },
    {
      "inputs": [],
      "name": "ListUserOwnItems",
      "outputs": [
        {
          "components": [
            {
              "internalType": "address",
              "name": "nftContract",
              "type": "address"
            },
            {
              "internalType": "uint256",
              "name": "tokenID",
              "type": "uint256"
            },
            {
              "internalType": "address payable",
              "name": "owner",
              "type": "address"
            },
            {
              "internalType": "address payable",
              "name": "seller",
              "type": "address"
            },
            {
              "internalType": "uint256",
              "name": "price",
              "type": "uint256"
            },
            {
              "internalType": "bool",
              "name": "sold",
              "type": "bool"
            },
            {
              "internalType": "bool",
              "name": "soldBefore",
              "type": "bool"
            }
          ],
          "internalType": "struct ArtizanMarket.MarketItem[]",
          "name": "",
          "type": "tuple[]"
        }
      ],
      "stateMutability": "view",
      "type": "function"
    },
    {
      "inputs": [],
      "name": "ListUserSaleItems",
      "outputs": [
        {
          "components": [
            {
              "internalType": "address",
              "name": "nftContract",
              "type": "address"
            },
            {
              "internalType": "uint256",
              "name": "tokenID",
              "type": "uint256"
            },
            {
              "internalType": "address payable",
              "name": "owner",
              "type": "address"
            },
            {
              "internalType": "address payable",
              "name": "seller",
              "type": "address"
            },
            {
              "internalType": "uint256",
              "name": "price",
              "type": "uint256"
            },
            {
              "internalType": "bool",
              "name": "sold",
              "type": "bool"
            },
            {
              "internalType": "bool",
              "name": "soldBefore",
              "type": "bool"
            }
          ],
          "internalType": "struct ArtizanMarket.MarketItem[]",
          "name": "",
          "type": "tuple[]"
        }
      ],
      "stateMutability": "view",
      "type": "function"
    },
    {
      "inputs": [
        {
          "internalType": "address",
          "name": "user",
          "type": "address"
        }
      ],
      "name": "ListUsersAllItems",
      "outputs": [
        {
          "components": [
            {
              "internalType": "address",
              "name": "nftContract",
              "type": "address"
            },
            {
              "internalType": "uint256",
              "name": "tokenID",
              "type": "uint256"
            },
            {
              "internalType": "address payable",
              "name": "owner",
              "type": "address"
            },
            {
              "internalType": "address payable",
              "name": "seller",
              "type": "address"
            },
            {
              "internalType": "uint256",
              "name": "price",
              "type": "uint256"
            },
            {
              "internalType": "bool",
              "name": "sold",
              "type": "bool"
            },
            {
              "internalType": "bool",
              "name": "soldBefore",
              "type": "bool"
            }
          ],
          "internalType": "struct ArtizanMarket.MarketItem[]",
          "name": "",
          "type": "tuple[]"
        }
      ],
      "stateMutability": "view",
      "type": "function"
    },
    {
      "inputs": [
        {
          "internalType": "uint256",
          "name": "tokenId",
          "type": "uint256"
        }
      ],
      "name": "NFTItem",
      "outputs": [
        {
          "components": [
            {
              "internalType": "address",
              "name": "nftContract",
              "type": "address"
            },
            {
              "internalType": "uint256",
              "name": "tokenID",
              "type": "uint256"
            },
            {
              "internalType": "address payable",
              "name": "owner",
              "type": "address"
            },
            {
              "internalType": "address payable",
              "name": "seller",
              "type": "address"
            },
            {
              "internalType": "uint256",
              "name": "price",
              "type": "uint256"
            },
            {
              "internalType": "bool",
              "name": "sold",
              "type": "bool"
            },
            {
              "internalType": "bool",
              "name": "soldBefore",
              "type": "bool"
            }
          ],
          "internalType": "struct ArtizanMarket.MarketItem",
          "name": "",
          "type": "tuple"
        }
      ],
      "stateMutability": "view",
      "type": "function"
    },
    {
      "inputs": [
        {
          "internalType": "uint256",
          "name": "price",
          "type": "uint256"
        },
        {
          "internalType": "address",
          "name": "NftCont",
          "type": "address"
        },
        {
          "internalType": "uint256",
          "name": "tokenId",
          "type": "uint256"
        }
      ],
      "name": "ResellNFT",
      "outputs": [],
      "stateMutability": "payable",
      "type": "function"
    },
    {
      "inputs": [
        {
          "internalType": "uint256",
          "name": "price",
          "type": "uint256"
        },
        {
          "internalType": "address",
          "name": "NftCont",
          "type": "address"
        },
        {
          "internalType": "uint256",
          "name": "tokenId",
          "type": "uint256"
        }
      ],
      "name": "StopNFTSale",
      "outputs": [],
      "stateMutability": "payable",
      "type": "function"
    },
    {
      "inputs": [
        {
          "internalType": "uint256",
          "name": "price",
          "type": "uint256"
        },
        {
          "internalType": "address",
          "name": "NftCont",
          "type": "address"
        },
        {
          "internalType": "uint256",
          "name": "tokenId",
          "type": "uint256"
        }
      ],
      "name": "createMarketItem",
      "outputs": [],
      "stateMutability": "payable",
      "type": "function"
    },
    {
      "inputs": [
        {
          "internalType": "address",
          "name": "NftCont",
          "type": "address"
        },
        {
          "internalType": "uint256",
          "name": "tokenId",
          "type": "uint256"
        }
      ],
      "name": "createMarketSale",
      "outputs": [],
      "stateMutability": "payable",
      "type": "function"
    },
    {
      "inputs": [],
      "name": "getListingPrice",
      "outputs": [
        {
          "internalType": "uint256",
          "name": "",
          "type": "uint256"
        }
      ],
      "stateMutability": "view",
      "type": "function"
    },
    {
      "inputs": [
        {
          "internalType": "uint256",
          "name": "tokenId",
          "type": "uint256"
        }
      ],
      "name": "isSoldBefore",
      "outputs": [
        {
          "internalType": "bool",
          "name": "",
          "type": "bool"
        }
      ],
      "stateMutability": "view",
      "type": "function"
    },
    {
      "inputs": [
        {
          "internalType": "uint256",
          "name": "_listingPrice",
          "type": "uint256"
        }
      ],
      "name": "updateListingPrice",
      "outputs": [],
      "stateMutability": "payable",
      "type": "function"
    }
  ],
  "bytecode": "0x6080604052662386f26fc1000060045534801561001b57600080fd5b50600160008190555033600360006101000a81548173ffffffffffffffffffffffffffffffffffffffff021916908373ffffffffffffffffffffffffffffffffffffffff160217905550612dd3806100746000396000f3fe6080604052600436106100a75760003560e01c80638471075d116100645780638471075d146101b4578063986d88e0146101d0578063a9a440c9146101fb578063ae677aa314610226578063b19d4e0814610242578063c23b139e1461027f576100a7565b806308aaac95146100ac578063112b3584146100e957806312e85585146101145780632ffb12bb1461013f5780635b9e43281461015b5780638299506714610198575b600080fd5b3480156100b857600080fd5b506100d360048036038101906100ce9190612355565b61029b565b6040516100e091906127e0565b60405180910390f35b3480156100f557600080fd5b506100fe6102f9565b60405161010b91906127be565b60405180910390f35b34801561012057600080fd5b506101296106ba565b6040516101369190612956565b60405180910390f35b6101596004803603810190610154919061237e565b6106c4565b005b34801561016757600080fd5b50610182600480360381019061017d91906122f0565b610993565b60405161018f91906127be565b60405180910390f35b6101b260048036038101906101ad919061237e565b610e46565b005b6101ce60048036038101906101c9919061237e565b6111c5565b005b3480156101dc57600080fd5b506101e56114d2565b6040516101f291906127be565b60405180910390f35b34801561020757600080fd5b5061021061180e565b60405161021d91906127be565b60405180910390f35b610240600480360381019061023b9190612355565b611bcf565b005b34801561024e57600080fd5b5061026960048036038101906102649190612355565b611c69565b604051610276919061293b565b60405180910390f35b61029960048036038101906102949190612319565b611dfb565b005b60008060066000848152602001908152602001600020549050600115156005600083815260200190815260200160002060050160019054906101000a900460ff16151514156102ee5760019150506102f4565b60009150505b919050565b6060600061030760016121c3565b905060008060005b838110156103b0573373ffffffffffffffffffffffffffffffffffffffff166005600060018461033f91906129bb565b815260200190815260200160002060020160009054906101000a900473ffffffffffffffffffffffffffffffffffffffff1673ffffffffffffffffffffffffffffffffffffffff16141561039d5760018361039a91906129bb565b92505b80806103a890612a9f565b91505061030f565b5060008267ffffffffffffffff8111156103f3577f4e487b7100000000000000000000000000000000000000000000000000000000600052604160045260246000fd5b60405190808252806020026020018201604052801561042c57816020015b610419612243565b8152602001906001900390816104115790505b50905060005b848110156106af573373ffffffffffffffffffffffffffffffffffffffff166005600060018461046291906129bb565b815260200190815260200160002060020160009054906101000a900473ffffffffffffffffffffffffffffffffffffffff1673ffffffffffffffffffffffffffffffffffffffff16141561069c576000600560006001846104c391906129bb565b81526020019081526020016000206001015490506000600560008381526020019081526020016000209050806040518060e00160405290816000820160009054906101000a900473ffffffffffffffffffffffffffffffffffffffff1673ffffffffffffffffffffffffffffffffffffffff1673ffffffffffffffffffffffffffffffffffffffff168152602001600182015481526020016002820160009054906101000a900473ffffffffffffffffffffffffffffffffffffffff1673ffffffffffffffffffffffffffffffffffffffff1673ffffffffffffffffffffffffffffffffffffffff1681526020016003820160009054906101000a900473ffffffffffffffffffffffffffffffffffffffff1673ffffffffffffffffffffffffffffffffffffffff1673ffffffffffffffffffffffffffffffffffffffff168152602001600482015481526020016005820160009054906101000a900460ff161515151581526020016005820160019054906101000a900460ff16151515158152505084868151811061067f577f4e487b7100000000000000000000000000000000000000000000000000000000600052603260045260246000fd5b602002602001018190525060018561069791906129bb565b945050505b80806106a790612a9f565b915050610432565b508094505050505090565b6000600454905090565b6002600054141561070a576040517f08c379a00000000000000000000000000000000000000000000000000000000081526004016107019061291b565b60405180910390fd5b60026000819055506000600660008381526020019081526020016000205490503373ffffffffffffffffffffffffffffffffffffffff166005600083815260200190815260200160002060020160009054906101000a900473ffffffffffffffffffffffffffffffffffffffff1673ffffffffffffffffffffffffffffffffffffffff16146107ce576040517f08c379a00000000000000000000000000000000000000000000000000000000081526004016107c59061289b565b60405180910390fd5b6004543414610812576040517f08c379a0000000000000000000000000000000000000000000000000000000008152600401610809906128bb565b60405180910390fd5b60008390508073ffffffffffffffffffffffffffffffffffffffff1663f5537ede3330866040518463ffffffff1660e01b815260040161085493929190612787565b600060405180830381600087803b15801561086e57600080fd5b505af1158015610882573d6000803e3d6000fd5b5050505060006005600084815260200190815260200160002060050160006101000a81548160ff021916908315150217905550846005600084815260200190815260200160002060040181905550336005600084815260200190815260200160002060030160006101000a81548173ffffffffffffffffffffffffffffffffffffffff021916908373ffffffffffffffffffffffffffffffffffffffff160217905550306005600084815260200190815260200160002060020160006101000a81548173ffffffffffffffffffffffffffffffffffffffff021916908373ffffffffffffffffffffffffffffffffffffffff16021790555061098460026121d1565b50506001600081905550505050565b606060006109a160016121c3565b905060008060005b83811015610ac2578573ffffffffffffffffffffffffffffffffffffffff16600560006001846109d991906129bb565b815260200190815260200160002060030160009054906101000a900473ffffffffffffffffffffffffffffffffffffffff1673ffffffffffffffffffffffffffffffffffffffff161480610a9a57508573ffffffffffffffffffffffffffffffffffffffff1660056000600184610a5091906129bb565b815260200190815260200160002060020160009054906101000a900473ffffffffffffffffffffffffffffffffffffffff1673ffffffffffffffffffffffffffffffffffffffff16145b15610aaf57600183610aac91906129bb565b92505b8080610aba90612a9f565b9150506109a9565b5060008267ffffffffffffffff811115610b05577f4e487b7100000000000000000000000000000000000000000000000000000000600052604160045260246000fd5b604051908082528060200260200182016040528015610b3e57816020015b610b2b612243565b815260200190600190039081610b235790505b50905060005b84811015610e39578673ffffffffffffffffffffffffffffffffffffffff1660056000600184610b7491906129bb565b815260200190815260200160002060030160009054906101000a900473ffffffffffffffffffffffffffffffffffffffff1673ffffffffffffffffffffffffffffffffffffffff161480610c3557508673ffffffffffffffffffffffffffffffffffffffff1660056000600184610beb91906129bb565b815260200190815260200160002060020160009054906101000a900473ffffffffffffffffffffffffffffffffffffffff1673ffffffffffffffffffffffffffffffffffffffff16145b15610e2657600060056000600184610c4d91906129bb565b81526020019081526020016000206001015490506000600560008381526020019081526020016000209050806040518060e00160405290816000820160009054906101000a900473ffffffffffffffffffffffffffffffffffffffff1673ffffffffffffffffffffffffffffffffffffffff1673ffffffffffffffffffffffffffffffffffffffff168152602001600182015481526020016002820160009054906101000a900473ffffffffffffffffffffffffffffffffffffffff1673ffffffffffffffffffffffffffffffffffffffff1673ffffffffffffffffffffffffffffffffffffffff1681526020016003820160009054906101000a900473ffffffffffffffffffffffffffffffffffffffff1673ffffffffffffffffffffffffffffffffffffffff1673ffffffffffffffffffffffffffffffffffffffff168152602001600482015481526020016005820160009054906101000a900460ff161515151581526020016005820160019054906101000a900460ff161515151581525050848681518110610e09577f4e487b7100000000000000000000000000000000000000000000000000000000600052603260045260246000fd5b6020026020010181905250600185610e2191906129bb565b945050505b8080610e3190612a9f565b915050610b44565b5080945050505050919050565b60026000541415610e8c576040517f08c379a0000000000000000000000000000000000000000000000000000000008152600401610e839061291b565b60405180910390fd5b600260008190555060008311610ed7576040517f08c379a0000000000000000000000000000000000000000000000000000000008152600401610ece906127fb565b60405180910390fd5b6004543414610f1b576040517f08c379a0000000000000000000000000000000000000000000000000000000008152600401610f129061285b565b60405180910390fd5b610f25600161222d565b6000610f3160016121c3565b90508060066000848152602001908152602001600020819055506040518060e001604052808473ffffffffffffffffffffffffffffffffffffffff1681526020018381526020013073ffffffffffffffffffffffffffffffffffffffff1681526020013373ffffffffffffffffffffffffffffffffffffffff168152602001858152602001600015158152602001600015158152506005600083815260200190815260200160002060008201518160000160006101000a81548173ffffffffffffffffffffffffffffffffffffffff021916908373ffffffffffffffffffffffffffffffffffffffff1602179055506020820151816001015560408201518160020160006101000a81548173ffffffffffffffffffffffffffffffffffffffff021916908373ffffffffffffffffffffffffffffffffffffffff16021790555060608201518160030160006101000a81548173ffffffffffffffffffffffffffffffffffffffff021916908373ffffffffffffffffffffffffffffffffffffffff1602179055506080820151816004015560a08201518160050160006101000a81548160ff02191690831515021790555060c08201518160050160016101000a81548160ff0219169083151502179055509050508273ffffffffffffffffffffffffffffffffffffffff166323b872dd3330856040518463ffffffff1660e01b815260040161114293929190612787565b600060405180830381600087803b15801561115c57600080fd5b505af1158015611170573d6000803e3d6000fd5b50505050817f09ac0a12466f38c0bad2fdf849798b4897443678be5268fc8c21861fd6c93920843033886000806040516111af96959493929190612726565b60405180910390a2506001600081905550505050565b6002600054141561120b576040517f08c379a00000000000000000000000000000000000000000000000000000000081526004016112029061291b565b60405180910390fd5b60026000819055506000600660008381526020019081526020016000205490506005600082815260200190815260200160002060030160009054906101000a900473ffffffffffffffffffffffffffffffffffffffff1673ffffffffffffffffffffffffffffffffffffffff163373ffffffffffffffffffffffffffffffffffffffff1614806112e85750600360009054906101000a900473ffffffffffffffffffffffffffffffffffffffff1673ffffffffffffffffffffffffffffffffffffffff163373ffffffffffffffffffffffffffffffffffffffff16145b611327576040517f08c379a000000000000000000000000000000000000000000000000000000000815260040161131e906128db565b60405180910390fd5b60016005600083815260200190815260200160002060050160006101000a81548160ff02191690831515021790555083600560008381526020019081526020016000206004018190555060006005600083815260200190815260200160002060030160006101000a81548173ffffffffffffffffffffffffffffffffffffffff021916908373ffffffffffffffffffffffffffffffffffffffff160217905550336005600083815260200190815260200160002060020160006101000a81548173ffffffffffffffffffffffffffffffffffffffff021916908373ffffffffffffffffffffffffffffffffffffffff16021790555060016005600083815260200190815260200160002060050160016101000a81548160ff021916908315150217905550611455600261222d565b8273ffffffffffffffffffffffffffffffffffffffff166323b872dd3033856040518463ffffffff1660e01b815260040161149293929190612787565b600060405180830381600087803b1580156114ac57600080fd5b505af11580156114c0573d6000803e3d6000fd5b50505050506001600081905550505050565b606060006114e060016121c3565b905060006114ee60026121c3565b6114f860016121c3565b6115029190612a11565b90506000808267ffffffffffffffff811115611547577f4e487b7100000000000000000000000000000000000000000000000000000000600052604160045260246000fd5b60405190808252806020026020018201604052801561158057816020015b61156d612243565b8152602001906001900390816115655790505b50905060005b84811015611803573073ffffffffffffffffffffffffffffffffffffffff16600560006001846115b691906129bb565b815260200190815260200160002060020160009054906101000a900473ffffffffffffffffffffffffffffffffffffffff1673ffffffffffffffffffffffffffffffffffffffff1614156117f05760006005600060018461161791906129bb565b81526020019081526020016000206001015490506000600560008381526020019081526020016000209050806040518060e00160405290816000820160009054906101000a900473ffffffffffffffffffffffffffffffffffffffff1673ffffffffffffffffffffffffffffffffffffffff1673ffffffffffffffffffffffffffffffffffffffff168152602001600182015481526020016002820160009054906101000a900473ffffffffffffffffffffffffffffffffffffffff1673ffffffffffffffffffffffffffffffffffffffff1673ffffffffffffffffffffffffffffffffffffffff1681526020016003820160009054906101000a900473ffffffffffffffffffffffffffffffffffffffff1673ffffffffffffffffffffffffffffffffffffffff1673ffffffffffffffffffffffffffffffffffffffff168152602001600482015481526020016005820160009054906101000a900460ff161515151581526020016005820160019054906101000a900460ff1615151515815250508486815181106117d3577f4e487b7100000000000000000000000000000000000000000000000000000000600052603260045260246000fd5b60200260200101819052506001856117eb91906129bb565b945050505b80806117fb90612a9f565b915050611586565b508094505050505090565b6060600061181c60016121c3565b905060008060005b838110156118c5573373ffffffffffffffffffffffffffffffffffffffff166005600060018461185491906129bb565b815260200190815260200160002060030160009054906101000a900473ffffffffffffffffffffffffffffffffffffffff1673ffffffffffffffffffffffffffffffffffffffff1614156118b2576001836118af91906129bb565b92505b80806118bd90612a9f565b915050611824565b5060008267ffffffffffffffff811115611908577f4e487b7100000000000000000000000000000000000000000000000000000000600052604160045260246000fd5b60405190808252806020026020018201604052801561194157816020015b61192e612243565b8152602001906001900390816119265790505b50905060005b84811015611bc4573373ffffffffffffffffffffffffffffffffffffffff166005600060018461197791906129bb565b815260200190815260200160002060030160009054906101000a900473ffffffffffffffffffffffffffffffffffffffff1673ffffffffffffffffffffffffffffffffffffffff161415611bb1576000600560006001846119d891906129bb565b81526020019081526020016000206001015490506000600560008381526020019081526020016000209050806040518060e00160405290816000820160009054906101000a900473ffffffffffffffffffffffffffffffffffffffff1673ffffffffffffffffffffffffffffffffffffffff1673ffffffffffffffffffffffffffffffffffffffff168152602001600182015481526020016002820160009054906101000a900473ffffffffffffffffffffffffffffffffffffffff1673ffffffffffffffffffffffffffffffffffffffff1673ffffffffffffffffffffffffffffffffffffffff1681526020016003820160009054906101000a900473ffffffffffffffffffffffffffffffffffffffff1673ffffffffffffffffffffffffffffffffffffffff1673ffffffffffffffffffffffffffffffffffffffff168152602001600482015481526020016005820160009054906101000a900460ff161515151581526020016005820160019054906101000a900460ff161515151581525050848681518110611b94577f4e487b7100000000000000000000000000000000000000000000000000000000600052603260045260246000fd5b6020026020010181905250600185611bac91906129bb565b945050505b8080611bbc90612a9f565b915050611947565b508094505050505090565b3373ffffffffffffffffffffffffffffffffffffffff16600360009054906101000a900473ffffffffffffffffffffffffffffffffffffffff1673ffffffffffffffffffffffffffffffffffffffff1614611c5f576040517f08c379a0000000000000000000000000000000000000000000000000000000008152600401611c56906128fb565b60405180910390fd5b8060048190555050565b611c71612243565b600060066000848152602001908152602001600020549050600560008281526020019081526020016000206040518060e00160405290816000820160009054906101000a900473ffffffffffffffffffffffffffffffffffffffff1673ffffffffffffffffffffffffffffffffffffffff1673ffffffffffffffffffffffffffffffffffffffff168152602001600182015481526020016002820160009054906101000a900473ffffffffffffffffffffffffffffffffffffffff1673ffffffffffffffffffffffffffffffffffffffff1673ffffffffffffffffffffffffffffffffffffffff1681526020016003820160009054906101000a900473ffffffffffffffffffffffffffffffffffffffff1673ffffffffffffffffffffffffffffffffffffffff1673ffffffffffffffffffffffffffffffffffffffff168152602001600482015481526020016005820160009054906101000a900460ff161515151581526020016005820160019054906101000a900460ff161515151581525050915050919050565b60026000541415611e41576040517f08c379a0000000000000000000000000000000000000000000000000000000008152600401611e389061291b565b60405180910390fd5b600260008190555060006006600083815260200190815260200160002054905060006005600083815260200190815260200160002060040154905060006005600084815260200190815260200160002060010154905060006005600085815260200190815260200160002060030160009054906101000a900473ffffffffffffffffffffffffffffffffffffffff16905082341015611f15576040517f08c379a0000000000000000000000000000000000000000000000000000000008152600401611f0c9061287b565b60405180910390fd5b600015156005600086815260200190815260200160002060050160009054906101000a900460ff16151514611f7f576040517f08c379a0000000000000000000000000000000000000000000000000000000008152600401611f769061281b565b60405180910390fd5b336005600086815260200190815260200160002060020160006101000a81548173ffffffffffffffffffffffffffffffffffffffff021916908373ffffffffffffffffffffffffffffffffffffffff16021790555060016005600086815260200190815260200160002060050160006101000a81548160ff02191690831515021790555060006005600086815260200190815260200160002060030160006101000a81548173ffffffffffffffffffffffffffffffffffffffff021916908373ffffffffffffffffffffffffffffffffffffffff16021790555060016005600086815260200190815260200160002060050160016101000a81548160ff021916908315150217905550612092600261222d565b8573ffffffffffffffffffffffffffffffffffffffff166323b872dd3033856040518463ffffffff1660e01b81526004016120cf93929190612787565b600060405180830381600087803b1580156120e957600080fd5b505af11580156120fd573d6000803e3d6000fd5b50505050600360009054906101000a900473ffffffffffffffffffffffffffffffffffffffff1673ffffffffffffffffffffffffffffffffffffffff166108fc6004549081150290604051600060405180830381858888f1935050505015801561216b573d6000803e3d6000fd5b508073ffffffffffffffffffffffffffffffffffffffff166108fc349081150290604051600060405180830381858888f193505050501580156121b2573d6000803e3d6000fd5b505050505060016000819055505050565b600081600001549050919050565b6000816000015490506000811161221d576040517f08c379a00000000000000000000000000000000000000000000000000000000081526004016122149061283b565b60405180910390fd5b6001810382600001819055505050565b6001816000016000828254019250508190555050565b6040518060e00160405280600073ffffffffffffffffffffffffffffffffffffffff16815260200160008152602001600073ffffffffffffffffffffffffffffffffffffffff168152602001600073ffffffffffffffffffffffffffffffffffffffff168152602001600081526020016000151581526020016000151581525090565b6000813590506122d581612d6f565b92915050565b6000813590506122ea81612d86565b92915050565b60006020828403121561230257600080fd5b6000612310848285016122c6565b91505092915050565b6000806040838503121561232c57600080fd5b600061233a858286016122c6565b925050602061234b858286016122db565b9150509250929050565b60006020828403121561236757600080fd5b6000612375848285016122db565b91505092915050565b60008060006060848603121561239357600080fd5b60006123a1868287016122db565b93505060206123b2868287016122c6565b92505060406123c3868287016122db565b9150509250925092565b60006123d983836125ec565b60e08301905092915050565b6123ee81612a57565b82525050565b6123fd81612a45565b82525050565b61240c81612a45565b82525050565b600061241d82612981565b6124278185612999565b935061243283612971565b8060005b8381101561246357815161244a88826123cd565b97506124558361298c565b925050600181019050612436565b5085935050505092915050565b61247981612a69565b82525050565b61248881612a69565b82525050565b600061249b6007836129aa565b91506124a682612b17565b602082019050919050565b60006124be601a836129aa565b91506124c982612b40565b602082019050919050565b60006124e1601b836129aa565b91506124ec82612b69565b602082019050919050565b60006125046024836129aa565b915061250f82612b92565b604082019050919050565b6000612527601b836129aa565b915061253282612be1565b602082019050919050565b600061254a602a836129aa565b915061255582612c0a565b604082019050919050565b600061256d6024836129aa565b915061257882612c59565b604082019050919050565b6000612590602a836129aa565b915061259b82612ca8565b604082019050919050565b60006125b36030836129aa565b91506125be82612cf7565b604082019050919050565b60006125d6601f836129aa565b91506125e182612d46565b602082019050919050565b60e08201600082015161260260008501826123f4565b5060208201516126156020850182612708565b50604082015161262860408501826123e5565b50606082015161263b60608501826123e5565b50608082015161264e6080850182612708565b5060a082015161266160a0850182612470565b5060c082015161267460c0850182612470565b50505050565b60e08201600082015161269060008501826123f4565b5060208201516126a36020850182612708565b5060408201516126b660408501826123e5565b5060608201516126c960608501826123e5565b5060808201516126dc6080850182612708565b5060a08201516126ef60a0850182612470565b5060c082015161270260c0850182612470565b50505050565b61271181612a95565b82525050565b61272081612a95565b82525050565b600060c08201905061273b6000830189612403565b6127486020830188612403565b6127556040830187612403565b6127626060830186612717565b61276f608083018561247f565b61277c60a083018461247f565b979650505050505050565b600060608201905061279c6000830186612403565b6127a96020830185612403565b6127b66040830184612717565b949350505050565b600060208201905081810360008301526127d88184612412565b905092915050565b60006020820190506127f5600083018461247f565b92915050565b600060208201905081810360008301526128148161248e565b9050919050565b60006020820190508181036000830152612834816124b1565b9050919050565b60006020820190508181036000830152612854816124d4565b9050919050565b60006020820190508181036000830152612874816124f7565b9050919050565b600060208201905081810360008301526128948161251a565b9050919050565b600060208201905081810360008301526128b48161253d565b9050919050565b600060208201905081810360008301526128d481612560565b9050919050565b600060208201905081810360008301526128f481612583565b9050919050565b60006020820190508181036000830152612914816125a6565b9050919050565b60006020820190508181036000830152612934816125c9565b9050919050565b600060e082019050612950600083018461267a565b92915050565b600060208201905061296b6000830184612717565b92915050565b6000819050602082019050919050565b600081519050919050565b6000602082019050919050565b600082825260208201905092915050565b600082825260208201905092915050565b60006129c682612a95565b91506129d183612a95565b9250827fffffffffffffffffffffffffffffffffffffffffffffffffffffffffffffffff03821115612a0657612a05612ae8565b5b828201905092915050565b6000612a1c82612a95565b9150612a2783612a95565b925082821015612a3a57612a39612ae8565b5b828203905092915050565b6000612a5082612a75565b9050919050565b6000612a6282612a75565b9050919050565b60008115159050919050565b600073ffffffffffffffffffffffffffffffffffffffff82169050919050565b6000819050919050565b6000612aaa82612a95565b91507fffffffffffffffffffffffffffffffffffffffffffffffffffffffffffffffff821415612add57612adc612ae8565b5b600182019050919050565b7f4e487b7100000000000000000000000000000000000000000000000000000000600052601160045260246000fd5b7f546f6f206c6f7700000000000000000000000000000000000000000000000000600082015250565b7f4974656d20686173206265656e20616c726561647920736f6c64000000000000600082015250565b7f436f756e7465723a2064656372656d656e74206f766572666c6f770000000000600082015250565b7f4d616b65207375726520796f75206861766520746865206c697374696e67205060008201527f7269636500000000000000000000000000000000000000000000000000000000602082015250565b7f506c6561736520706179207468652061736b696e672070726963650000000000600082015250565b7f4f6e6c79206974656d206f776e65722063616e20706572666f726d207468697360008201527f206f7065726174696f6e00000000000000000000000000000000000000000000602082015250565b7f5072696365206d75737420626520657175616c20746f206c697374696e67207060008201527f7269636500000000000000000000000000000000000000000000000000000000602082015250565b7f4f6e6c79206974656d206f776e6572206f722073656c6c65722063616e20706560008201527f72666f726d207468697300000000000000000000000000000000000000000000602082015250565b7f4f6e6c79206d61726b6574706c616365206f776e65722063616e20757064617460008201527f65206c697374696e672070726963652e00000000000000000000000000000000602082015250565b7f5265656e7472616e637947756172643a207265656e7472616e742063616c6c00600082015250565b612d7881612a45565b8114612d8357600080fd5b50565b612d8f81612a95565b8114612d9a57600080fd5b5056fea264697066735822122004dae8cf7853b7a0267ee968bb2997cbd875ab636d389ad10d0adf804a5474f064736f6c63430008010033",
  "linkReferences": {},
  "deployedLinkReferences": {}
}