{
  "_format": "hh-sol-artifact-1",
  "contractName": "ArtizanMarket",
  "sourceName": "contracts/ArtizanMarket.sol",
  "abi": [
    {
      "inputs": [],
      "stateMutability": "nonpayable",
      "type": "constructor"
    },
    {
      "anonymous": false,
      "inputs": [
        {
          "indexed": false,
          "internalType": "address",
          "name": "nftContract",
          "type": "address"
        },
        {
          "indexed": true,
          "internalType": "uint256",
          "name": "tokenID",
          "type": "uint256"
        },
        {
          "indexed": false,
          "internalType": "address",
          "name": "owner",
          "type": "address"
        },
        {
          "indexed": false,
          "internalType": "address",
          "name": "seller",
          "type": "address"
        },
        {
          "indexed": false,
          "internalType": "uint256",
          "name": "price",
          "type": "uint256"
        },
        {
          "indexed": false,
          "internalType": "bool",
          "name": "sold",
          "type": "bool"
        },
        {
          "indexed": false,
          "internalType": "bool",
          "name": "soldBefore",
          "type": "bool"
        }
      ],
      "name": "MarketItemCreation",
      "type": "event"
    },
    {
      "inputs": [],
      "name": "ListItemsOnSale",
      "outputs": [
        {
          "components": [
            {
              "internalType": "address",
              "name": "nftContract",
              "type": "address"
            },
            {
              "internalType": "uint256",
              "name": "tokenID",
              "type": "uint256"
            },
            {
              "internalType": "address payable",
              "name": "owner",
              "type": "address"
            },
            {
              "internalType": "address payable",
              "name": "seller",
              "type": "address"
            },
            {
              "internalType": "uint256",
              "name": "price",
              "type": "uint256"
            },
            {
              "internalType": "bool",
              "name": "sold",
              "type": "bool"
            },
            {
              "internalType": "bool",
              "name": "soldBefore",
              "type": "bool"
            }
          ],
          "internalType": "struct ArtizanMarket.MarketItem[]",
          "name": "",
          "type": "tuple[]"
        }
      ],
      "stateMutability": "view",
      "type": "function"
    },
    {
      "inputs": [],
      "name": "ListUserOwnItems",
      "outputs": [
        {
          "components": [
            {
              "internalType": "address",
              "name": "nftContract",
              "type": "address"
            },
            {
              "internalType": "uint256",
              "name": "tokenID",
              "type": "uint256"
            },
            {
              "internalType": "address payable",
              "name": "owner",
              "type": "address"
            },
            {
              "internalType": "address payable",
              "name": "seller",
              "type": "address"
            },
            {
              "internalType": "uint256",
              "name": "price",
              "type": "uint256"
            },
            {
              "internalType": "bool",
              "name": "sold",
              "type": "bool"
            },
            {
              "internalType": "bool",
              "name": "soldBefore",
              "type": "bool"
            }
          ],
          "internalType": "struct ArtizanMarket.MarketItem[]",
          "name": "",
          "type": "tuple[]"
        }
      ],
      "stateMutability": "view",
      "type": "function"
    },
    {
      "inputs": [],
      "name": "ListUserSaleItems",
      "outputs": [
        {
          "components": [
            {
              "internalType": "address",
              "name": "nftContract",
              "type": "address"
            },
            {
              "internalType": "uint256",
              "name": "tokenID",
              "type": "uint256"
            },
            {
              "internalType": "address payable",
              "name": "owner",
              "type": "address"
            },
            {
              "internalType": "address payable",
              "name": "seller",
              "type": "address"
            },
            {
              "internalType": "uint256",
              "name": "price",
              "type": "uint256"
            },
            {
              "internalType": "bool",
              "name": "sold",
              "type": "bool"
            },
            {
              "internalType": "bool",
              "name": "soldBefore",
              "type": "bool"
            }
          ],
          "internalType": "struct ArtizanMarket.MarketItem[]",
          "name": "",
          "type": "tuple[]"
        }
      ],
      "stateMutability": "view",
      "type": "function"
    },
    {
      "inputs": [
        {
          "internalType": "address",
          "name": "user",
          "type": "address"
        }
      ],
      "name": "ListUsersAllItems",
      "outputs": [
        {
          "components": [
            {
              "internalType": "address",
              "name": "nftContract",
              "type": "address"
            },
            {
              "internalType": "uint256",
              "name": "tokenID",
              "type": "uint256"
            },
            {
              "internalType": "address payable",
              "name": "owner",
              "type": "address"
            },
            {
              "internalType": "address payable",
              "name": "seller",
              "type": "address"
            },
            {
              "internalType": "uint256",
              "name": "price",
              "type": "uint256"
            },
            {
              "internalType": "bool",
              "name": "sold",
              "type": "bool"
            },
            {
              "internalType": "bool",
              "name": "soldBefore",
              "type": "bool"
            }
          ],
          "internalType": "struct ArtizanMarket.MarketItem[]",
          "name": "",
          "type": "tuple[]"
        }
      ],
      "stateMutability": "view",
      "type": "function"
    },
    {
      "inputs": [
        {
          "internalType": "uint256",
          "name": "tokenId",
          "type": "uint256"
        }
      ],
      "name": "NFTItem",
      "outputs": [
        {
          "components": [
            {
              "internalType": "address",
              "name": "nftContract",
              "type": "address"
            },
            {
              "internalType": "uint256",
              "name": "tokenID",
              "type": "uint256"
            },
            {
              "internalType": "address payable",
              "name": "owner",
              "type": "address"
            },
            {
              "internalType": "address payable",
              "name": "seller",
              "type": "address"
            },
            {
              "internalType": "uint256",
              "name": "price",
              "type": "uint256"
            },
            {
              "internalType": "bool",
              "name": "sold",
              "type": "bool"
            },
            {
              "internalType": "bool",
              "name": "soldBefore",
              "type": "bool"
            }
          ],
          "internalType": "struct ArtizanMarket.MarketItem",
          "name": "",
          "type": "tuple"
        }
      ],
      "stateMutability": "view",
      "type": "function"
    },
    {
      "inputs": [
        {
          "internalType": "uint256",
          "name": "price",
          "type": "uint256"
        },
        {
          "internalType": "address",
          "name": "NftCont",
          "type": "address"
        },
        {
          "internalType": "uint256",
          "name": "tokenId",
          "type": "uint256"
        }
      ],
      "name": "ResellNFT",
      "outputs": [],
      "stateMutability": "payable",
      "type": "function"
    },
    {
      "inputs": [
        {
          "internalType": "uint256",
          "name": "price",
          "type": "uint256"
        },
        {
          "internalType": "address",
          "name": "NftCont",
          "type": "address"
        },
        {
          "internalType": "uint256",
          "name": "tokenId",
          "type": "uint256"
        }
      ],
      "name": "StopNFTSale",
      "outputs": [],
      "stateMutability": "payable",
      "type": "function"
    },
    {
      "inputs": [
        {
          "internalType": "uint256",
          "name": "price",
          "type": "uint256"
        },
        {
          "internalType": "address",
          "name": "NftCont",
          "type": "address"
        },
        {
          "internalType": "uint256",
          "name": "tokenId",
          "type": "uint256"
        }
      ],
      "name": "createMarketItem",
      "outputs": [],
      "stateMutability": "payable",
      "type": "function"
    },
    {
      "inputs": [
        {
          "internalType": "address",
          "name": "NftCont",
          "type": "address"
        },
        {
          "internalType": "uint256",
          "name": "tokenId",
          "type": "uint256"
        }
      ],
      "name": "createMarketSale",
      "outputs": [],
      "stateMutability": "payable",
      "type": "function"
    },
    {
      "inputs": [],
      "name": "getListingPrice",
      "outputs": [
        {
          "internalType": "uint256",
          "name": "",
          "type": "uint256"
        }
      ],
      "stateMutability": "view",
      "type": "function"
    },
    {
      "inputs": [
        {
          "internalType": "uint256",
          "name": "tokenId",
          "type": "uint256"
        }
      ],
      "name": "isSoldBefore",
      "outputs": [
        {
          "internalType": "bool",
          "name": "",
          "type": "bool"
        }
      ],
      "stateMutability": "view",
      "type": "function"
    },
    {
      "inputs": [
        {
          "internalType": "uint256",
          "name": "_listingPrice",
          "type": "uint256"
        }
      ],
      "name": "updateListingPrice",
      "outputs": [],
      "stateMutability": "payable",
      "type": "function"
    }
  ],
  "bytecode": "0x6080604052662386f26fc1000060045534801561001b57600080fd5b50600160008190555033600360006101000a81548173ffffffffffffffffffffffffffffffffffffffff021916908373ffffffffffffffffffffffffffffffffffffffff160217905550612d7b806100746000396000f3fe6080604052600436106100a75760003560e01c80638471075d116100645780638471075d146101b4578063986d88e0146101d0578063a9a440c9146101fb578063ae677aa314610226578063b19d4e0814610242578063c23b139e1461027f576100a7565b806308aaac95146100ac578063112b3584146100e957806312e85585146101145780632ffb12bb1461013f5780635b9e43281461015b5780638299506714610198575b600080fd5b3480156100b857600080fd5b506100d360048036038101906100ce91906122fd565b61029b565b6040516100e09190612788565b60405180910390f35b3480156100f557600080fd5b506100fe6102f9565b60405161010b9190612766565b60405180910390f35b34801561012057600080fd5b506101296106a4565b60405161013691906128fe565b60405180910390f35b61015960048036038101906101549190612326565b6106ae565b005b34801561016757600080fd5b50610182600480360381019061017d9190612298565b61097d565b60405161018f9190612766565b60405180910390f35b6101b260048036038101906101ad9190612326565b610e1a565b005b6101ce60048036038101906101c99190612326565b611199565b005b3480156101dc57600080fd5b506101e56114a6565b6040516101f29190612766565b60405180910390f35b34801561020757600080fd5b506102106117cc565b60405161021d9190612766565b60405180910390f35b610240600480360381019061023b91906122fd565b611b77565b005b34801561024e57600080fd5b50610269600480360381019061026491906122fd565b611c11565b60405161027691906128e3565b60405180910390f35b610299600480360381019061029491906122c1565b611da3565b005b60008060066000848152602001908152602001600020549050600115156005600083815260200190815260200160002060050160019054906101000a900460ff16151514156102ee5760019150506102f4565b60009150505b919050565b60606000610307600161216b565b905060008060005b838110156103b0573373ffffffffffffffffffffffffffffffffffffffff166005600060018461033f9190612963565b815260200190815260200160002060020160009054906101000a900473ffffffffffffffffffffffffffffffffffffffff1673ffffffffffffffffffffffffffffffffffffffff16141561039d5760018361039a9190612963565b92505b80806103a890612a47565b91505061030f565b5060008267ffffffffffffffff8111156103f3577f4e487b7100000000000000000000000000000000000000000000000000000000600052604160045260246000fd5b60405190808252806020026020018201604052801561042c57816020015b6104196121eb565b8152602001906001900390816104115790505b50905060005b84811015610699573373ffffffffffffffffffffffffffffffffffffffff16600560006001846104629190612963565b815260200190815260200160002060020160009054906101000a900473ffffffffffffffffffffffffffffffffffffffff1673ffffffffffffffffffffffffffffffffffffffff1614156106865760006001826104bf9190612963565b90506000600560008381526020019081526020016000209050806040518060e00160405290816000820160009054906101000a900473ffffffffffffffffffffffffffffffffffffffff1673ffffffffffffffffffffffffffffffffffffffff1673ffffffffffffffffffffffffffffffffffffffff168152602001600182015481526020016002820160009054906101000a900473ffffffffffffffffffffffffffffffffffffffff1673ffffffffffffffffffffffffffffffffffffffff1673ffffffffffffffffffffffffffffffffffffffff1681526020016003820160009054906101000a900473ffffffffffffffffffffffffffffffffffffffff1673ffffffffffffffffffffffffffffffffffffffff1673ffffffffffffffffffffffffffffffffffffffff168152602001600482015481526020016005820160009054906101000a900460ff161515151581526020016005820160019054906101000a900460ff161515151581525050848681518110610669577f4e487b7100000000000000000000000000000000000000000000000000000000600052603260045260246000fd5b60200260200101819052506001856106819190612963565b945050505b808061069190612a47565b915050610432565b508094505050505090565b6000600454905090565b600260005414156106f4576040517f08c379a00000000000000000000000000000000000000000000000000000000081526004016106eb906128c3565b60405180910390fd5b60026000819055506000600660008381526020019081526020016000205490503373ffffffffffffffffffffffffffffffffffffffff166005600083815260200190815260200160002060020160009054906101000a900473ffffffffffffffffffffffffffffffffffffffff1673ffffffffffffffffffffffffffffffffffffffff16146107b8576040517f08c379a00000000000000000000000000000000000000000000000000000000081526004016107af90612843565b60405180910390fd5b60045434146107fc576040517f08c379a00000000000000000000000000000000000000000000000000000000081526004016107f390612863565b60405180910390fd5b60008390508073ffffffffffffffffffffffffffffffffffffffff1663f5537ede3330866040518463ffffffff1660e01b815260040161083e9392919061272f565b600060405180830381600087803b15801561085857600080fd5b505af115801561086c573d6000803e3d6000fd5b5050505060006005600084815260200190815260200160002060050160006101000a81548160ff021916908315150217905550846005600084815260200190815260200160002060040181905550336005600084815260200190815260200160002060030160006101000a81548173ffffffffffffffffffffffffffffffffffffffff021916908373ffffffffffffffffffffffffffffffffffffffff160217905550306005600084815260200190815260200160002060020160006101000a81548173ffffffffffffffffffffffffffffffffffffffff021916908373ffffffffffffffffffffffffffffffffffffffff16021790555061096e6002612179565b50506001600081905550505050565b6060600061098b600161216b565b905060008060005b83811015610aac578573ffffffffffffffffffffffffffffffffffffffff16600560006001846109c39190612963565b815260200190815260200160002060030160009054906101000a900473ffffffffffffffffffffffffffffffffffffffff1673ffffffffffffffffffffffffffffffffffffffff161480610a8457508573ffffffffffffffffffffffffffffffffffffffff1660056000600184610a3a9190612963565b815260200190815260200160002060020160009054906101000a900473ffffffffffffffffffffffffffffffffffffffff1673ffffffffffffffffffffffffffffffffffffffff16145b15610a9957600183610a969190612963565b92505b8080610aa490612a47565b915050610993565b5060008267ffffffffffffffff811115610aef577f4e487b7100000000000000000000000000000000000000000000000000000000600052604160045260246000fd5b604051908082528060200260200182016040528015610b2857816020015b610b156121eb565b815260200190600190039081610b0d5790505b50905060005b84811015610e0d578673ffffffffffffffffffffffffffffffffffffffff1660056000600184610b5e9190612963565b815260200190815260200160002060030160009054906101000a900473ffffffffffffffffffffffffffffffffffffffff1673ffffffffffffffffffffffffffffffffffffffff161480610c1f57508673ffffffffffffffffffffffffffffffffffffffff1660056000600184610bd59190612963565b815260200190815260200160002060020160009054906101000a900473ffffffffffffffffffffffffffffffffffffffff1673ffffffffffffffffffffffffffffffffffffffff16145b15610dfa576000600182610c339190612963565b90506000600560008381526020019081526020016000209050806040518060e00160405290816000820160009054906101000a900473ffffffffffffffffffffffffffffffffffffffff1673ffffffffffffffffffffffffffffffffffffffff1673ffffffffffffffffffffffffffffffffffffffff168152602001600182015481526020016002820160009054906101000a900473ffffffffffffffffffffffffffffffffffffffff1673ffffffffffffffffffffffffffffffffffffffff1673ffffffffffffffffffffffffffffffffffffffff1681526020016003820160009054906101000a900473ffffffffffffffffffffffffffffffffffffffff1673ffffffffffffffffffffffffffffffffffffffff1673ffffffffffffffffffffffffffffffffffffffff168152602001600482015481526020016005820160009054906101000a900460ff161515151581526020016005820160019054906101000a900460ff161515151581525050848681518110610ddd577f4e487b7100000000000000000000000000000000000000000000000000000000600052603260045260246000fd5b6020026020010181905250600185610df59190612963565b945050505b8080610e0590612a47565b915050610b2e565b5080945050505050919050565b60026000541415610e60576040517f08c379a0000000000000000000000000000000000000000000000000000000008152600401610e57906128c3565b60405180910390fd5b600260008190555060008311610eab576040517f08c379a0000000000000000000000000000000000000000000000000000000008152600401610ea2906127a3565b60405180910390fd5b6004543414610eef576040517f08c379a0000000000000000000000000000000000000000000000000000000008152600401610ee690612803565b60405180910390fd5b610ef960016121d5565b6000610f05600161216b565b90508060066000848152602001908152602001600020819055506040518060e001604052808473ffffffffffffffffffffffffffffffffffffffff1681526020018381526020013073ffffffffffffffffffffffffffffffffffffffff1681526020013373ffffffffffffffffffffffffffffffffffffffff168152602001858152602001600015158152602001600015158152506005600083815260200190815260200160002060008201518160000160006101000a81548173ffffffffffffffffffffffffffffffffffffffff021916908373ffffffffffffffffffffffffffffffffffffffff1602179055506020820151816001015560408201518160020160006101000a81548173ffffffffffffffffffffffffffffffffffffffff021916908373ffffffffffffffffffffffffffffffffffffffff16021790555060608201518160030160006101000a81548173ffffffffffffffffffffffffffffffffffffffff021916908373ffffffffffffffffffffffffffffffffffffffff1602179055506080820151816004015560a08201518160050160006101000a81548160ff02191690831515021790555060c08201518160050160016101000a81548160ff0219169083151502179055509050508273ffffffffffffffffffffffffffffffffffffffff166323b872dd3330856040518463ffffffff1660e01b81526004016111169392919061272f565b600060405180830381600087803b15801561113057600080fd5b505af1158015611144573d6000803e3d6000fd5b50505050817f09ac0a12466f38c0bad2fdf849798b4897443678be5268fc8c21861fd6c9392084303388600080604051611183969594939291906126ce565b60405180910390a2506001600081905550505050565b600260005414156111df576040517f08c379a00000000000000000000000000000000000000000000000000000000081526004016111d6906128c3565b60405180910390fd5b60026000819055506000600660008381526020019081526020016000205490506005600082815260200190815260200160002060030160009054906101000a900473ffffffffffffffffffffffffffffffffffffffff1673ffffffffffffffffffffffffffffffffffffffff163373ffffffffffffffffffffffffffffffffffffffff1614806112bc5750600360009054906101000a900473ffffffffffffffffffffffffffffffffffffffff1673ffffffffffffffffffffffffffffffffffffffff163373ffffffffffffffffffffffffffffffffffffffff16145b6112fb576040517f08c379a00000000000000000000000000000000000000000000000000000000081526004016112f290612883565b60405180910390fd5b60016005600083815260200190815260200160002060050160006101000a81548160ff02191690831515021790555083600560008381526020019081526020016000206004018190555060006005600083815260200190815260200160002060030160006101000a81548173ffffffffffffffffffffffffffffffffffffffff021916908373ffffffffffffffffffffffffffffffffffffffff160217905550336005600083815260200190815260200160002060020160006101000a81548173ffffffffffffffffffffffffffffffffffffffff021916908373ffffffffffffffffffffffffffffffffffffffff16021790555060016005600083815260200190815260200160002060050160016101000a81548160ff02191690831515021790555061142960026121d5565b8273ffffffffffffffffffffffffffffffffffffffff166323b872dd3033856040518463ffffffff1660e01b81526004016114669392919061272f565b600060405180830381600087803b15801561148057600080fd5b505af1158015611494573d6000803e3d6000fd5b50505050506001600081905550505050565b606060006114b4600161216b565b905060006114c2600261216b565b6114cc600161216b565b6114d691906129b9565b90506000808267ffffffffffffffff81111561151b577f4e487b7100000000000000000000000000000000000000000000000000000000600052604160045260246000fd5b60405190808252806020026020018201604052801561155457816020015b6115416121eb565b8152602001906001900390816115395790505b50905060005b848110156117c1573073ffffffffffffffffffffffffffffffffffffffff166005600060018461158a9190612963565b815260200190815260200160002060020160009054906101000a900473ffffffffffffffffffffffffffffffffffffffff1673ffffffffffffffffffffffffffffffffffffffff1614156117ae5760006001826115e79190612963565b90506000600560008381526020019081526020016000209050806040518060e00160405290816000820160009054906101000a900473ffffffffffffffffffffffffffffffffffffffff1673ffffffffffffffffffffffffffffffffffffffff1673ffffffffffffffffffffffffffffffffffffffff168152602001600182015481526020016002820160009054906101000a900473ffffffffffffffffffffffffffffffffffffffff1673ffffffffffffffffffffffffffffffffffffffff1673ffffffffffffffffffffffffffffffffffffffff1681526020016003820160009054906101000a900473ffffffffffffffffffffffffffffffffffffffff1673ffffffffffffffffffffffffffffffffffffffff1673ffffffffffffffffffffffffffffffffffffffff168152602001600482015481526020016005820160009054906101000a900460ff161515151581526020016005820160019054906101000a900460ff161515151581525050848681518110611791577f4e487b7100000000000000000000000000000000000000000000000000000000600052603260045260246000fd5b60200260200101819052506001856117a99190612963565b945050505b80806117b990612a47565b91505061155a565b508094505050505090565b606060006117da600161216b565b905060008060005b83811015611883573373ffffffffffffffffffffffffffffffffffffffff16600560006001846118129190612963565b815260200190815260200160002060030160009054906101000a900473ffffffffffffffffffffffffffffffffffffffff1673ffffffffffffffffffffffffffffffffffffffff1614156118705760018361186d9190612963565b92505b808061187b90612a47565b9150506117e2565b5060008267ffffffffffffffff8111156118c6577f4e487b7100000000000000000000000000000000000000000000000000000000600052604160045260246000fd5b6040519080825280602002602001820160405280156118ff57816020015b6118ec6121eb565b8152602001906001900390816118e45790505b50905060005b84811015611b6c573373ffffffffffffffffffffffffffffffffffffffff16600560006001846119359190612963565b815260200190815260200160002060030160009054906101000a900473ffffffffffffffffffffffffffffffffffffffff1673ffffffffffffffffffffffffffffffffffffffff161415611b595760006001826119929190612963565b90506000600560008381526020019081526020016000209050806040518060e00160405290816000820160009054906101000a900473ffffffffffffffffffffffffffffffffffffffff1673ffffffffffffffffffffffffffffffffffffffff1673ffffffffffffffffffffffffffffffffffffffff168152602001600182015481526020016002820160009054906101000a900473ffffffffffffffffffffffffffffffffffffffff1673ffffffffffffffffffffffffffffffffffffffff1673ffffffffffffffffffffffffffffffffffffffff1681526020016003820160009054906101000a900473ffffffffffffffffffffffffffffffffffffffff1673ffffffffffffffffffffffffffffffffffffffff1673ffffffffffffffffffffffffffffffffffffffff168152602001600482015481526020016005820160009054906101000a900460ff161515151581526020016005820160019054906101000a900460ff161515151581525050848681518110611b3c577f4e487b7100000000000000000000000000000000000000000000000000000000600052603260045260246000fd5b6020026020010181905250600185611b549190612963565b945050505b8080611b6490612a47565b915050611905565b508094505050505090565b3373ffffffffffffffffffffffffffffffffffffffff16600360009054906101000a900473ffffffffffffffffffffffffffffffffffffffff1673ffffffffffffffffffffffffffffffffffffffff1614611c07576040517f08c379a0000000000000000000000000000000000000000000000000000000008152600401611bfe906128a3565b60405180910390fd5b8060048190555050565b611c196121eb565b600060066000848152602001908152602001600020549050600560008281526020019081526020016000206040518060e00160405290816000820160009054906101000a900473ffffffffffffffffffffffffffffffffffffffff1673ffffffffffffffffffffffffffffffffffffffff1673ffffffffffffffffffffffffffffffffffffffff168152602001600182015481526020016002820160009054906101000a900473ffffffffffffffffffffffffffffffffffffffff1673ffffffffffffffffffffffffffffffffffffffff1673ffffffffffffffffffffffffffffffffffffffff1681526020016003820160009054906101000a900473ffffffffffffffffffffffffffffffffffffffff1673ffffffffffffffffffffffffffffffffffffffff1673ffffffffffffffffffffffffffffffffffffffff168152602001600482015481526020016005820160009054906101000a900460ff161515151581526020016005820160019054906101000a900460ff161515151581525050915050919050565b60026000541415611de9576040517f08c379a0000000000000000000000000000000000000000000000000000000008152600401611de0906128c3565b60405180910390fd5b600260008190555060006006600083815260200190815260200160002054905060006005600083815260200190815260200160002060040154905060006005600084815260200190815260200160002060010154905060006005600085815260200190815260200160002060030160009054906101000a900473ffffffffffffffffffffffffffffffffffffffff16905082341015611ebd576040517f08c379a0000000000000000000000000000000000000000000000000000000008152600401611eb490612823565b60405180910390fd5b600015156005600086815260200190815260200160002060050160009054906101000a900460ff16151514611f27576040517f08c379a0000000000000000000000000000000000000000000000000000000008152600401611f1e906127c3565b60405180910390fd5b336005600086815260200190815260200160002060020160006101000a81548173ffffffffffffffffffffffffffffffffffffffff021916908373ffffffffffffffffffffffffffffffffffffffff16021790555060016005600086815260200190815260200160002060050160006101000a81548160ff02191690831515021790555060006005600086815260200190815260200160002060030160006101000a81548173ffffffffffffffffffffffffffffffffffffffff021916908373ffffffffffffffffffffffffffffffffffffffff16021790555060016005600086815260200190815260200160002060050160016101000a81548160ff02191690831515021790555061203a60026121d5565b8573ffffffffffffffffffffffffffffffffffffffff166323b872dd3033856040518463ffffffff1660e01b81526004016120779392919061272f565b600060405180830381600087803b15801561209157600080fd5b505af11580156120a5573d6000803e3d6000fd5b50505050600360009054906101000a900473ffffffffffffffffffffffffffffffffffffffff1673ffffffffffffffffffffffffffffffffffffffff166108fc6004549081150290604051600060405180830381858888f19350505050158015612113573d6000803e3d6000fd5b508073ffffffffffffffffffffffffffffffffffffffff166108fc349081150290604051600060405180830381858888f1935050505015801561215a573d6000803e3d6000fd5b505050505060016000819055505050565b600081600001549050919050565b600081600001549050600081116121c5576040517f08c379a00000000000000000000000000000000000000000000000000000000081526004016121bc906127e3565b60405180910390fd5b6001810382600001819055505050565b6001816000016000828254019250508190555050565b6040518060e00160405280600073ffffffffffffffffffffffffffffffffffffffff16815260200160008152602001600073ffffffffffffffffffffffffffffffffffffffff168152602001600073ffffffffffffffffffffffffffffffffffffffff168152602001600081526020016000151581526020016000151581525090565b60008135905061227d81612d17565b92915050565b60008135905061229281612d2e565b92915050565b6000602082840312156122aa57600080fd5b60006122b88482850161226e565b91505092915050565b600080604083850312156122d457600080fd5b60006122e28582860161226e565b92505060206122f385828601612283565b9150509250929050565b60006020828403121561230f57600080fd5b600061231d84828501612283565b91505092915050565b60008060006060848603121561233b57600080fd5b600061234986828701612283565b935050602061235a8682870161226e565b925050604061236b86828701612283565b9150509250925092565b60006123818383612594565b60e08301905092915050565b612396816129ff565b82525050565b6123a5816129ed565b82525050565b6123b4816129ed565b82525050565b60006123c582612929565b6123cf8185612941565b93506123da83612919565b8060005b8381101561240b5781516123f28882612375565b97506123fd83612934565b9250506001810190506123de565b5085935050505092915050565b61242181612a11565b82525050565b61243081612a11565b82525050565b6000612443600783612952565b915061244e82612abf565b602082019050919050565b6000612466601a83612952565b915061247182612ae8565b602082019050919050565b6000612489601b83612952565b915061249482612b11565b602082019050919050565b60006124ac602483612952565b91506124b782612b3a565b604082019050919050565b60006124cf601b83612952565b91506124da82612b89565b602082019050919050565b60006124f2602a83612952565b91506124fd82612bb2565b604082019050919050565b6000612515602483612952565b915061252082612c01565b604082019050919050565b6000612538602a83612952565b915061254382612c50565b604082019050919050565b600061255b603083612952565b915061256682612c9f565b604082019050919050565b600061257e601f83612952565b915061258982612cee565b602082019050919050565b60e0820160008201516125aa600085018261239c565b5060208201516125bd60208501826126b0565b5060408201516125d0604085018261238d565b5060608201516125e3606085018261238d565b5060808201516125f660808501826126b0565b5060a082015161260960a0850182612418565b5060c082015161261c60c0850182612418565b50505050565b60e082016000820151612638600085018261239c565b50602082015161264b60208501826126b0565b50604082015161265e604085018261238d565b506060820151612671606085018261238d565b50608082015161268460808501826126b0565b5060a082015161269760a0850182612418565b5060c08201516126aa60c0850182612418565b50505050565b6126b981612a3d565b82525050565b6126c881612a3d565b82525050565b600060c0820190506126e360008301896123ab565b6126f060208301886123ab565b6126fd60408301876123ab565b61270a60608301866126bf565b6127176080830185612427565b61272460a0830184612427565b979650505050505050565b600060608201905061274460008301866123ab565b61275160208301856123ab565b61275e60408301846126bf565b949350505050565b6000602082019050818103600083015261278081846123ba565b905092915050565b600060208201905061279d6000830184612427565b92915050565b600060208201905081810360008301526127bc81612436565b9050919050565b600060208201905081810360008301526127dc81612459565b9050919050565b600060208201905081810360008301526127fc8161247c565b9050919050565b6000602082019050818103600083015261281c8161249f565b9050919050565b6000602082019050818103600083015261283c816124c2565b9050919050565b6000602082019050818103600083015261285c816124e5565b9050919050565b6000602082019050818103600083015261287c81612508565b9050919050565b6000602082019050818103600083015261289c8161252b565b9050919050565b600060208201905081810360008301526128bc8161254e565b9050919050565b600060208201905081810360008301526128dc81612571565b9050919050565b600060e0820190506128f86000830184612622565b92915050565b600060208201905061291360008301846126bf565b92915050565b6000819050602082019050919050565b600081519050919050565b6000602082019050919050565b600082825260208201905092915050565b600082825260208201905092915050565b600061296e82612a3d565b915061297983612a3d565b9250827fffffffffffffffffffffffffffffffffffffffffffffffffffffffffffffffff038211156129ae576129ad612a90565b5b828201905092915050565b60006129c482612a3d565b91506129cf83612a3d565b9250828210156129e2576129e1612a90565b5b828203905092915050565b60006129f882612a1d565b9050919050565b6000612a0a82612a1d565b9050919050565b60008115159050919050565b600073ffffffffffffffffffffffffffffffffffffffff82169050919050565b6000819050919050565b6000612a5282612a3d565b91507fffffffffffffffffffffffffffffffffffffffffffffffffffffffffffffffff821415612a8557612a84612a90565b5b600182019050919050565b7f4e487b7100000000000000000000000000000000000000000000000000000000600052601160045260246000fd5b7f546f6f206c6f7700000000000000000000000000000000000000000000000000600082015250565b7f4974656d20686173206265656e20616c726561647920736f6c64000000000000600082015250565b7f436f756e7465723a2064656372656d656e74206f766572666c6f770000000000600082015250565b7f4d616b65207375726520796f75206861766520746865206c697374696e67205060008201527f7269636500000000000000000000000000000000000000000000000000000000602082015250565b7f506c6561736520706179207468652061736b696e672070726963650000000000600082015250565b7f4f6e6c79206974656d206f776e65722063616e20706572666f726d207468697360008201527f206f7065726174696f6e00000000000000000000000000000000000000000000602082015250565b7f5072696365206d75737420626520657175616c20746f206c697374696e67207060008201527f7269636500000000000000000000000000000000000000000000000000000000602082015250565b7f4f6e6c79206974656d206f776e6572206f722073656c6c65722063616e20706560008201527f72666f726d207468697300000000000000000000000000000000000000000000602082015250565b7f4f6e6c79206d61726b6574706c616365206f776e65722063616e20757064617460008201527f65206c697374696e672070726963652e00000000000000000000000000000000602082015250565b7f5265656e7472616e637947756172643a207265656e7472616e742063616c6c00600082015250565b612d20816129ed565b8114612d2b57600080fd5b50565b612d3781612a3d565b8114612d4257600080fd5b5056fea26469706673582212201ae2dcab83771707c1180b40720e1bec27e9245318077786f385e941f3bebf5664736f6c63430008010033",
  "linkReferences": {},
  "deployedLinkReferences": {}
}