{
  "_format": "hh-sol-artifact-1",
  "contractName": "ArtizanMarket",
  "sourceName": "contracts/ArtizanMarket.sol",
  "abi": [
    {
      "inputs": [],
      "stateMutability": "nonpayable",
      "type": "constructor"
    },
    {
      "anonymous": false,
      "inputs": [
        {
          "indexed": false,
          "internalType": "uint256",
          "name": "nft_id",
          "type": "uint256"
        },
        {
          "indexed": false,
          "internalType": "uint256",
          "name": "time",
          "type": "uint256"
        },
        {
          "indexed": false,
          "internalType": "uint256",
          "name": "expire_date",
          "type": "uint256"
        },
        {
          "indexed": false,
          "internalType": "address",
          "name": "owner",
          "type": "address"
        }
      ],
      "name": "Buying",
      "type": "event"
    },
    {
      "anonymous": false,
      "inputs": [
        {
          "indexed": true,
          "internalType": "uint256",
          "name": "tokenID",
          "type": "uint256"
        },
        {
          "indexed": false,
          "internalType": "uint256",
          "name": "time",
          "type": "uint256"
        },
        {
          "indexed": false,
          "internalType": "address",
          "name": "seller",
          "type": "address"
        },
        {
          "indexed": false,
          "internalType": "uint256",
          "name": "price",
          "type": "uint256"
        }
      ],
      "name": "Listing",
      "type": "event"
    },
    {
      "anonymous": false,
      "inputs": [
        {
          "indexed": false,
          "internalType": "address",
          "name": "account",
          "type": "address"
        },
        {
          "indexed": false,
          "internalType": "string",
          "name": "name",
          "type": "string"
        }
      ],
      "name": "WhitelistAdded",
      "type": "event"
    },
    {
      "inputs": [
        {
          "internalType": "uint256",
          "name": "tokenId",
          "type": "uint256"
        }
      ],
      "name": "NFTItem",
      "outputs": [
        {
          "components": [
            {
              "internalType": "uint256",
              "name": "nft_id",
              "type": "uint256"
            },
            {
              "internalType": "uint256",
              "name": "price",
              "type": "uint256"
            },
            {
              "internalType": "uint256",
              "name": "time",
              "type": "uint256"
            },
            {
              "internalType": "uint256",
              "name": "expire_date",
              "type": "uint256"
            },
            {
              "internalType": "address",
              "name": "owner",
              "type": "address"
            },
            {
              "internalType": "address",
              "name": "seller",
              "type": "address"
            },
            {
              "internalType": "string",
              "name": "company",
              "type": "string"
            }
          ],
          "internalType": "struct ArtizanMarket.ListInfo",
          "name": "",
          "type": "tuple"
        }
      ],
      "stateMutability": "view",
      "type": "function"
    },
    {
      "inputs": [
        {
          "internalType": "address",
          "name": "NftCont",
          "type": "address"
        },
        {
          "internalType": "uint256",
          "name": "tokenId",
          "type": "uint256"
        }
      ],
      "name": "StopNFTSale",
      "outputs": [],
      "stateMutability": "payable",
      "type": "function"
    },
    {
      "inputs": [
        {
          "internalType": "address",
          "name": "account",
          "type": "address"
        },
        {
          "internalType": "address",
          "name": "caller",
          "type": "address"
        },
        {
          "internalType": "string",
          "name": "name",
          "type": "string"
        }
      ],
      "name": "addToWhitelist",
      "outputs": [],
      "stateMutability": "nonpayable",
      "type": "function"
    },
    {
      "inputs": [
        {
          "internalType": "uint256",
          "name": "price",
          "type": "uint256"
        },
        {
          "internalType": "uint256",
          "name": "nft_id",
          "type": "uint256"
        },
        {
          "internalType": "uint256",
          "name": "time",
          "type": "uint256"
        },
        {
          "internalType": "address",
          "name": "nft_address",
          "type": "address"
        },
        {
          "internalType": "string",
          "name": "company",
          "type": "string"
        }
      ],
      "name": "createMarketItem",
      "outputs": [],
      "stateMutability": "payable",
      "type": "function"
    },
    {
      "inputs": [
        {
          "internalType": "address",
          "name": "nft_address",
          "type": "address"
        },
        {
          "internalType": "uint256",
          "name": "nft_id",
          "type": "uint256"
        }
      ],
      "name": "createMarketSale",
      "outputs": [],
      "stateMutability": "payable",
      "type": "function"
    },
    {
      "inputs": [],
      "name": "getOwner",
      "outputs": [
        {
          "internalType": "address",
          "name": "",
          "type": "address"
        }
      ],
      "stateMutability": "view",
      "type": "function"
    },
    {
      "inputs": [
        {
          "internalType": "address",
          "name": "account",
          "type": "address"
        }
      ],
      "name": "isOwner",
      "outputs": [
        {
          "internalType": "bool",
          "name": "",
          "type": "bool"
        }
      ],
      "stateMutability": "view",
      "type": "function"
    },
    {
      "inputs": [
        {
          "internalType": "address",
          "name": "account",
          "type": "address"
        }
      ],
      "name": "isWhitelisted",
      "outputs": [
        {
          "internalType": "bool",
          "name": "",
          "type": "bool"
        }
      ],
      "stateMutability": "view",
      "type": "function"
    },
    {
      "inputs": [
        {
          "internalType": "string",
          "name": "companyToAccess",
          "type": "string"
        }
      ],
      "name": "verify",
      "outputs": [
        {
          "internalType": "bool",
          "name": "",
          "type": "bool"
        }
      ],
      "stateMutability": "view",
      "type": "function"
    },
    {
      "inputs": [
        {
          "internalType": "address",
          "name": "",
          "type": "address"
        }
      ],
      "name": "whitelist",
      "outputs": [
        {
          "internalType": "address",
          "name": "account",
          "type": "address"
        },
        {
          "internalType": "string",
          "name": "name",
          "type": "string"
        }
      ],
      "stateMutability": "view",
      "type": "function"
    },
    {
      "inputs": [
        {
          "internalType": "uint256",
          "name": "",
          "type": "uint256"
        }
      ],
      "name": "whitelistArray",
      "outputs": [
        {
          "internalType": "address",
          "name": "account",
          "type": "address"
        },
        {
          "internalType": "string",
          "name": "name",
          "type": "string"
        }
      ],
      "stateMutability": "view",
      "type": "function"
    }
  ],
  "bytecode": "0x60806040523480156200001157600080fd5b50600160008190555033600260006101000a81548173ffffffffffffffffffffffffffffffffffffffff021916908373ffffffffffffffffffffffffffffffffffffffff160217905550620000a333336040518060400160405280600e81526020017f636f6e74726163745f6f776e6572000000000000000000000000000000000000815250620000a960201b60201c565b6200074c565b600073ffffffffffffffffffffffffffffffffffffffff16600660008573ffffffffffffffffffffffffffffffffffffffff1673ffffffffffffffffffffffffffffffffffffffff16815260200190815260200160002060000160009054906101000a900473ffffffffffffffffffffffffffffffffffffffff1673ffffffffffffffffffffffffffffffffffffffff16146200017d576040517f08c379a0000000000000000000000000000000000000000000000000000000008152600401620001749062000590565b60405180910390fd5b6200018e826200037d60201b60201c565b620001d0576040517f08c379a0000000000000000000000000000000000000000000000000000000008152600401620001c7906200056e565b60405180910390fd5b600060405180604001604052808573ffffffffffffffffffffffffffffffffffffffff16815260200183815250905080600660008673ffffffffffffffffffffffffffffffffffffffff1673ffffffffffffffffffffffffffffffffffffffff16815260200190815260200160002060008201518160000160006101000a81548173ffffffffffffffffffffffffffffffffffffffff021916908373ffffffffffffffffffffffffffffffffffffffff1602179055506020820151816001019080519060200190620002a4929190620003ea565b50905050600781908060018154018082558091505060019003906000526020600020906002020160009091909190915060008201518160000160006101000a81548173ffffffffffffffffffffffffffffffffffffffff021916908373ffffffffffffffffffffffffffffffffffffffff160217905550602082015181600101908051906020019062000339929190620003ea565b5050507fc099bb576ab769941d5df2a2e3a78102b73a991c8995d492f8ff2b716fe7553484836040516200036f9291906200053a565b60405180910390a150505050565b6000600260009054906101000a900473ffffffffffffffffffffffffffffffffffffffff1673ffffffffffffffffffffffffffffffffffffffff168273ffffffffffffffffffffffffffffffffffffffff161415620003e05760019050620003e5565b600090505b919050565b828054620003f89062000638565b90600052602060002090601f0160209004810192826200041c576000855562000468565b82601f106200043757805160ff191683800117855562000468565b8280016001018555821562000468579182015b82811115620004675782518255916020019190600101906200044a565b5b5090506200047791906200047b565b5090565b5b80821115620004965760008160009055506001016200047c565b5090565b620004a581620005ce565b82525050565b6000620004b882620005b2565b620004c48185620005bd565b9350620004d681856020860162000602565b620004e1816200069d565b840191505092915050565b6000620004fb602883620005bd565b91506200050882620006ae565b604082019050919050565b600062000522602483620005bd565b91506200052f82620006fd565b604082019050919050565b60006040820190506200055160008301856200049a565b8181036020830152620005658184620004ab565b90509392505050565b600060208201905081810360008301526200058981620004ec565b9050919050565b60006020820190508181036000830152620005ab8162000513565b9050919050565b600081519050919050565b600082825260208201905092915050565b6000620005db82620005e2565b9050919050565b600073ffffffffffffffffffffffffffffffffffffffff82169050919050565b60005b838110156200062257808201518184015260208101905062000605565b8381111562000632576000848401525b50505050565b600060028204905060018216806200065157607f821691505b602082108114156200066857620006676200066e565b5b50919050565b7f4e487b7100000000000000000000000000000000000000000000000000000000600052602260045260246000fd5b6000601f19601f8301169050919050565b7f43616c6c6572206973206e6f7420746865206f776e6572206f6620746865206360008201527f6f6e74726163742e000000000000000000000000000000000000000000000000602082015250565b7f4164647265737320697320616c7265616479206f6e207468652077686974656c60008201527f6973742e00000000000000000000000000000000000000000000000000000000602082015250565b612159806200075c6000396000f3fe60806040526004361061009c5760003560e01c80639b19251a116100645780639b19251a1461017e578063b19d4e08146101bc578063bb9c6c3e146101f9578063c23b139e14610236578063d251fefc14610252578063dc08b133146102905761009c565b806316294843146100a15780632f54bf6e146100bd57806339ce6bf9146100fa5780633af32abf14610116578063893d20e814610153575b600080fd5b6100bb60048036038101906100b69190611732565b6102b9565b005b3480156100c957600080fd5b506100e460048036038101906100df91906116a2565b6104ea565b6040516100f19190611b5c565b60405180910390f35b610114600480360381019061010f91906117d8565b610555565b005b34801561012257600080fd5b5061013d600480360381019061013891906116a2565b61081a565b60405161014a9190611b5c565b60405180910390f35b34801561015f57600080fd5b506101686108b5565b6040516101759190611ada565b60405180910390f35b34801561018a57600080fd5b506101a560048036038101906101a091906116a2565b6108df565b6040516101b3929190611b2c565b60405180910390f35b3480156101c857600080fd5b506101e360048036038101906101de91906117af565b6109ab565b6040516101f09190611c37565b60405180910390f35b34801561020557600080fd5b50610220600480360381019061021b919061176e565b610b57565b60405161022d9190611b5c565b60405180910390f35b610250600480360381019061024b9190611732565b610da8565b005b34801561025e57600080fd5b50610279600480360381019061027491906117af565b611144565b604051610287929190611b2c565b60405180910390f35b34801561029c57600080fd5b506102b760048036038101906102b291906116cb565b611220565b005b600260005414156102ff576040517f08c379a00000000000000000000000000000000000000000000000000000000081526004016102f690611c17565b60405180910390fd5b60026000819055506000600360008381526020019081526020016000205490506004600082815260200190815260200160002060050160009054906101000a900473ffffffffffffffffffffffffffffffffffffffff1673ffffffffffffffffffffffffffffffffffffffff163373ffffffffffffffffffffffffffffffffffffffff16146103c3576040517f08c379a00000000000000000000000000000000000000000000000000000000081526004016103ba90611bd7565b60405180910390fd5b60006004600083815260200190815260200160002060050160006101000a81548173ffffffffffffffffffffffffffffffffffffffff021916908373ffffffffffffffffffffffffffffffffffffffff160217905550336004600083815260200190815260200160002060040160006101000a81548173ffffffffffffffffffffffffffffffffffffffff021916908373ffffffffffffffffffffffffffffffffffffffff1602179055508273ffffffffffffffffffffffffffffffffffffffff166323b872dd3033856040518463ffffffff1660e01b81526004016104ab93929190611af5565b600060405180830381600087803b1580156104c557600080fd5b505af11580156104d9573d6000803e3d6000fd5b505050505060016000819055505050565b6000600260009054906101000a900473ffffffffffffffffffffffffffffffffffffffff1673ffffffffffffffffffffffffffffffffffffffff168273ffffffffffffffffffffffffffffffffffffffff16141561054b5760019050610550565b600090505b919050565b6002600054141561059b576040517f08c379a000000000000000000000000000000000000000000000000000000000815260040161059290611c17565b60405180910390fd5b6002600081905550600085116105e6576040517f08c379a00000000000000000000000000000000000000000000000000000000081526004016105dd90611b77565b60405180910390fd5b6105f060016114e0565b60006105fc60016114f6565b90508060036000878152602001908152602001600020819055506040518060e00160405280868152602001878152602001858152602001600081526020013073ffffffffffffffffffffffffffffffffffffffff1681526020013373ffffffffffffffffffffffffffffffffffffffff16815260200183815250600460008381526020019081526020016000206000820151816000015560208201518160010155604082015181600201556060820151816003015560808201518160040160006101000a81548173ffffffffffffffffffffffffffffffffffffffff021916908373ffffffffffffffffffffffffffffffffffffffff16021790555060a08201518160050160006101000a81548173ffffffffffffffffffffffffffffffffffffffff021916908373ffffffffffffffffffffffffffffffffffffffff16021790555060c082015181600601908051906020019061075b929190611504565b509050508273ffffffffffffffffffffffffffffffffffffffff166323b872dd3330886040518463ffffffff1660e01b815260040161079c93929190611af5565b600060405180830381600087803b1580156107b657600080fd5b505af11580156107ca573d6000803e3d6000fd5b50505050847f7a06a8d0e71f5b8eb8aa5ea0d51be81cfe08057aae9c9e6f4e775bb84adad49885338960405161080293929190611c59565b60405180910390a25060016000819055505050505050565b60008073ffffffffffffffffffffffffffffffffffffffff16600660008473ffffffffffffffffffffffffffffffffffffffff1673ffffffffffffffffffffffffffffffffffffffff16815260200190815260200160002060000160009054906101000a900473ffffffffffffffffffffffffffffffffffffffff1673ffffffffffffffffffffffffffffffffffffffff1614159050919050565b6000600260009054906101000a900473ffffffffffffffffffffffffffffffffffffffff16905090565b60066020528060005260406000206000915090508060000160009054906101000a900473ffffffffffffffffffffffffffffffffffffffff169080600101805461092890611e43565b80601f016020809104026020016040519081016040528092919081815260200182805461095490611e43565b80156109a15780601f10610976576101008083540402835291602001916109a1565b820191906000526020600020905b81548152906001019060200180831161098457829003601f168201915b5050505050905082565b6109b361158a565b600060036000848152602001908152602001600020549050600460008281526020019081526020016000206040518060e0016040529081600082015481526020016001820154815260200160028201548152602001600382015481526020016004820160009054906101000a900473ffffffffffffffffffffffffffffffffffffffff1673ffffffffffffffffffffffffffffffffffffffff1673ffffffffffffffffffffffffffffffffffffffff1681526020016005820160009054906101000a900473ffffffffffffffffffffffffffffffffffffffff1673ffffffffffffffffffffffffffffffffffffffff1673ffffffffffffffffffffffffffffffffffffffff168152602001600682018054610acd90611e43565b80601f0160208091040260200160405190810160405280929190818152602001828054610af990611e43565b8015610b465780601f10610b1b57610100808354040283529160200191610b46565b820191906000526020600020905b815481529060010190602001808311610b2957829003601f168201915b505050505081525050915050919050565b600080600560003373ffffffffffffffffffffffffffffffffffffffff1673ffffffffffffffffffffffffffffffffffffffff16815260200190815260200160002080549050905060005b81811015610d9c576000600560003373ffffffffffffffffffffffffffffffffffffffff1673ffffffffffffffffffffffffffffffffffffffff1681526020019081526020016000208281548110610c23577f4e487b7100000000000000000000000000000000000000000000000000000000600052603260045260246000fd5b906000526020600020015490506000600360008381526020019081526020016000205490506000600460008381526020019081526020016000206006018054610c6b90611e43565b80601f0160208091040260200160405190810160405280929190818152602001828054610c9790611e43565b8015610ce45780601f10610cb957610100808354040283529160200191610ce4565b820191906000526020600020905b815481529060010190602001808311610cc757829003601f168201915b5050505050905086604051602001610cfc9190611ac3565b6040516020818303038152906040528051906020012081604051602001610d239190611ac3565b604051602081830303815290604052805190602001201415610d86576000429050600060046000858152602001908152602001600020600301549050818110610d76576001975050505050505050610da3565b6000975050505050505050610da3565b5050508080610d9490611ea6565b915050610ba2565b5060009150505b919050565b60026000541415610dee576040517f08c379a0000000000000000000000000000000000000000000000000000000008152600401610de590611c17565b60405180910390fd5b600260008190555060006003600083815260200190815260200160002054905060006004600083815260200190815260200160002060010154905060006004600084815260200190815260200160002060000154905060006004600085815260200190815260200160002060050160009054906101000a900473ffffffffffffffffffffffffffffffffffffffff16905082341015610ec2576040517f08c379a0000000000000000000000000000000000000000000000000000000008152600401610eb990611b97565b60405180910390fd5b336004600086815260200190815260200160002060040160006101000a81548173ffffffffffffffffffffffffffffffffffffffff021916908373ffffffffffffffffffffffffffffffffffffffff16021790555060006004600086815260200190815260200160002060050160006101000a81548173ffffffffffffffffffffffffffffffffffffffff021916908373ffffffffffffffffffffffffffffffffffffffff1602179055506000600460008681526020019081526020016000206002015490508042610f949190611d63565b60046000878152602001908152602001600020600301819055508673ffffffffffffffffffffffffffffffffffffffff166323b872dd3033866040518463ffffffff1660e01b8152600401610feb93929190611af5565b600060405180830381600087803b15801561100557600080fd5b505af1158015611019573d6000803e3d6000fd5b505050508173ffffffffffffffffffffffffffffffffffffffff166108fc349081150290604051600060405180830381858888f19350505050158015611063573d6000803e3d6000fd5b50600560003373ffffffffffffffffffffffffffffffffffffffff1673ffffffffffffffffffffffffffffffffffffffff1681526020019081526020016000208690806001815401808255809150506001900390600052602060002001600090919091909150557f55ae5c096b479d4261f85f052db444e0b6d2bb88477674a34cf34bc658263c1186600460008881526020019081526020016000206002015460046000898152602001908152602001600020600301543360405161112b9493929190611c90565b60405180910390a1505050505060016000819055505050565b6007818154811061115457600080fd5b90600052602060002090600202016000915090508060000160009054906101000a900473ffffffffffffffffffffffffffffffffffffffff169080600101805461119d90611e43565b80601f01602080910402602001604051908101604052809291908181526020018280546111c990611e43565b80156112165780601f106111eb57610100808354040283529160200191611216565b820191906000526020600020905b8154815290600101906020018083116111f957829003601f168201915b5050505050905082565b600073ffffffffffffffffffffffffffffffffffffffff16600660008573ffffffffffffffffffffffffffffffffffffffff1673ffffffffffffffffffffffffffffffffffffffff16815260200190815260200160002060000160009054906101000a900473ffffffffffffffffffffffffffffffffffffffff1673ffffffffffffffffffffffffffffffffffffffff16146112f1576040517f08c379a00000000000000000000000000000000000000000000000000000000081526004016112e890611bf7565b60405180910390fd5b6112fa826104ea565b611339576040517f08c379a000000000000000000000000000000000000000000000000000000000815260040161133090611bb7565b60405180910390fd5b600060405180604001604052808573ffffffffffffffffffffffffffffffffffffffff16815260200183815250905080600660008673ffffffffffffffffffffffffffffffffffffffff1673ffffffffffffffffffffffffffffffffffffffff16815260200190815260200160002060008201518160000160006101000a81548173ffffffffffffffffffffffffffffffffffffffff021916908373ffffffffffffffffffffffffffffffffffffffff160217905550602082015181600101908051906020019061140b929190611504565b50905050600781908060018154018082558091505060019003906000526020600020906002020160009091909190915060008201518160000160006101000a81548173ffffffffffffffffffffffffffffffffffffffff021916908373ffffffffffffffffffffffffffffffffffffffff160217905550602082015181600101908051906020019061149e929190611504565b5050507fc099bb576ab769941d5df2a2e3a78102b73a991c8995d492f8ff2b716fe7553484836040516114d2929190611b2c565b60405180910390a150505050565b6001816000016000828254019250508190555050565b600081600001549050919050565b82805461151090611e43565b90600052602060002090601f0160209004810192826115325760008555611579565b82601f1061154b57805160ff1916838001178555611579565b82800160010185558215611579579182015b8281111561157857825182559160200191906001019061155d565b5b50905061158691906115f3565b5090565b6040518060e0016040528060008152602001600081526020016000815260200160008152602001600073ffffffffffffffffffffffffffffffffffffffff168152602001600073ffffffffffffffffffffffffffffffffffffffff168152602001606081525090565b5b8082111561160c5760008160009055506001016115f4565b5090565b600061162361161e84611cfa565b611cd5565b90508281526020810184848401111561163b57600080fd5b611646848285611e01565b509392505050565b60008135905061165d816120f5565b92915050565b600082601f83011261167457600080fd5b8135611684848260208601611610565b91505092915050565b60008135905061169c8161210c565b92915050565b6000602082840312156116b457600080fd5b60006116c28482850161164e565b91505092915050565b6000806000606084860312156116e057600080fd5b60006116ee8682870161164e565b93505060206116ff8682870161164e565b925050604084013567ffffffffffffffff81111561171c57600080fd5b61172886828701611663565b9150509250925092565b6000806040838503121561174557600080fd5b60006117538582860161164e565b92505060206117648582860161168d565b9150509250929050565b60006020828403121561178057600080fd5b600082013567ffffffffffffffff81111561179a57600080fd5b6117a684828501611663565b91505092915050565b6000602082840312156117c157600080fd5b60006117cf8482850161168d565b91505092915050565b600080600080600060a086880312156117f057600080fd5b60006117fe8882890161168d565b955050602061180f8882890161168d565b94505060406118208882890161168d565b93505060606118318882890161164e565b925050608086013567ffffffffffffffff81111561184e57600080fd5b61185a88828901611663565b9150509295509295909350565b61187081611db9565b82525050565b61187f81611db9565b82525050565b61188e81611dcb565b82525050565b600061189f82611d2b565b6118a98185611d36565b93506118b9818560208601611e10565b6118c281611f7c565b840191505092915050565b60006118d882611d2b565b6118e28185611d47565b93506118f2818560208601611e10565b6118fb81611f7c565b840191505092915050565b600061191182611d2b565b61191b8185611d58565b935061192b818560208601611e10565b80840191505092915050565b6000611944600783611d47565b915061194f82611f8d565b602082019050919050565b6000611967601b83611d47565b915061197282611fb6565b602082019050919050565b600061198a602883611d47565b915061199582611fdf565b604082019050919050565b60006119ad602183611d47565b91506119b88261202e565b604082019050919050565b60006119d0602483611d47565b91506119db8261207d565b604082019050919050565b60006119f3601f83611d47565b91506119fe826120cc565b602082019050919050565b600060e083016000830151611a216000860182611aa5565b506020830151611a346020860182611aa5565b506040830151611a476040860182611aa5565b506060830151611a5a6060860182611aa5565b506080830151611a6d6080860182611867565b5060a0830151611a8060a0860182611867565b5060c083015184820360c0860152611a988282611894565b9150508091505092915050565b611aae81611df7565b82525050565b611abd81611df7565b82525050565b6000611acf8284611906565b915081905092915050565b6000602082019050611aef6000830184611876565b92915050565b6000606082019050611b0a6000830186611876565b611b176020830185611876565b611b246040830184611ab4565b949350505050565b6000604082019050611b416000830185611876565b8181036020830152611b5381846118cd565b90509392505050565b6000602082019050611b716000830184611885565b92915050565b60006020820190508181036000830152611b9081611937565b9050919050565b60006020820190508181036000830152611bb08161195a565b9050919050565b60006020820190508181036000830152611bd08161197d565b9050919050565b60006020820190508181036000830152611bf0816119a0565b9050919050565b60006020820190508181036000830152611c10816119c3565b9050919050565b60006020820190508181036000830152611c30816119e6565b9050919050565b60006020820190508181036000830152611c518184611a09565b905092915050565b6000606082019050611c6e6000830186611ab4565b611c7b6020830185611876565b611c886040830184611ab4565b949350505050565b6000608082019050611ca56000830187611ab4565b611cb26020830186611ab4565b611cbf6040830185611ab4565b611ccc6060830184611876565b95945050505050565b6000611cdf611cf0565b9050611ceb8282611e75565b919050565b6000604051905090565b600067ffffffffffffffff821115611d1557611d14611f4d565b5b611d1e82611f7c565b9050602081019050919050565b600081519050919050565b600082825260208201905092915050565b600082825260208201905092915050565b600081905092915050565b6000611d6e82611df7565b9150611d7983611df7565b9250827fffffffffffffffffffffffffffffffffffffffffffffffffffffffffffffffff03821115611dae57611dad611eef565b5b828201905092915050565b6000611dc482611dd7565b9050919050565b60008115159050919050565b600073ffffffffffffffffffffffffffffffffffffffff82169050919050565b6000819050919050565b82818337600083830152505050565b60005b83811015611e2e578082015181840152602081019050611e13565b83811115611e3d576000848401525b50505050565b60006002820490506001821680611e5b57607f821691505b60208210811415611e6f57611e6e611f1e565b5b50919050565b611e7e82611f7c565b810181811067ffffffffffffffff82111715611e9d57611e9c611f4d565b5b80604052505050565b6000611eb182611df7565b91507fffffffffffffffffffffffffffffffffffffffffffffffffffffffffffffffff821415611ee457611ee3611eef565b5b600182019050919050565b7f4e487b7100000000000000000000000000000000000000000000000000000000600052601160045260246000fd5b7f4e487b7100000000000000000000000000000000000000000000000000000000600052602260045260246000fd5b7f4e487b7100000000000000000000000000000000000000000000000000000000600052604160045260246000fd5b6000601f19601f8301169050919050565b7f546f6f206c6f7700000000000000000000000000000000000000000000000000600082015250565b7f506c6561736520706179207468652061736b696e672070726963650000000000600082015250565b7f43616c6c6572206973206e6f7420746865206f776e6572206f6620746865206360008201527f6f6e74726163742e000000000000000000000000000000000000000000000000602082015250565b7f4f6e6c79206974656d2073656c6c65722063616e20706572666f726d2074686960008201527f7300000000000000000000000000000000000000000000000000000000000000602082015250565b7f4164647265737320697320616c7265616479206f6e207468652077686974656c60008201527f6973742e00000000000000000000000000000000000000000000000000000000602082015250565b7f5265656e7472616e637947756172643a207265656e7472616e742063616c6c00600082015250565b6120fe81611db9565b811461210957600080fd5b50565b61211581611df7565b811461212057600080fd5b5056fea2646970667358221220e36cca632b7d0cec5a2732e9d4a9fe50e4d3d04b17c005f39d0a35faaa1dc3cf64736f6c63430008010033",
  "linkReferences": {},
  "deployedLinkReferences": {}
}