{
  "_format": "hh-sol-artifact-1",
  "contractName": "ArtizanMarket",
  "sourceName": "contracts/ArtizanMarket.sol",
  "abi": [
    {
      "inputs": [],
      "stateMutability": "nonpayable",
      "type": "constructor"
    },
    {
      "anonymous": false,
      "inputs": [
        {
          "indexed": false,
          "internalType": "address",
          "name": "nftContract",
          "type": "address"
        },
        {
          "indexed": true,
          "internalType": "uint256",
          "name": "tokenID",
          "type": "uint256"
        },
        {
          "indexed": false,
          "internalType": "address",
          "name": "owner",
          "type": "address"
        },
        {
          "indexed": false,
          "internalType": "address",
          "name": "seller",
          "type": "address"
        },
        {
          "indexed": false,
          "internalType": "uint256",
          "name": "price",
          "type": "uint256"
        },
        {
          "indexed": false,
          "internalType": "bool",
          "name": "sold",
          "type": "bool"
        },
        {
          "indexed": false,
          "internalType": "bool",
          "name": "soldBefore",
          "type": "bool"
        }
      ],
      "name": "MarketItemCreation",
      "type": "event"
    },
    {
      "anonymous": false,
      "inputs": [
        {
          "indexed": false,
          "internalType": "address",
          "name": "account",
          "type": "address"
        },
        {
          "indexed": false,
          "internalType": "string",
          "name": "name",
          "type": "string"
        }
      ],
      "name": "WhitelistAdded",
      "type": "event"
    },
    {
      "inputs": [],
      "name": "ListItemsOnSale",
      "outputs": [
        {
          "components": [
            {
              "internalType": "address",
              "name": "nftContract",
              "type": "address"
            },
            {
              "internalType": "uint256",
              "name": "tokenID",
              "type": "uint256"
            },
            {
              "internalType": "address payable",
              "name": "owner",
              "type": "address"
            },
            {
              "internalType": "address payable",
              "name": "seller",
              "type": "address"
            },
            {
              "internalType": "uint256",
              "name": "price",
              "type": "uint256"
            },
            {
              "internalType": "bool",
              "name": "sold",
              "type": "bool"
            },
            {
              "internalType": "bool",
              "name": "soldBefore",
              "type": "bool"
            }
          ],
          "internalType": "struct ArtizanMarket.MarketItem[]",
          "name": "",
          "type": "tuple[]"
        }
      ],
      "stateMutability": "view",
      "type": "function"
    },
    {
      "inputs": [],
      "name": "ListUserOwnItems",
      "outputs": [
        {
          "components": [
            {
              "internalType": "address",
              "name": "nftContract",
              "type": "address"
            },
            {
              "internalType": "uint256",
              "name": "tokenID",
              "type": "uint256"
            },
            {
              "internalType": "address payable",
              "name": "owner",
              "type": "address"
            },
            {
              "internalType": "address payable",
              "name": "seller",
              "type": "address"
            },
            {
              "internalType": "uint256",
              "name": "price",
              "type": "uint256"
            },
            {
              "internalType": "bool",
              "name": "sold",
              "type": "bool"
            },
            {
              "internalType": "bool",
              "name": "soldBefore",
              "type": "bool"
            }
          ],
          "internalType": "struct ArtizanMarket.MarketItem[]",
          "name": "",
          "type": "tuple[]"
        }
      ],
      "stateMutability": "view",
      "type": "function"
    },
    {
      "inputs": [],
      "name": "ListUserSaleItems",
      "outputs": [
        {
          "components": [
            {
              "internalType": "address",
              "name": "nftContract",
              "type": "address"
            },
            {
              "internalType": "uint256",
              "name": "tokenID",
              "type": "uint256"
            },
            {
              "internalType": "address payable",
              "name": "owner",
              "type": "address"
            },
            {
              "internalType": "address payable",
              "name": "seller",
              "type": "address"
            },
            {
              "internalType": "uint256",
              "name": "price",
              "type": "uint256"
            },
            {
              "internalType": "bool",
              "name": "sold",
              "type": "bool"
            },
            {
              "internalType": "bool",
              "name": "soldBefore",
              "type": "bool"
            }
          ],
          "internalType": "struct ArtizanMarket.MarketItem[]",
          "name": "",
          "type": "tuple[]"
        }
      ],
      "stateMutability": "view",
      "type": "function"
    },
    {
      "inputs": [
        {
          "internalType": "address",
          "name": "user",
          "type": "address"
        }
      ],
      "name": "ListUsersAllItems",
      "outputs": [
        {
          "components": [
            {
              "internalType": "address",
              "name": "nftContract",
              "type": "address"
            },
            {
              "internalType": "uint256",
              "name": "tokenID",
              "type": "uint256"
            },
            {
              "internalType": "address payable",
              "name": "owner",
              "type": "address"
            },
            {
              "internalType": "address payable",
              "name": "seller",
              "type": "address"
            },
            {
              "internalType": "uint256",
              "name": "price",
              "type": "uint256"
            },
            {
              "internalType": "bool",
              "name": "sold",
              "type": "bool"
            },
            {
              "internalType": "bool",
              "name": "soldBefore",
              "type": "bool"
            }
          ],
          "internalType": "struct ArtizanMarket.MarketItem[]",
          "name": "",
          "type": "tuple[]"
        }
      ],
      "stateMutability": "view",
      "type": "function"
    },
    {
      "inputs": [
        {
          "internalType": "uint256",
          "name": "tokenId",
          "type": "uint256"
        }
      ],
      "name": "NFTItem",
      "outputs": [
        {
          "components": [
            {
              "internalType": "address",
              "name": "nftContract",
              "type": "address"
            },
            {
              "internalType": "uint256",
              "name": "tokenID",
              "type": "uint256"
            },
            {
              "internalType": "address payable",
              "name": "owner",
              "type": "address"
            },
            {
              "internalType": "address payable",
              "name": "seller",
              "type": "address"
            },
            {
              "internalType": "uint256",
              "name": "price",
              "type": "uint256"
            },
            {
              "internalType": "bool",
              "name": "sold",
              "type": "bool"
            },
            {
              "internalType": "bool",
              "name": "soldBefore",
              "type": "bool"
            }
          ],
          "internalType": "struct ArtizanMarket.MarketItem",
          "name": "",
          "type": "tuple"
        }
      ],
      "stateMutability": "view",
      "type": "function"
    },
    {
      "inputs": [
        {
          "internalType": "uint256",
          "name": "price",
          "type": "uint256"
        },
        {
          "internalType": "address",
          "name": "NftCont",
          "type": "address"
        },
        {
          "internalType": "uint256",
          "name": "tokenId",
          "type": "uint256"
        }
      ],
      "name": "ResellNFT",
      "outputs": [],
      "stateMutability": "payable",
      "type": "function"
    },
    {
      "inputs": [
        {
          "internalType": "uint256",
          "name": "price",
          "type": "uint256"
        },
        {
          "internalType": "address",
          "name": "NftCont",
          "type": "address"
        },
        {
          "internalType": "uint256",
          "name": "tokenId",
          "type": "uint256"
        }
      ],
      "name": "StopNFTSale",
      "outputs": [],
      "stateMutability": "payable",
      "type": "function"
    },
    {
      "inputs": [
        {
          "internalType": "address",
          "name": "account",
          "type": "address"
        },
        {
          "internalType": "string",
          "name": "name",
          "type": "string"
        }
      ],
      "name": "addToWhitelist",
      "outputs": [],
      "stateMutability": "nonpayable",
      "type": "function"
    },
    {
      "inputs": [
        {
          "internalType": "uint256",
          "name": "price",
          "type": "uint256"
        },
        {
          "internalType": "address",
          "name": "NftCont",
          "type": "address"
        },
        {
          "internalType": "uint256",
          "name": "tokenId",
          "type": "uint256"
        }
      ],
      "name": "createMarketItem",
      "outputs": [],
      "stateMutability": "payable",
      "type": "function"
    },
    {
      "inputs": [
        {
          "internalType": "address",
          "name": "NftCont",
          "type": "address"
        },
        {
          "internalType": "uint256",
          "name": "tokenId",
          "type": "uint256"
        }
      ],
      "name": "createMarketSale",
      "outputs": [],
      "stateMutability": "payable",
      "type": "function"
    },
    {
      "inputs": [],
      "name": "getListingPrice",
      "outputs": [
        {
          "internalType": "uint256",
          "name": "",
          "type": "uint256"
        }
      ],
      "stateMutability": "view",
      "type": "function"
    },
    {
      "inputs": [],
      "name": "getOwner",
      "outputs": [
        {
          "internalType": "address",
          "name": "",
          "type": "address"
        }
      ],
      "stateMutability": "view",
      "type": "function"
    },
    {
      "inputs": [
        {
          "internalType": "uint256",
          "name": "tokenId",
          "type": "uint256"
        }
      ],
      "name": "isSoldBefore",
      "outputs": [
        {
          "internalType": "bool",
          "name": "",
          "type": "bool"
        }
      ],
      "stateMutability": "view",
      "type": "function"
    },
    {
      "inputs": [
        {
          "internalType": "address",
          "name": "account",
          "type": "address"
        }
      ],
      "name": "isWhitelisted",
      "outputs": [
        {
          "internalType": "bool",
          "name": "",
          "type": "bool"
        }
      ],
      "stateMutability": "view",
      "type": "function"
    },
    {
      "inputs": [
        {
          "internalType": "uint256",
          "name": "_listingPrice",
          "type": "uint256"
        }
      ],
      "name": "updateListingPrice",
      "outputs": [],
      "stateMutability": "payable",
      "type": "function"
    },
    {
      "inputs": [
        {
          "internalType": "address",
          "name": "",
          "type": "address"
        }
      ],
      "name": "whitelist",
      "outputs": [
        {
          "internalType": "address",
          "name": "account",
          "type": "address"
        },
        {
          "internalType": "string",
          "name": "name",
          "type": "string"
        }
      ],
      "stateMutability": "view",
      "type": "function"
    },
    {
      "inputs": [
        {
          "internalType": "uint256",
          "name": "",
          "type": "uint256"
        }
      ],
      "name": "whitelistArray",
      "outputs": [
        {
          "internalType": "address",
          "name": "account",
          "type": "address"
        },
        {
          "internalType": "string",
          "name": "name",
          "type": "string"
        }
      ],
      "stateMutability": "view",
      "type": "function"
    }
  ],
  "bytecode": "0x6080604052662386f26fc100006004553480156200001c57600080fd5b50600160008190555033600360006101000a81548173ffffffffffffffffffffffffffffffffffffffff021916908373ffffffffffffffffffffffffffffffffffffffff160217905550620000ad336040518060400160405280600e81526020017f636f6e74726163745f6f776e6572000000000000000000000000000000000000815250620000b360201b60201c565b62000728565b600360009054906101000a900473ffffffffffffffffffffffffffffffffffffffff1673ffffffffffffffffffffffffffffffffffffffff163373ffffffffffffffffffffffffffffffffffffffff161462000146576040517f08c379a00000000000000000000000000000000000000000000000000000000081526004016200013d906200054a565b60405180910390fd5b600073ffffffffffffffffffffffffffffffffffffffff16600760008473ffffffffffffffffffffffffffffffffffffffff1673ffffffffffffffffffffffffffffffffffffffff16815260200190815260200160002060000160009054906101000a900473ffffffffffffffffffffffffffffffffffffffff1673ffffffffffffffffffffffffffffffffffffffff16146200021a576040517f08c379a000000000000000000000000000000000000000000000000000000000815260040162000211906200056c565b60405180910390fd5b600060405180604001604052808473ffffffffffffffffffffffffffffffffffffffff16815260200183815250905080600760008573ffffffffffffffffffffffffffffffffffffffff1673ffffffffffffffffffffffffffffffffffffffff16815260200190815260200160002060008201518160000160006101000a81548173ffffffffffffffffffffffffffffffffffffffff021916908373ffffffffffffffffffffffffffffffffffffffff1602179055506020820151816001019080519060200190620002ee929190620003c6565b50905050600881908060018154018082558091505060019003906000526020600020906002020160009091909190915060008201518160000160006101000a81548173ffffffffffffffffffffffffffffffffffffffff021916908373ffffffffffffffffffffffffffffffffffffffff160217905550602082015181600101908051906020019062000383929190620003c6565b5050507fc099bb576ab769941d5df2a2e3a78102b73a991c8995d492f8ff2b716fe755348383604051620003b992919062000516565b60405180910390a1505050565b828054620003d49062000614565b90600052602060002090601f016020900481019282620003f8576000855562000444565b82601f106200041357805160ff191683800117855562000444565b8280016001018555821562000444579182015b828111156200044357825182559160200191906001019062000426565b5b50905062000453919062000457565b5090565b5b808211156200047257600081600090555060010162000458565b5090565b6200048181620005aa565b82525050565b600062000494826200058e565b620004a0818562000599565b9350620004b2818560208601620005de565b620004bd8162000679565b840191505092915050565b6000620004d7602d8362000599565b9150620004e4826200068a565b604082019050919050565b6000620004fe60248362000599565b91506200050b82620006d9565b604082019050919050565b60006040820190506200052d600083018562000476565b818103602083015262000541818462000487565b90509392505050565b600060208201905081810360008301526200056581620004c8565b9050919050565b600060208201905081810360008301526200058781620004ef565b9050919050565b600081519050919050565b600082825260208201905092915050565b6000620005b782620005be565b9050919050565b600073ffffffffffffffffffffffffffffffffffffffff82169050919050565b60005b83811015620005fe578082015181840152602081019050620005e1565b838111156200060e576000848401525b50505050565b600060028204905060018216806200062d57607f821691505b602082108114156200064457620006436200064a565b5b50919050565b7f4e487b7100000000000000000000000000000000000000000000000000000000600052602260045260246000fd5b6000601f19601f8301169050919050565b7f4f6e6c79206f776e6572206f6620746865206d61726b6574706c61636520636160008201527f6e206368616e6765207468697300000000000000000000000000000000000000602082015250565b7f4164647265737320697320616c7265616479206f6e207468652077686974656c60008201527f6973742e00000000000000000000000000000000000000000000000000000000602082015250565b6138cf80620007386000396000f3fe6080604052600436106100fe5760003560e01c80638471075d11610095578063a9a440c911610064578063a9a440c914610321578063ae677aa31461034c578063b19d4e0814610368578063c23b139e146103a5578063d251fefc146103c1576100fe565b80638471075d14610271578063893d20e81461028d578063986d88e0146102b85780639b19251a146102e3576100fe565b80632ffb12bb116100d15780632ffb12bb146101bf5780633af32abf146101db5780635b9e4328146102185780638299506714610255576100fe565b806308aaac9514610103578063112b35841461014057806312e855851461016b5780631a533daa14610196575b600080fd5b34801561010f57600080fd5b5061012a60048036038101906101259190612b34565b6103ff565b6040516101379190613089565b60405180910390f35b34801561014c57600080fd5b5061015561045d565b6040516101629190613067565b60405180910390f35b34801561017757600080fd5b50610180610808565b60405161018d919061323f565b60405180910390f35b3480156101a257600080fd5b506101bd60048036038101906101b89190612aa4565b610812565b005b6101d960048036038101906101d49190612b5d565b610b19565b005b3480156101e757600080fd5b5061020260048036038101906101fd9190612a7b565b610de8565b60405161020f9190613089565b60405180910390f35b34801561022457600080fd5b5061023f600480360381019061023a9190612a7b565b610e83565b60405161024c9190613067565b60405180910390f35b61026f600480360381019061026a9190612b5d565b611320565b005b61028b60048036038101906102869190612b5d565b61169f565b005b34801561029957600080fd5b506102a26119ac565b6040516102af9190612f84565b60405180910390f35b3480156102c457600080fd5b506102cd6119d6565b6040516102da9190613067565b60405180910390f35b3480156102ef57600080fd5b5061030a60048036038101906103059190612a7b565b611cfc565b604051610318929190613037565b60405180910390f35b34801561032d57600080fd5b50610336611dc8565b6040516103439190613067565b60405180910390f35b61036660048036038101906103619190612b34565b612173565b005b34801561037457600080fd5b5061038f600480360381019061038a9190612b34565b61220d565b60405161039c9190613224565b60405180910390f35b6103bf60048036038101906103ba9190612af8565b61239f565b005b3480156103cd57600080fd5b506103e860048036038101906103e39190612b34565b612767565b6040516103f6929190613037565b60405180910390f35b60008060066000848152602001908152602001600020549050600115156005600083815260200190815260200160002060050160019054906101000a900460ff1615151415610452576001915050610458565b60009150505b919050565b6060600061046b6001612843565b905060008060005b83811015610514573373ffffffffffffffffffffffffffffffffffffffff16600560006001846104a39190613305565b815260200190815260200160002060020160009054906101000a900473ffffffffffffffffffffffffffffffffffffffff1673ffffffffffffffffffffffffffffffffffffffff161415610501576001836104fe9190613305565b92505b808061050c9061348e565b915050610473565b5060008267ffffffffffffffff811115610557577f4e487b7100000000000000000000000000000000000000000000000000000000600052604160045260246000fd5b60405190808252806020026020018201604052801561059057816020015b61057d6128c3565b8152602001906001900390816105755790505b50905060005b848110156107fd573373ffffffffffffffffffffffffffffffffffffffff16600560006001846105c69190613305565b815260200190815260200160002060020160009054906101000a900473ffffffffffffffffffffffffffffffffffffffff1673ffffffffffffffffffffffffffffffffffffffff1614156107ea5760006001826106239190613305565b90506000600560008381526020019081526020016000209050806040518060e00160405290816000820160009054906101000a900473ffffffffffffffffffffffffffffffffffffffff1673ffffffffffffffffffffffffffffffffffffffff1673ffffffffffffffffffffffffffffffffffffffff168152602001600182015481526020016002820160009054906101000a900473ffffffffffffffffffffffffffffffffffffffff1673ffffffffffffffffffffffffffffffffffffffff1673ffffffffffffffffffffffffffffffffffffffff1681526020016003820160009054906101000a900473ffffffffffffffffffffffffffffffffffffffff1673ffffffffffffffffffffffffffffffffffffffff1673ffffffffffffffffffffffffffffffffffffffff168152602001600482015481526020016005820160009054906101000a900460ff161515151581526020016005820160019054906101000a900460ff1615151515815250508486815181106107cd577f4e487b7100000000000000000000000000000000000000000000000000000000600052603260045260246000fd5b60200260200101819052506001856107e59190613305565b945050505b80806107f59061348e565b915050610596565b508094505050505090565b6000600454905090565b600360009054906101000a900473ffffffffffffffffffffffffffffffffffffffff1673ffffffffffffffffffffffffffffffffffffffff163373ffffffffffffffffffffffffffffffffffffffff16146108a2576040517f08c379a000000000000000000000000000000000000000000000000000000000815260040161089990613104565b60405180910390fd5b600073ffffffffffffffffffffffffffffffffffffffff16600760008473ffffffffffffffffffffffffffffffffffffffff1673ffffffffffffffffffffffffffffffffffffffff16815260200190815260200160002060000160009054906101000a900473ffffffffffffffffffffffffffffffffffffffff1673ffffffffffffffffffffffffffffffffffffffff1614610973576040517f08c379a000000000000000000000000000000000000000000000000000000000815260040161096a906131c4565b60405180910390fd5b600060405180604001604052808473ffffffffffffffffffffffffffffffffffffffff16815260200183815250905080600760008573ffffffffffffffffffffffffffffffffffffffff1673ffffffffffffffffffffffffffffffffffffffff16815260200190815260200160002060008201518160000160006101000a81548173ffffffffffffffffffffffffffffffffffffffff021916908373ffffffffffffffffffffffffffffffffffffffff1602179055506020820151816001019080519060200190610a45929190612946565b50905050600881908060018154018082558091505060019003906000526020600020906002020160009091909190915060008201518160000160006101000a81548173ffffffffffffffffffffffffffffffffffffffff021916908373ffffffffffffffffffffffffffffffffffffffff1602179055506020820151816001019080519060200190610ad8929190612946565b5050507fc099bb576ab769941d5df2a2e3a78102b73a991c8995d492f8ff2b716fe755348383604051610b0c929190613037565b60405180910390a1505050565b60026000541415610b5f576040517f08c379a0000000000000000000000000000000000000000000000000000000008152600401610b5690613204565b60405180910390fd5b60026000819055506000600660008381526020019081526020016000205490503373ffffffffffffffffffffffffffffffffffffffff166005600083815260200190815260200160002060020160009054906101000a900473ffffffffffffffffffffffffffffffffffffffff1673ffffffffffffffffffffffffffffffffffffffff1614610c23576040517f08c379a0000000000000000000000000000000000000000000000000000000008152600401610c1a90613164565b60405180910390fd5b6004543414610c67576040517f08c379a0000000000000000000000000000000000000000000000000000000008152600401610c5e90613184565b60405180910390fd5b60008390508073ffffffffffffffffffffffffffffffffffffffff1663f5537ede3330866040518463ffffffff1660e01b8152600401610ca993929190613000565b600060405180830381600087803b158015610cc357600080fd5b505af1158015610cd7573d6000803e3d6000fd5b5050505060006005600084815260200190815260200160002060050160006101000a81548160ff021916908315150217905550846005600084815260200190815260200160002060040181905550336005600084815260200190815260200160002060030160006101000a81548173ffffffffffffffffffffffffffffffffffffffff021916908373ffffffffffffffffffffffffffffffffffffffff160217905550306005600084815260200190815260200160002060020160006101000a81548173ffffffffffffffffffffffffffffffffffffffff021916908373ffffffffffffffffffffffffffffffffffffffff160217905550610dd96002612851565b50506001600081905550505050565b60008073ffffffffffffffffffffffffffffffffffffffff16600760008473ffffffffffffffffffffffffffffffffffffffff1673ffffffffffffffffffffffffffffffffffffffff16815260200190815260200160002060000160009054906101000a900473ffffffffffffffffffffffffffffffffffffffff1673ffffffffffffffffffffffffffffffffffffffff1614159050919050565b60606000610e916001612843565b905060008060005b83811015610fb2578573ffffffffffffffffffffffffffffffffffffffff1660056000600184610ec99190613305565b815260200190815260200160002060030160009054906101000a900473ffffffffffffffffffffffffffffffffffffffff1673ffffffffffffffffffffffffffffffffffffffff161480610f8a57508573ffffffffffffffffffffffffffffffffffffffff1660056000600184610f409190613305565b815260200190815260200160002060020160009054906101000a900473ffffffffffffffffffffffffffffffffffffffff1673ffffffffffffffffffffffffffffffffffffffff16145b15610f9f57600183610f9c9190613305565b92505b8080610faa9061348e565b915050610e99565b5060008267ffffffffffffffff811115610ff5577f4e487b7100000000000000000000000000000000000000000000000000000000600052604160045260246000fd5b60405190808252806020026020018201604052801561102e57816020015b61101b6128c3565b8152602001906001900390816110135790505b50905060005b84811015611313578673ffffffffffffffffffffffffffffffffffffffff16600560006001846110649190613305565b815260200190815260200160002060030160009054906101000a900473ffffffffffffffffffffffffffffffffffffffff1673ffffffffffffffffffffffffffffffffffffffff16148061112557508673ffffffffffffffffffffffffffffffffffffffff16600560006001846110db9190613305565b815260200190815260200160002060020160009054906101000a900473ffffffffffffffffffffffffffffffffffffffff1673ffffffffffffffffffffffffffffffffffffffff16145b156113005760006001826111399190613305565b90506000600560008381526020019081526020016000209050806040518060e00160405290816000820160009054906101000a900473ffffffffffffffffffffffffffffffffffffffff1673ffffffffffffffffffffffffffffffffffffffff1673ffffffffffffffffffffffffffffffffffffffff168152602001600182015481526020016002820160009054906101000a900473ffffffffffffffffffffffffffffffffffffffff1673ffffffffffffffffffffffffffffffffffffffff1673ffffffffffffffffffffffffffffffffffffffff1681526020016003820160009054906101000a900473ffffffffffffffffffffffffffffffffffffffff1673ffffffffffffffffffffffffffffffffffffffff1673ffffffffffffffffffffffffffffffffffffffff168152602001600482015481526020016005820160009054906101000a900460ff161515151581526020016005820160019054906101000a900460ff1615151515815250508486815181106112e3577f4e487b7100000000000000000000000000000000000000000000000000000000600052603260045260246000fd5b60200260200101819052506001856112fb9190613305565b945050505b808061130b9061348e565b915050611034565b5080945050505050919050565b60026000541415611366576040517f08c379a000000000000000000000000000000000000000000000000000000000815260040161135d90613204565b60405180910390fd5b6002600081905550600083116113b1576040517f08c379a00000000000000000000000000000000000000000000000000000000081526004016113a8906130a4565b60405180910390fd5b60045434146113f5576040517f08c379a00000000000000000000000000000000000000000000000000000000081526004016113ec90613124565b60405180910390fd5b6113ff60016128ad565b600061140b6001612843565b90508060066000848152602001908152602001600020819055506040518060e001604052808473ffffffffffffffffffffffffffffffffffffffff1681526020018381526020013073ffffffffffffffffffffffffffffffffffffffff1681526020013373ffffffffffffffffffffffffffffffffffffffff168152602001858152602001600015158152602001600015158152506005600083815260200190815260200160002060008201518160000160006101000a81548173ffffffffffffffffffffffffffffffffffffffff021916908373ffffffffffffffffffffffffffffffffffffffff1602179055506020820151816001015560408201518160020160006101000a81548173ffffffffffffffffffffffffffffffffffffffff021916908373ffffffffffffffffffffffffffffffffffffffff16021790555060608201518160030160006101000a81548173ffffffffffffffffffffffffffffffffffffffff021916908373ffffffffffffffffffffffffffffffffffffffff1602179055506080820151816004015560a08201518160050160006101000a81548160ff02191690831515021790555060c08201518160050160016101000a81548160ff0219169083151502179055509050508273ffffffffffffffffffffffffffffffffffffffff166323b872dd3330856040518463ffffffff1660e01b815260040161161c93929190613000565b600060405180830381600087803b15801561163657600080fd5b505af115801561164a573d6000803e3d6000fd5b50505050817f09ac0a12466f38c0bad2fdf849798b4897443678be5268fc8c21861fd6c939208430338860008060405161168996959493929190612f9f565b60405180910390a2506001600081905550505050565b600260005414156116e5576040517f08c379a00000000000000000000000000000000000000000000000000000000081526004016116dc90613204565b60405180910390fd5b60026000819055506000600660008381526020019081526020016000205490506005600082815260200190815260200160002060030160009054906101000a900473ffffffffffffffffffffffffffffffffffffffff1673ffffffffffffffffffffffffffffffffffffffff163373ffffffffffffffffffffffffffffffffffffffff1614806117c25750600360009054906101000a900473ffffffffffffffffffffffffffffffffffffffff1673ffffffffffffffffffffffffffffffffffffffff163373ffffffffffffffffffffffffffffffffffffffff16145b611801576040517f08c379a00000000000000000000000000000000000000000000000000000000081526004016117f8906131a4565b60405180910390fd5b60016005600083815260200190815260200160002060050160006101000a81548160ff02191690831515021790555083600560008381526020019081526020016000206004018190555060006005600083815260200190815260200160002060030160006101000a81548173ffffffffffffffffffffffffffffffffffffffff021916908373ffffffffffffffffffffffffffffffffffffffff160217905550336005600083815260200190815260200160002060020160006101000a81548173ffffffffffffffffffffffffffffffffffffffff021916908373ffffffffffffffffffffffffffffffffffffffff16021790555060016005600083815260200190815260200160002060050160016101000a81548160ff02191690831515021790555061192f60026128ad565b8273ffffffffffffffffffffffffffffffffffffffff166323b872dd3033856040518463ffffffff1660e01b815260040161196c93929190613000565b600060405180830381600087803b15801561198657600080fd5b505af115801561199a573d6000803e3d6000fd5b50505050506001600081905550505050565b6000600360009054906101000a900473ffffffffffffffffffffffffffffffffffffffff16905090565b606060006119e46001612843565b905060006119f26002612843565b6119fc6001612843565b611a06919061335b565b90506000808267ffffffffffffffff811115611a4b577f4e487b7100000000000000000000000000000000000000000000000000000000600052604160045260246000fd5b604051908082528060200260200182016040528015611a8457816020015b611a716128c3565b815260200190600190039081611a695790505b50905060005b84811015611cf1573073ffffffffffffffffffffffffffffffffffffffff1660056000600184611aba9190613305565b815260200190815260200160002060020160009054906101000a900473ffffffffffffffffffffffffffffffffffffffff1673ffffffffffffffffffffffffffffffffffffffff161415611cde576000600182611b179190613305565b90506000600560008381526020019081526020016000209050806040518060e00160405290816000820160009054906101000a900473ffffffffffffffffffffffffffffffffffffffff1673ffffffffffffffffffffffffffffffffffffffff1673ffffffffffffffffffffffffffffffffffffffff168152602001600182015481526020016002820160009054906101000a900473ffffffffffffffffffffffffffffffffffffffff1673ffffffffffffffffffffffffffffffffffffffff1673ffffffffffffffffffffffffffffffffffffffff1681526020016003820160009054906101000a900473ffffffffffffffffffffffffffffffffffffffff1673ffffffffffffffffffffffffffffffffffffffff1673ffffffffffffffffffffffffffffffffffffffff168152602001600482015481526020016005820160009054906101000a900460ff161515151581526020016005820160019054906101000a900460ff161515151581525050848681518110611cc1577f4e487b7100000000000000000000000000000000000000000000000000000000600052603260045260246000fd5b6020026020010181905250600185611cd99190613305565b945050505b8080611ce99061348e565b915050611a8a565b508094505050505090565b60076020528060005260406000206000915090508060000160009054906101000a900473ffffffffffffffffffffffffffffffffffffffff1690806001018054611d459061342b565b80601f0160208091040260200160405190810160405280929190818152602001828054611d719061342b565b8015611dbe5780601f10611d9357610100808354040283529160200191611dbe565b820191906000526020600020905b815481529060010190602001808311611da157829003601f168201915b5050505050905082565b60606000611dd66001612843565b905060008060005b83811015611e7f573373ffffffffffffffffffffffffffffffffffffffff1660056000600184611e0e9190613305565b815260200190815260200160002060030160009054906101000a900473ffffffffffffffffffffffffffffffffffffffff1673ffffffffffffffffffffffffffffffffffffffff161415611e6c57600183611e699190613305565b92505b8080611e779061348e565b915050611dde565b5060008267ffffffffffffffff811115611ec2577f4e487b7100000000000000000000000000000000000000000000000000000000600052604160045260246000fd5b604051908082528060200260200182016040528015611efb57816020015b611ee86128c3565b815260200190600190039081611ee05790505b50905060005b84811015612168573373ffffffffffffffffffffffffffffffffffffffff1660056000600184611f319190613305565b815260200190815260200160002060030160009054906101000a900473ffffffffffffffffffffffffffffffffffffffff1673ffffffffffffffffffffffffffffffffffffffff161415612155576000600182611f8e9190613305565b90506000600560008381526020019081526020016000209050806040518060e00160405290816000820160009054906101000a900473ffffffffffffffffffffffffffffffffffffffff1673ffffffffffffffffffffffffffffffffffffffff1673ffffffffffffffffffffffffffffffffffffffff168152602001600182015481526020016002820160009054906101000a900473ffffffffffffffffffffffffffffffffffffffff1673ffffffffffffffffffffffffffffffffffffffff1673ffffffffffffffffffffffffffffffffffffffff1681526020016003820160009054906101000a900473ffffffffffffffffffffffffffffffffffffffff1673ffffffffffffffffffffffffffffffffffffffff1673ffffffffffffffffffffffffffffffffffffffff168152602001600482015481526020016005820160009054906101000a900460ff161515151581526020016005820160019054906101000a900460ff161515151581525050848681518110612138577f4e487b7100000000000000000000000000000000000000000000000000000000600052603260045260246000fd5b60200260200101819052506001856121509190613305565b945050505b80806121609061348e565b915050611f01565b508094505050505090565b3373ffffffffffffffffffffffffffffffffffffffff16600360009054906101000a900473ffffffffffffffffffffffffffffffffffffffff1673ffffffffffffffffffffffffffffffffffffffff1614612203576040517f08c379a00000000000000000000000000000000000000000000000000000000081526004016121fa906131e4565b60405180910390fd5b8060048190555050565b6122156128c3565b600060066000848152602001908152602001600020549050600560008281526020019081526020016000206040518060e00160405290816000820160009054906101000a900473ffffffffffffffffffffffffffffffffffffffff1673ffffffffffffffffffffffffffffffffffffffff1673ffffffffffffffffffffffffffffffffffffffff168152602001600182015481526020016002820160009054906101000a900473ffffffffffffffffffffffffffffffffffffffff1673ffffffffffffffffffffffffffffffffffffffff1673ffffffffffffffffffffffffffffffffffffffff1681526020016003820160009054906101000a900473ffffffffffffffffffffffffffffffffffffffff1673ffffffffffffffffffffffffffffffffffffffff1673ffffffffffffffffffffffffffffffffffffffff168152602001600482015481526020016005820160009054906101000a900460ff161515151581526020016005820160019054906101000a900460ff161515151581525050915050919050565b600260005414156123e5576040517f08c379a00000000000000000000000000000000000000000000000000000000081526004016123dc90613204565b60405180910390fd5b600260008190555060006006600083815260200190815260200160002054905060006005600083815260200190815260200160002060040154905060006005600084815260200190815260200160002060010154905060006005600085815260200190815260200160002060030160009054906101000a900473ffffffffffffffffffffffffffffffffffffffff169050823410156124b9576040517f08c379a00000000000000000000000000000000000000000000000000000000081526004016124b090613144565b60405180910390fd5b600015156005600086815260200190815260200160002060050160009054906101000a900460ff16151514612523576040517f08c379a000000000000000000000000000000000000000000000000000000000815260040161251a906130c4565b60405180910390fd5b336005600086815260200190815260200160002060020160006101000a81548173ffffffffffffffffffffffffffffffffffffffff021916908373ffffffffffffffffffffffffffffffffffffffff16021790555060016005600086815260200190815260200160002060050160006101000a81548160ff02191690831515021790555060006005600086815260200190815260200160002060030160006101000a81548173ffffffffffffffffffffffffffffffffffffffff021916908373ffffffffffffffffffffffffffffffffffffffff16021790555060016005600086815260200190815260200160002060050160016101000a81548160ff02191690831515021790555061263660026128ad565b8573ffffffffffffffffffffffffffffffffffffffff166323b872dd3033856040518463ffffffff1660e01b815260040161267393929190613000565b600060405180830381600087803b15801561268d57600080fd5b505af11580156126a1573d6000803e3d6000fd5b50505050600360009054906101000a900473ffffffffffffffffffffffffffffffffffffffff1673ffffffffffffffffffffffffffffffffffffffff166108fc6004549081150290604051600060405180830381858888f1935050505015801561270f573d6000803e3d6000fd5b508073ffffffffffffffffffffffffffffffffffffffff166108fc349081150290604051600060405180830381858888f19350505050158015612756573d6000803e3d6000fd5b505050505060016000819055505050565b6008818154811061277757600080fd5b90600052602060002090600202016000915090508060000160009054906101000a900473ffffffffffffffffffffffffffffffffffffffff16908060010180546127c09061342b565b80601f01602080910402602001604051908101604052809291908181526020018280546127ec9061342b565b80156128395780601f1061280e57610100808354040283529160200191612839565b820191906000526020600020905b81548152906001019060200180831161281c57829003601f168201915b5050505050905082565b600081600001549050919050565b6000816000015490506000811161289d576040517f08c379a0000000000000000000000000000000000000000000000000000000008152600401612894906130e4565b60405180910390fd5b6001810382600001819055505050565b6001816000016000828254019250508190555050565b6040518060e00160405280600073ffffffffffffffffffffffffffffffffffffffff16815260200160008152602001600073ffffffffffffffffffffffffffffffffffffffff168152602001600073ffffffffffffffffffffffffffffffffffffffff168152602001600081526020016000151581526020016000151581525090565b8280546129529061342b565b90600052602060002090601f01602090048101928261297457600085556129bb565b82601f1061298d57805160ff19168380011785556129bb565b828001600101855582156129bb579182015b828111156129ba57825182559160200191906001019061299f565b5b5090506129c891906129cc565b5090565b5b808211156129e55760008160009055506001016129cd565b5090565b60006129fc6129f78461327f565b61325a565b905082815260208101848484011115612a1457600080fd5b612a1f8482856133e9565b509392505050565b600081359050612a368161386b565b92915050565b600082601f830112612a4d57600080fd5b8135612a5d8482602086016129e9565b91505092915050565b600081359050612a7581613882565b92915050565b600060208284031215612a8d57600080fd5b6000612a9b84828501612a27565b91505092915050565b60008060408385031215612ab757600080fd5b6000612ac585828601612a27565b925050602083013567ffffffffffffffff811115612ae257600080fd5b612aee85828601612a3c565b9150509250929050565b60008060408385031215612b0b57600080fd5b6000612b1985828601612a27565b9250506020612b2a85828601612a66565b9150509250929050565b600060208284031215612b4657600080fd5b6000612b5484828501612a66565b91505092915050565b600080600060608486031215612b7257600080fd5b6000612b8086828701612a66565b9350506020612b9186828701612a27565b9250506040612ba286828701612a66565b9150509250925092565b6000612bb88383612e4a565b60e08301905092915050565b612bcd816133a1565b82525050565b612bdc8161338f565b82525050565b612beb8161338f565b82525050565b6000612bfc826132c0565b612c0681856132e3565b9350612c11836132b0565b8060005b83811015612c42578151612c298882612bac565b9750612c34836132d6565b925050600181019050612c15565b5085935050505092915050565b612c58816133b3565b82525050565b612c67816133b3565b82525050565b6000612c78826132cb565b612c8281856132f4565b9350612c928185602086016133f8565b612c9b81613564565b840191505092915050565b6000612cb36007836132f4565b9150612cbe82613575565b602082019050919050565b6000612cd6601a836132f4565b9150612ce18261359e565b602082019050919050565b6000612cf9601b836132f4565b9150612d04826135c7565b602082019050919050565b6000612d1c602d836132f4565b9150612d27826135f0565b604082019050919050565b6000612d3f6024836132f4565b9150612d4a8261363f565b604082019050919050565b6000612d62601b836132f4565b9150612d6d8261368e565b602082019050919050565b6000612d85602a836132f4565b9150612d90826136b7565b604082019050919050565b6000612da86024836132f4565b9150612db382613706565b604082019050919050565b6000612dcb602a836132f4565b9150612dd682613755565b604082019050919050565b6000612dee6024836132f4565b9150612df9826137a4565b604082019050919050565b6000612e116030836132f4565b9150612e1c826137f3565b604082019050919050565b6000612e34601f836132f4565b9150612e3f82613842565b602082019050919050565b60e082016000820151612e606000850182612bd3565b506020820151612e736020850182612f66565b506040820151612e866040850182612bc4565b506060820151612e996060850182612bc4565b506080820151612eac6080850182612f66565b5060a0820151612ebf60a0850182612c4f565b5060c0820151612ed260c0850182612c4f565b50505050565b60e082016000820151612eee6000850182612bd3565b506020820151612f016020850182612f66565b506040820151612f146040850182612bc4565b506060820151612f276060850182612bc4565b506080820151612f3a6080850182612f66565b5060a0820151612f4d60a0850182612c4f565b5060c0820151612f6060c0850182612c4f565b50505050565b612f6f816133df565b82525050565b612f7e816133df565b82525050565b6000602082019050612f996000830184612be2565b92915050565b600060c082019050612fb46000830189612be2565b612fc16020830188612be2565b612fce6040830187612be2565b612fdb6060830186612f75565b612fe86080830185612c5e565b612ff560a0830184612c5e565b979650505050505050565b60006060820190506130156000830186612be2565b6130226020830185612be2565b61302f6040830184612f75565b949350505050565b600060408201905061304c6000830185612be2565b818103602083015261305e8184612c6d565b90509392505050565b600060208201905081810360008301526130818184612bf1565b905092915050565b600060208201905061309e6000830184612c5e565b92915050565b600060208201905081810360008301526130bd81612ca6565b9050919050565b600060208201905081810360008301526130dd81612cc9565b9050919050565b600060208201905081810360008301526130fd81612cec565b9050919050565b6000602082019050818103600083015261311d81612d0f565b9050919050565b6000602082019050818103600083015261313d81612d32565b9050919050565b6000602082019050818103600083015261315d81612d55565b9050919050565b6000602082019050818103600083015261317d81612d78565b9050919050565b6000602082019050818103600083015261319d81612d9b565b9050919050565b600060208201905081810360008301526131bd81612dbe565b9050919050565b600060208201905081810360008301526131dd81612de1565b9050919050565b600060208201905081810360008301526131fd81612e04565b9050919050565b6000602082019050818103600083015261321d81612e27565b9050919050565b600060e0820190506132396000830184612ed8565b92915050565b60006020820190506132546000830184612f75565b92915050565b6000613264613275565b9050613270828261345d565b919050565b6000604051905090565b600067ffffffffffffffff82111561329a57613299613535565b5b6132a382613564565b9050602081019050919050565b6000819050602082019050919050565b600081519050919050565b600081519050919050565b6000602082019050919050565b600082825260208201905092915050565b600082825260208201905092915050565b6000613310826133df565b915061331b836133df565b9250827fffffffffffffffffffffffffffffffffffffffffffffffffffffffffffffffff038211156133505761334f6134d7565b5b828201905092915050565b6000613366826133df565b9150613371836133df565b925082821015613384576133836134d7565b5b828203905092915050565b600061339a826133bf565b9050919050565b60006133ac826133bf565b9050919050565b60008115159050919050565b600073ffffffffffffffffffffffffffffffffffffffff82169050919050565b6000819050919050565b82818337600083830152505050565b60005b838110156134165780820151818401526020810190506133fb565b83811115613425576000848401525b50505050565b6000600282049050600182168061344357607f821691505b6020821081141561345757613456613506565b5b50919050565b61346682613564565b810181811067ffffffffffffffff8211171561348557613484613535565b5b80604052505050565b6000613499826133df565b91507fffffffffffffffffffffffffffffffffffffffffffffffffffffffffffffffff8214156134cc576134cb6134d7565b5b600182019050919050565b7f4e487b7100000000000000000000000000000000000000000000000000000000600052601160045260246000fd5b7f4e487b7100000000000000000000000000000000000000000000000000000000600052602260045260246000fd5b7f4e487b7100000000000000000000000000000000000000000000000000000000600052604160045260246000fd5b6000601f19601f8301169050919050565b7f546f6f206c6f7700000000000000000000000000000000000000000000000000600082015250565b7f4974656d20686173206265656e20616c726561647920736f6c64000000000000600082015250565b7f436f756e7465723a2064656372656d656e74206f766572666c6f770000000000600082015250565b7f4f6e6c79206f776e6572206f6620746865206d61726b6574706c61636520636160008201527f6e206368616e6765207468697300000000000000000000000000000000000000602082015250565b7f4d616b65207375726520796f75206861766520746865206c697374696e67205060008201527f7269636500000000000000000000000000000000000000000000000000000000602082015250565b7f506c6561736520706179207468652061736b696e672070726963650000000000600082015250565b7f4f6e6c79206974656d206f776e65722063616e20706572666f726d207468697360008201527f206f7065726174696f6e00000000000000000000000000000000000000000000602082015250565b7f5072696365206d75737420626520657175616c20746f206c697374696e67207060008201527f7269636500000000000000000000000000000000000000000000000000000000602082015250565b7f4f6e6c79206974656d206f776e6572206f722073656c6c65722063616e20706560008201527f72666f726d207468697300000000000000000000000000000000000000000000602082015250565b7f4164647265737320697320616c7265616479206f6e207468652077686974656c60008201527f6973742e00000000000000000000000000000000000000000000000000000000602082015250565b7f4f6e6c79206d61726b6574706c616365206f776e65722063616e20757064617460008201527f65206c697374696e672070726963652e00000000000000000000000000000000602082015250565b7f5265656e7472616e637947756172643a207265656e7472616e742063616c6c00600082015250565b6138748161338f565b811461387f57600080fd5b50565b61388b816133df565b811461389657600080fd5b5056fea264697066735822122001231946e02cf92af6676f1e3fe493fa517bab1e33038fea7f348a24e1e8e09564736f6c63430008010033",
  "linkReferences": {},
  "deployedLinkReferences": {}
}