{
  "_format": "hh-sol-artifact-1",
  "contractName": "Artizan1155",
  "sourceName": "contracts/Artizan1155.sol",
  "abi": [
    {
      "inputs": [
        {
          "internalType": "address",
          "name": "marketplace",
          "type": "address"
        }
      ],
      "stateMutability": "nonpayable",
      "type": "constructor"
    },
    {
      "anonymous": false,
      "inputs": [
        {
          "indexed": true,
          "internalType": "address",
          "name": "account",
          "type": "address"
        },
        {
          "indexed": true,
          "internalType": "address",
          "name": "operator",
          "type": "address"
        },
        {
          "indexed": false,
          "internalType": "bool",
          "name": "approved",
          "type": "bool"
        }
      ],
      "name": "ApprovalForAll",
      "type": "event"
    },
    {
      "anonymous": false,
      "inputs": [
        {
          "indexed": true,
          "internalType": "address",
          "name": "previousOwner",
          "type": "address"
        },
        {
          "indexed": true,
          "internalType": "address",
          "name": "newOwner",
          "type": "address"
        }
      ],
      "name": "OwnershipTransferred",
      "type": "event"
    },
    {
      "anonymous": false,
      "inputs": [
        {
          "indexed": true,
          "internalType": "address",
          "name": "operator",
          "type": "address"
        },
        {
          "indexed": true,
          "internalType": "address",
          "name": "from",
          "type": "address"
        },
        {
          "indexed": true,
          "internalType": "address",
          "name": "to",
          "type": "address"
        },
        {
          "indexed": false,
          "internalType": "uint256[]",
          "name": "ids",
          "type": "uint256[]"
        },
        {
          "indexed": false,
          "internalType": "uint256[]",
          "name": "values",
          "type": "uint256[]"
        }
      ],
      "name": "TransferBatch",
      "type": "event"
    },
    {
      "anonymous": false,
      "inputs": [
        {
          "indexed": true,
          "internalType": "address",
          "name": "operator",
          "type": "address"
        },
        {
          "indexed": true,
          "internalType": "address",
          "name": "from",
          "type": "address"
        },
        {
          "indexed": true,
          "internalType": "address",
          "name": "to",
          "type": "address"
        },
        {
          "indexed": false,
          "internalType": "uint256",
          "name": "id",
          "type": "uint256"
        },
        {
          "indexed": false,
          "internalType": "uint256",
          "name": "value",
          "type": "uint256"
        }
      ],
      "name": "TransferSingle",
      "type": "event"
    },
    {
      "anonymous": false,
      "inputs": [
        {
          "indexed": false,
          "internalType": "string",
          "name": "value",
          "type": "string"
        },
        {
          "indexed": true,
          "internalType": "uint256",
          "name": "id",
          "type": "uint256"
        }
      ],
      "name": "URI",
      "type": "event"
    },
    {
      "inputs": [
        {
          "internalType": "uint256",
          "name": "tokenId",
          "type": "uint256"
        }
      ],
      "name": "amountOf",
      "outputs": [
        {
          "internalType": "uint256",
          "name": "",
          "type": "uint256"
        }
      ],
      "stateMutability": "view",
      "type": "function"
    },
    {
      "inputs": [
        {
          "internalType": "address",
          "name": "account",
          "type": "address"
        },
        {
          "internalType": "uint256",
          "name": "id",
          "type": "uint256"
        }
      ],
      "name": "balanceOf",
      "outputs": [
        {
          "internalType": "uint256",
          "name": "",
          "type": "uint256"
        }
      ],
      "stateMutability": "view",
      "type": "function"
    },
    {
      "inputs": [
        {
          "internalType": "address[]",
          "name": "accounts",
          "type": "address[]"
        },
        {
          "internalType": "uint256[]",
          "name": "ids",
          "type": "uint256[]"
        }
      ],
      "name": "balanceOfBatch",
      "outputs": [
        {
          "internalType": "uint256[]",
          "name": "",
          "type": "uint256[]"
        }
      ],
      "stateMutability": "view",
      "type": "function"
    },
    {
      "inputs": [
        {
          "internalType": "address",
          "name": "account",
          "type": "address"
        },
        {
          "internalType": "address",
          "name": "operator",
          "type": "address"
        }
      ],
      "name": "isApprovedForAll",
      "outputs": [
        {
          "internalType": "bool",
          "name": "",
          "type": "bool"
        }
      ],
      "stateMutability": "view",
      "type": "function"
    },
    {
      "inputs": [
        {
          "internalType": "string",
          "name": "_tokenURI",
          "type": "string"
        },
        {
          "internalType": "uint256",
          "name": "amount",
          "type": "uint256"
        }
      ],
      "name": "mintNFT",
      "outputs": [
        {
          "internalType": "uint256",
          "name": "",
          "type": "uint256"
        }
      ],
      "stateMutability": "nonpayable",
      "type": "function"
    },
    {
      "inputs": [],
      "name": "owner",
      "outputs": [
        {
          "internalType": "address",
          "name": "",
          "type": "address"
        }
      ],
      "stateMutability": "view",
      "type": "function"
    },
    {
      "inputs": [],
      "name": "renounceOwnership",
      "outputs": [],
      "stateMutability": "nonpayable",
      "type": "function"
    },
    {
      "inputs": [
        {
          "internalType": "address",
          "name": "from",
          "type": "address"
        },
        {
          "internalType": "address",
          "name": "to",
          "type": "address"
        },
        {
          "internalType": "uint256[]",
          "name": "ids",
          "type": "uint256[]"
        },
        {
          "internalType": "uint256[]",
          "name": "amounts",
          "type": "uint256[]"
        },
        {
          "internalType": "bytes",
          "name": "data",
          "type": "bytes"
        }
      ],
      "name": "safeBatchTransferFrom",
      "outputs": [],
      "stateMutability": "nonpayable",
      "type": "function"
    },
    {
      "inputs": [
        {
          "internalType": "address",
          "name": "from",
          "type": "address"
        },
        {
          "internalType": "address",
          "name": "to",
          "type": "address"
        },
        {
          "internalType": "uint256",
          "name": "id",
          "type": "uint256"
        },
        {
          "internalType": "uint256",
          "name": "amount",
          "type": "uint256"
        },
        {
          "internalType": "bytes",
          "name": "data",
          "type": "bytes"
        }
      ],
      "name": "safeTransferFrom",
      "outputs": [],
      "stateMutability": "nonpayable",
      "type": "function"
    },
    {
      "inputs": [
        {
          "internalType": "address",
          "name": "operator",
          "type": "address"
        },
        {
          "internalType": "bool",
          "name": "approved",
          "type": "bool"
        }
      ],
      "name": "setApprovalForAll",
      "outputs": [],
      "stateMutability": "nonpayable",
      "type": "function"
    },
    {
      "inputs": [
        {
          "internalType": "bytes4",
          "name": "interfaceId",
          "type": "bytes4"
        }
      ],
      "name": "supportsInterface",
      "outputs": [
        {
          "internalType": "bool",
          "name": "",
          "type": "bool"
        }
      ],
      "stateMutability": "view",
      "type": "function"
    },
    {
      "inputs": [
        {
          "internalType": "address",
          "name": "newOwner",
          "type": "address"
        }
      ],
      "name": "transferOwnership",
      "outputs": [],
      "stateMutability": "nonpayable",
      "type": "function"
    },
    {
      "inputs": [
        {
          "internalType": "address",
          "name": "from",
          "type": "address"
        },
        {
          "internalType": "address",
          "name": "to",
          "type": "address"
        },
        {
          "internalType": "uint256",
          "name": "tokenId",
          "type": "uint256"
        },
        {
          "internalType": "uint256",
          "name": "amount",
          "type": "uint256"
        }
      ],
      "name": "transferToken",
      "outputs": [],
      "stateMutability": "nonpayable",
      "type": "function"
    },
    {
      "inputs": [
        {
          "internalType": "uint256",
          "name": "tokenId",
          "type": "uint256"
        }
      ],
      "name": "uri",
      "outputs": [
        {
          "internalType": "string",
          "name": "",
          "type": "string"
        }
      ],
      "stateMutability": "view",
      "type": "function"
    }
  ],
  "bytecode": "0x60806040523480156200001157600080fd5b50604051620034e3380380620034e3833981810160405281019062000037919062000298565b6040518060400160405280600681526020017f415a3131353500000000000000000000000000000000000000000000000000008152506200007e81620000e760201b60201c565b506200009f620000936200010360201b60201c565b6200010b60201b60201c565b80600560006101000a81548173ffffffffffffffffffffffffffffffffffffffff021916908373ffffffffffffffffffffffffffffffffffffffff1602179055505062000377565b8060029080519060200190620000ff929190620001d1565b5050565b600033905090565b6000600360009054906101000a900473ffffffffffffffffffffffffffffffffffffffff16905081600360006101000a81548173ffffffffffffffffffffffffffffffffffffffff021916908373ffffffffffffffffffffffffffffffffffffffff1602179055508173ffffffffffffffffffffffffffffffffffffffff168173ffffffffffffffffffffffffffffffffffffffff167f8be0079c531659141344cd1fd0a4f28419497f9722a3daafe3b4186f6b6457e060405160405180910390a35050565b828054620001df90620002f8565b90600052602060002090601f0160209004810192826200020357600085556200024f565b82601f106200021e57805160ff19168380011785556200024f565b828001600101855582156200024f579182015b828111156200024e57825182559160200191906001019062000231565b5b5090506200025e919062000262565b5090565b5b808211156200027d57600081600090555060010162000263565b5090565b60008151905062000292816200035d565b92915050565b600060208284031215620002ab57600080fd5b6000620002bb8482850162000281565b91505092915050565b6000620002d182620002d8565b9050919050565b600073ffffffffffffffffffffffffffffffffffffffff82169050919050565b600060028204905060018216806200031157607f821691505b602082108114156200032857620003276200032e565b5b50919050565b7f4e487b7100000000000000000000000000000000000000000000000000000000600052602260045260246000fd5b6200036881620002c4565b81146200037457600080fd5b50565b61315c80620003876000396000f3fe608060405234801561001057600080fd5b50600436106100e95760003560e01c8063715018a61161008c578063e8eb228411610066578063e8eb22841461025a578063e985e9c51461028a578063f242432a146102ba578063f2fde38b146102d6576100e9565b8063715018a6146102165780638da5cb5b14610220578063a22cb4651461023e576100e9565b80630e89341c116100c85780630e89341c1461016a5780632eb2c2d61461019a5780634e1273f4146101b65780635afa3a72146101e6576100e9565b8062fdd58e146100ee57806301ffc9a71461011e578063036ebef91461014e575b600080fd5b61010860048036038101906101039190612037565b6102f2565b60405161011591906127ef565b60405180910390f35b610138600480360381019061013391906120df565b6103bb565b60405161014591906125f2565b60405180910390f35b61016860048036038101906101639190611f09565b61049d565b005b610184600480360381019061017f9190612185565b61050c565b604051610191919061260d565b60405180910390f35b6101b460048036038101906101af9190611e4a565b6105b1565b005b6101d060048036038101906101cb9190612073565b610652565b6040516101dd9190612599565b60405180910390f35b61020060048036038101906101fb9190612131565b610803565b60405161020d91906127ef565b60405180910390f35b61021e610883565b005b61022861090b565b60405161023591906124bc565b60405180910390f35b61025860048036038101906102539190611ffb565b610935565b005b610274600480360381019061026f9190612185565b61094b565b60405161028191906127ef565b60405180910390f35b6102a4600480360381019061029f9190611e0e565b610968565b6040516102b191906125f2565b60405180910390f35b6102d460048036038101906102cf9190611f6c565b6109fc565b005b6102f060048036038101906102eb9190611de5565b610a9d565b005b60008073ffffffffffffffffffffffffffffffffffffffff168373ffffffffffffffffffffffffffffffffffffffff161415610363576040517f08c379a000000000000000000000000000000000000000000000000000000000815260040161035a9061266f565b60405180910390fd5b60008083815260200190815260200160002060008473ffffffffffffffffffffffffffffffffffffffff1673ffffffffffffffffffffffffffffffffffffffff16815260200190815260200160002054905092915050565b60007fd9b67a26000000000000000000000000000000000000000000000000000000007bffffffffffffffffffffffffffffffffffffffffffffffffffffffff1916827bffffffffffffffffffffffffffffffffffffffffffffffffffffffff1916148061048657507f0e89341c000000000000000000000000000000000000000000000000000000007bffffffffffffffffffffffffffffffffffffffffffffffffffffffff1916827bffffffffffffffffffffffffffffffffffffffffffffffffffffffff1916145b80610496575061049582610b95565b5b9050919050565b60016104a985846102f2565b10156104ea576040517f08c379a00000000000000000000000000000000000000000000000000000000081526004016104e19061270f565b60405180910390fd5b61050684848484604051806020016040528060008152506109fc565b50505050565b606060066000838152602001908152602001600020805461052c90612a8f565b80601f016020809104026020016040519081016040528092919081815260200182805461055890612a8f565b80156105a55780601f1061057a576101008083540402835291602001916105a5565b820191906000526020600020905b81548152906001019060200180831161058857829003601f168201915b50505050509050919050565b6105b9610bff565b73ffffffffffffffffffffffffffffffffffffffff168573ffffffffffffffffffffffffffffffffffffffff1614806105ff57506105fe856105f9610bff565b610968565b5b61063e576040517f08c379a0000000000000000000000000000000000000000000000000000000008152600401610635906126ef565b60405180910390fd5b61064b8585858585610c07565b5050505050565b60608151835114610698576040517f08c379a000000000000000000000000000000000000000000000000000000000815260040161068f9061278f565b60405180910390fd5b6000835167ffffffffffffffff8111156106db577f4e487b7100000000000000000000000000000000000000000000000000000000600052604160045260246000fd5b6040519080825280602002602001820160405280156107095781602001602082028036833780820191505090505b50905060005b84518110156107f8576107a2858281518110610754577f4e487b7100000000000000000000000000000000000000000000000000000000600052603260045260246000fd5b6020026020010151858381518110610795577f4e487b7100000000000000000000000000000000000000000000000000000000600052603260045260246000fd5b60200260200101516102f2565b8282815181106107db577f4e487b7100000000000000000000000000000000000000000000000000000000600052603260045260246000fd5b602002602001018181525050806107f190612af2565b905061070f565b508091505092915050565b600061080f6004610f67565b600061081b6004610f7d565b905061083833828560405180602001604052806000815250610f8b565b6108428185611121565b61084c818461114d565b610879600560009054906101000a900473ffffffffffffffffffffffffffffffffffffffff166001610935565b8091505092915050565b61088b610bff565b73ffffffffffffffffffffffffffffffffffffffff166108a961090b565b73ffffffffffffffffffffffffffffffffffffffff16146108ff576040517f08c379a00000000000000000000000000000000000000000000000000000000081526004016108f69061274f565b60405180910390fd5b6109096000611169565b565b6000600360009054906101000a900473ffffffffffffffffffffffffffffffffffffffff16905090565b610947610940610bff565b838361122f565b5050565b600060076000838152602001908152602001600020549050919050565b6000600160008473ffffffffffffffffffffffffffffffffffffffff1673ffffffffffffffffffffffffffffffffffffffff16815260200190815260200160002060008373ffffffffffffffffffffffffffffffffffffffff1673ffffffffffffffffffffffffffffffffffffffff16815260200190815260200160002060009054906101000a900460ff16905092915050565b610a04610bff565b73ffffffffffffffffffffffffffffffffffffffff168573ffffffffffffffffffffffffffffffffffffffff161480610a4a5750610a4985610a44610bff565b610968565b5b610a89576040517f08c379a0000000000000000000000000000000000000000000000000000000008152600401610a80906126af565b60405180910390fd5b610a96858585858561139c565b5050505050565b610aa5610bff565b73ffffffffffffffffffffffffffffffffffffffff16610ac361090b565b73ffffffffffffffffffffffffffffffffffffffff1614610b19576040517f08c379a0000000000000000000000000000000000000000000000000000000008152600401610b109061274f565b60405180910390fd5b600073ffffffffffffffffffffffffffffffffffffffff168173ffffffffffffffffffffffffffffffffffffffff161415610b89576040517f08c379a0000000000000000000000000000000000000000000000000000000008152600401610b809061268f565b60405180910390fd5b610b9281611169565b50565b60007f01ffc9a7000000000000000000000000000000000000000000000000000000007bffffffffffffffffffffffffffffffffffffffffffffffffffffffff1916827bffffffffffffffffffffffffffffffffffffffffffffffffffffffff1916149050919050565b600033905090565b8151835114610c4b576040517f08c379a0000000000000000000000000000000000000000000000000000000008152600401610c42906127af565b60405180910390fd5b600073ffffffffffffffffffffffffffffffffffffffff168473ffffffffffffffffffffffffffffffffffffffff161415610cbb576040517f08c379a0000000000000000000000000000000000000000000000000000000008152600401610cb2906126cf565b60405180910390fd5b6000610cc5610bff565b9050610cd581878787878761161e565b60005b8451811015610ed2576000858281518110610d1c577f4e487b7100000000000000000000000000000000000000000000000000000000600052603260045260246000fd5b602002602001015190506000858381518110610d61577f4e487b7100000000000000000000000000000000000000000000000000000000600052603260045260246000fd5b60200260200101519050600080600084815260200190815260200160002060008b73ffffffffffffffffffffffffffffffffffffffff1673ffffffffffffffffffffffffffffffffffffffff16815260200190815260200160002054905081811015610e02576040517f08c379a0000000000000000000000000000000000000000000000000000000008152600401610df99061272f565b60405180910390fd5b81810360008085815260200190815260200160002060008c73ffffffffffffffffffffffffffffffffffffffff1673ffffffffffffffffffffffffffffffffffffffff168152602001908152602001600020819055508160008085815260200190815260200160002060008b73ffffffffffffffffffffffffffffffffffffffff1673ffffffffffffffffffffffffffffffffffffffff1681526020019081526020016000206000828254610eb79190612983565b9250508190555050505080610ecb90612af2565b9050610cd8565b508473ffffffffffffffffffffffffffffffffffffffff168673ffffffffffffffffffffffffffffffffffffffff168273ffffffffffffffffffffffffffffffffffffffff167f4a39dc06d4c0dbc64b70af90fd698a233a518aa5d07e595d983b8c0526c8f7fb8787604051610f499291906125bb565b60405180910390a4610f5f818787878787611626565b505050505050565b6001816000016000828254019250508190555050565b600081600001549050919050565b600073ffffffffffffffffffffffffffffffffffffffff168473ffffffffffffffffffffffffffffffffffffffff161415610ffb576040517f08c379a0000000000000000000000000000000000000000000000000000000008152600401610ff2906127cf565b60405180910390fd5b6000611005610bff565b9050611026816000876110178861180d565b6110208861180d565b8761161e565b8260008086815260200190815260200160002060008773ffffffffffffffffffffffffffffffffffffffff1673ffffffffffffffffffffffffffffffffffffffff16815260200190815260200160002060008282546110859190612983565b925050819055508473ffffffffffffffffffffffffffffffffffffffff16600073ffffffffffffffffffffffffffffffffffffffff168273ffffffffffffffffffffffffffffffffffffffff167fc3d58168c5ae7397731d063d5bbf3d657854427343f4c083240f7aacaa2d0f62878760405161110392919061280a565b60405180910390a461111a816000878787876118d3565b5050505050565b80600660008481526020019081526020016000209080519060200190611148929190611add565b505050565b8060076000848152602001908152602001600020819055505050565b6000600360009054906101000a900473ffffffffffffffffffffffffffffffffffffffff16905081600360006101000a81548173ffffffffffffffffffffffffffffffffffffffff021916908373ffffffffffffffffffffffffffffffffffffffff1602179055508173ffffffffffffffffffffffffffffffffffffffff168173ffffffffffffffffffffffffffffffffffffffff167f8be0079c531659141344cd1fd0a4f28419497f9722a3daafe3b4186f6b6457e060405160405180910390a35050565b8173ffffffffffffffffffffffffffffffffffffffff168373ffffffffffffffffffffffffffffffffffffffff16141561129e576040517f08c379a00000000000000000000000000000000000000000000000000000000081526004016112959061276f565b60405180910390fd5b80600160008573ffffffffffffffffffffffffffffffffffffffff1673ffffffffffffffffffffffffffffffffffffffff16815260200190815260200160002060008473ffffffffffffffffffffffffffffffffffffffff1673ffffffffffffffffffffffffffffffffffffffff16815260200190815260200160002060006101000a81548160ff0219169083151502179055508173ffffffffffffffffffffffffffffffffffffffff168373ffffffffffffffffffffffffffffffffffffffff167f17307eab39ab6107e8899845ad3d59bd9653f200f220920489ca2b5937696c318360405161138f91906125f2565b60405180910390a3505050565b600073ffffffffffffffffffffffffffffffffffffffff168473ffffffffffffffffffffffffffffffffffffffff16141561140c576040517f08c379a0000000000000000000000000000000000000000000000000000000008152600401611403906126cf565b60405180910390fd5b6000611416610bff565b90506114368187876114278861180d565b6114308861180d565b8761161e565b600080600086815260200190815260200160002060008873ffffffffffffffffffffffffffffffffffffffff1673ffffffffffffffffffffffffffffffffffffffff168152602001908152602001600020549050838110156114cd576040517f08c379a00000000000000000000000000000000000000000000000000000000081526004016114c49061272f565b60405180910390fd5b83810360008087815260200190815260200160002060008973ffffffffffffffffffffffffffffffffffffffff1673ffffffffffffffffffffffffffffffffffffffff168152602001908152602001600020819055508360008087815260200190815260200160002060008873ffffffffffffffffffffffffffffffffffffffff1673ffffffffffffffffffffffffffffffffffffffff16815260200190815260200160002060008282546115829190612983565b925050819055508573ffffffffffffffffffffffffffffffffffffffff168773ffffffffffffffffffffffffffffffffffffffff168373ffffffffffffffffffffffffffffffffffffffff167fc3d58168c5ae7397731d063d5bbf3d657854427343f4c083240f7aacaa2d0f6288886040516115ff92919061280a565b60405180910390a46116158288888888886118d3565b50505050505050565b505050505050565b6116458473ffffffffffffffffffffffffffffffffffffffff16611aba565b15611805578373ffffffffffffffffffffffffffffffffffffffff1663bc197c8187878686866040518663ffffffff1660e01b815260040161168b9594939291906124d7565b602060405180830381600087803b1580156116a557600080fd5b505af19250505080156116d657506040513d601f19601f820116820180604052508101906116d39190612108565b60015b61177c576116e2612bc8565b806308c379a0141561173f57506116f7613034565b806117025750611741565b806040517f08c379a0000000000000000000000000000000000000000000000000000000008152600401611736919061260d565b60405180910390fd5b505b6040517f08c379a00000000000000000000000000000000000000000000000000000000081526004016117739061262f565b60405180910390fd5b63bc197c8160e01b7bffffffffffffffffffffffffffffffffffffffffffffffffffffffff1916817bffffffffffffffffffffffffffffffffffffffffffffffffffffffff191614611803576040517f08c379a00000000000000000000000000000000000000000000000000000000081526004016117fa9061264f565b60405180910390fd5b505b505050505050565b60606000600167ffffffffffffffff811115611852577f4e487b7100000000000000000000000000000000000000000000000000000000600052604160045260246000fd5b6040519080825280602002602001820160405280156118805781602001602082028036833780820191505090505b50905082816000815181106118be577f4e487b7100000000000000000000000000000000000000000000000000000000600052603260045260246000fd5b60200260200101818152505080915050919050565b6118f28473ffffffffffffffffffffffffffffffffffffffff16611aba565b15611ab2578373ffffffffffffffffffffffffffffffffffffffff1663f23a6e6187878686866040518663ffffffff1660e01b815260040161193895949392919061253f565b602060405180830381600087803b15801561195257600080fd5b505af192505050801561198357506040513d601f19601f820116820180604052508101906119809190612108565b60015b611a295761198f612bc8565b806308c379a014156119ec57506119a4613034565b806119af57506119ee565b806040517f08c379a00000000000000000000000000000000000000000000000000000000081526004016119e3919061260d565b60405180910390fd5b505b6040517f08c379a0000000000000000000000000000000000000000000000000000000008152600401611a209061262f565b60405180910390fd5b63f23a6e6160e01b7bffffffffffffffffffffffffffffffffffffffffffffffffffffffff1916817bffffffffffffffffffffffffffffffffffffffffffffffffffffffff191614611ab0576040517f08c379a0000000000000000000000000000000000000000000000000000000008152600401611aa79061264f565b60405180910390fd5b505b505050505050565b6000808273ffffffffffffffffffffffffffffffffffffffff163b119050919050565b828054611ae990612a8f565b90600052602060002090601f016020900481019282611b0b5760008555611b52565b82601f10611b2457805160ff1916838001178555611b52565b82800160010185558215611b52579182015b82811115611b51578251825591602001919060010190611b36565b5b509050611b5f9190611b63565b5090565b5b80821115611b7c576000816000905550600101611b64565b5090565b6000611b93611b8e84612858565b612833565b90508083825260208201905082856020860282011115611bb257600080fd5b60005b85811015611be25781611bc88882611cd4565b845260208401935060208301925050600181019050611bb5565b5050509392505050565b6000611bff611bfa84612884565b612833565b90508083825260208201905082856020860282011115611c1e57600080fd5b60005b85811015611c4e5781611c348882611dd0565b845260208401935060208301925050600181019050611c21565b5050509392505050565b6000611c6b611c66846128b0565b612833565b905082815260208101848484011115611c8357600080fd5b611c8e848285612a4d565b509392505050565b6000611ca9611ca4846128e1565b612833565b905082815260208101848484011115611cc157600080fd5b611ccc848285612a4d565b509392505050565b600081359050611ce3816130ca565b92915050565b600082601f830112611cfa57600080fd5b8135611d0a848260208601611b80565b91505092915050565b600082601f830112611d2457600080fd5b8135611d34848260208601611bec565b91505092915050565b600081359050611d4c816130e1565b92915050565b600081359050611d61816130f8565b92915050565b600081519050611d76816130f8565b92915050565b600082601f830112611d8d57600080fd5b8135611d9d848260208601611c58565b91505092915050565b600082601f830112611db757600080fd5b8135611dc7848260208601611c96565b91505092915050565b600081359050611ddf8161310f565b92915050565b600060208284031215611df757600080fd5b6000611e0584828501611cd4565b91505092915050565b60008060408385031215611e2157600080fd5b6000611e2f85828601611cd4565b9250506020611e4085828601611cd4565b9150509250929050565b600080600080600060a08688031215611e6257600080fd5b6000611e7088828901611cd4565b9550506020611e8188828901611cd4565b945050604086013567ffffffffffffffff811115611e9e57600080fd5b611eaa88828901611d13565b935050606086013567ffffffffffffffff811115611ec757600080fd5b611ed388828901611d13565b925050608086013567ffffffffffffffff811115611ef057600080fd5b611efc88828901611d7c565b9150509295509295909350565b60008060008060808587031215611f1f57600080fd5b6000611f2d87828801611cd4565b9450506020611f3e87828801611cd4565b9350506040611f4f87828801611dd0565b9250506060611f6087828801611dd0565b91505092959194509250565b600080600080600060a08688031215611f8457600080fd5b6000611f9288828901611cd4565b9550506020611fa388828901611cd4565b9450506040611fb488828901611dd0565b9350506060611fc588828901611dd0565b925050608086013567ffffffffffffffff811115611fe257600080fd5b611fee88828901611d7c565b9150509295509295909350565b6000806040838503121561200e57600080fd5b600061201c85828601611cd4565b925050602061202d85828601611d3d565b9150509250929050565b6000806040838503121561204a57600080fd5b600061205885828601611cd4565b925050602061206985828601611dd0565b9150509250929050565b6000806040838503121561208657600080fd5b600083013567ffffffffffffffff8111156120a057600080fd5b6120ac85828601611ce9565b925050602083013567ffffffffffffffff8111156120c957600080fd5b6120d585828601611d13565b9150509250929050565b6000602082840312156120f157600080fd5b60006120ff84828501611d52565b91505092915050565b60006020828403121561211a57600080fd5b600061212884828501611d67565b91505092915050565b6000806040838503121561214457600080fd5b600083013567ffffffffffffffff81111561215e57600080fd5b61216a85828601611da6565b925050602061217b85828601611dd0565b9150509250929050565b60006020828403121561219757600080fd5b60006121a584828501611dd0565b91505092915050565b60006121ba838361249e565b60208301905092915050565b6121cf816129d9565b82525050565b60006121e082612922565b6121ea8185612950565b93506121f583612912565b8060005b8381101561222657815161220d88826121ae565b975061221883612943565b9250506001810190506121f9565b5085935050505092915050565b61223c816129eb565b82525050565b600061224d8261292d565b6122578185612961565b9350612267818560208601612a5c565b61227081612bea565b840191505092915050565b600061228682612938565b6122908185612972565b93506122a0818560208601612a5c565b6122a981612bea565b840191505092915050565b60006122c1603483612972565b91506122cc82612c08565b604082019050919050565b60006122e4602883612972565b91506122ef82612c57565b604082019050919050565b6000612307602b83612972565b915061231282612ca6565b604082019050919050565b600061232a602683612972565b915061233582612cf5565b604082019050919050565b600061234d602983612972565b915061235882612d44565b604082019050919050565b6000612370602583612972565b915061237b82612d93565b604082019050919050565b6000612393603283612972565b915061239e82612de2565b604082019050919050565b60006123b6602483612972565b91506123c182612e31565b604082019050919050565b60006123d9602a83612972565b91506123e482612e80565b604082019050919050565b60006123fc602083612972565b915061240782612ecf565b602082019050919050565b600061241f602983612972565b915061242a82612ef8565b604082019050919050565b6000612442602983612972565b915061244d82612f47565b604082019050919050565b6000612465602883612972565b915061247082612f96565b604082019050919050565b6000612488602183612972565b915061249382612fe5565b604082019050919050565b6124a781612a43565b82525050565b6124b681612a43565b82525050565b60006020820190506124d160008301846121c6565b92915050565b600060a0820190506124ec60008301886121c6565b6124f960208301876121c6565b818103604083015261250b81866121d5565b9050818103606083015261251f81856121d5565b905081810360808301526125338184612242565b90509695505050505050565b600060a08201905061255460008301886121c6565b61256160208301876121c6565b61256e60408301866124ad565b61257b60608301856124ad565b818103608083015261258d8184612242565b90509695505050505050565b600060208201905081810360008301526125b381846121d5565b905092915050565b600060408201905081810360008301526125d581856121d5565b905081810360208301526125e981846121d5565b90509392505050565b60006020820190506126076000830184612233565b92915050565b60006020820190508181036000830152612627818461227b565b905092915050565b60006020820190508181036000830152612648816122b4565b9050919050565b60006020820190508181036000830152612668816122d7565b9050919050565b60006020820190508181036000830152612688816122fa565b9050919050565b600060208201905081810360008301526126a88161231d565b9050919050565b600060208201905081810360008301526126c881612340565b9050919050565b600060208201905081810360008301526126e881612363565b9050919050565b6000602082019050818103600083015261270881612386565b9050919050565b60006020820190508181036000830152612728816123a9565b9050919050565b60006020820190508181036000830152612748816123cc565b9050919050565b60006020820190508181036000830152612768816123ef565b9050919050565b6000602082019050818103600083015261278881612412565b9050919050565b600060208201905081810360008301526127a881612435565b9050919050565b600060208201905081810360008301526127c881612458565b9050919050565b600060208201905081810360008301526127e88161247b565b9050919050565b600060208201905061280460008301846124ad565b92915050565b600060408201905061281f60008301856124ad565b61282c60208301846124ad565b9392505050565b600061283d61284e565b90506128498282612ac1565b919050565b6000604051905090565b600067ffffffffffffffff82111561287357612872612b99565b5b602082029050602081019050919050565b600067ffffffffffffffff82111561289f5761289e612b99565b5b602082029050602081019050919050565b600067ffffffffffffffff8211156128cb576128ca612b99565b5b6128d482612bea565b9050602081019050919050565b600067ffffffffffffffff8211156128fc576128fb612b99565b5b61290582612bea565b9050602081019050919050565b6000819050602082019050919050565b600081519050919050565b600081519050919050565b600081519050919050565b6000602082019050919050565b600082825260208201905092915050565b600082825260208201905092915050565b600082825260208201905092915050565b600061298e82612a43565b915061299983612a43565b9250827fffffffffffffffffffffffffffffffffffffffffffffffffffffffffffffffff038211156129ce576129cd612b3b565b5b828201905092915050565b60006129e482612a23565b9050919050565b60008115159050919050565b60007fffffffff0000000000000000000000000000000000000000000000000000000082169050919050565b600073ffffffffffffffffffffffffffffffffffffffff82169050919050565b6000819050919050565b82818337600083830152505050565b60005b83811015612a7a578082015181840152602081019050612a5f565b83811115612a89576000848401525b50505050565b60006002820490506001821680612aa757607f821691505b60208210811415612abb57612aba612b6a565b5b50919050565b612aca82612bea565b810181811067ffffffffffffffff82111715612ae957612ae8612b99565b5b80604052505050565b6000612afd82612a43565b91507fffffffffffffffffffffffffffffffffffffffffffffffffffffffffffffffff821415612b3057612b2f612b3b565b5b600182019050919050565b7f4e487b7100000000000000000000000000000000000000000000000000000000600052601160045260246000fd5b7f4e487b7100000000000000000000000000000000000000000000000000000000600052602260045260246000fd5b7f4e487b7100000000000000000000000000000000000000000000000000000000600052604160045260246000fd5b600060033d1115612be75760046000803e612be4600051612bfb565b90505b90565b6000601f19601f8301169050919050565b60008160e01c9050919050565b7f455243313135353a207472616e7366657220746f206e6f6e204552433131353560008201527f526563656976657220696d706c656d656e746572000000000000000000000000602082015250565b7f455243313135353a204552433131353552656365697665722072656a6563746560008201527f6420746f6b656e73000000000000000000000000000000000000000000000000602082015250565b7f455243313135353a2062616c616e636520717565727920666f7220746865207a60008201527f65726f2061646472657373000000000000000000000000000000000000000000602082015250565b7f4f776e61626c653a206e6577206f776e657220697320746865207a65726f206160008201527f6464726573730000000000000000000000000000000000000000000000000000602082015250565b7f455243313135353a2063616c6c6572206973206e6f74206f776e6572206e6f7260008201527f20617070726f7665640000000000000000000000000000000000000000000000602082015250565b7f455243313135353a207472616e7366657220746f20746865207a65726f20616460008201527f6472657373000000000000000000000000000000000000000000000000000000602082015250565b7f455243313135353a207472616e736665722063616c6c6572206973206e6f742060008201527f6f776e6572206e6f7220617070726f7665640000000000000000000000000000602082015250565b7f46726f6d2061646472657373206d7573742068617665207468617420746f6b6560008201527f6e20696400000000000000000000000000000000000000000000000000000000602082015250565b7f455243313135353a20696e73756666696369656e742062616c616e636520666f60008201527f72207472616e7366657200000000000000000000000000000000000000000000602082015250565b7f4f776e61626c653a2063616c6c6572206973206e6f7420746865206f776e6572600082015250565b7f455243313135353a2073657474696e6720617070726f76616c2073746174757360008201527f20666f722073656c660000000000000000000000000000000000000000000000602082015250565b7f455243313135353a206163636f756e747320616e6420696473206c656e67746860008201527f206d69736d617463680000000000000000000000000000000000000000000000602082015250565b7f455243313135353a2069647320616e6420616d6f756e7473206c656e6774682060008201527f6d69736d61746368000000000000000000000000000000000000000000000000602082015250565b7f455243313135353a206d696e7420746f20746865207a65726f2061646472657360008201527f7300000000000000000000000000000000000000000000000000000000000000602082015250565b600060443d1015613044576130c7565b61304c61284e565b60043d036004823e80513d602482011167ffffffffffffffff821117156130745750506130c7565b808201805167ffffffffffffffff81111561309257505050506130c7565b80602083010160043d0385018111156130af5750505050506130c7565b6130be82602001850186612ac1565b82955050505050505b90565b6130d3816129d9565b81146130de57600080fd5b50565b6130ea816129eb565b81146130f557600080fd5b50565b613101816129f7565b811461310c57600080fd5b50565b61311881612a43565b811461312357600080fd5b5056fea2646970667358221220896f973028d3015dda1e5aacfe8fed0705223483d3b10bd39a6ad22ee8825fd164736f6c63430008010033",
  "linkReferences": {},
  "deployedLinkReferences": {}
}